:02000004003FBB
:085F7A00AAAAAAAAAAAAAAAACF
:205F8000000000000000000000000000000000000000000000000000000000000000000001
:205F90000000000000000000000000000000000000000000000000000000000000000000F1
:205FA0000000000000000000000000000000000000000000000000000000000000000000E1
:205FB0000000000000000000000000000000000000000000000000000000000000000000D1
:205FC0000000000000000000000000000000000000000000000000000000000000000000C1
:205FD0000000000000000000000000000000000000000000000000000000000000000000B1
:205FE0000000000000000000000000000000000000000000000000000000000000000000A1
:0C5FF000000000000000000000000000A5
:105FF800FFFFFFFFFFFFFFFFFFFFFFFFFFFFFFFFA9
:206000008000003D40000000C000003D400000000000003E400000004000003E400000000A
:206010008000003E40000000C000003E400000000000003F400000004000003F40000000F6
:2060200000800040002000100008000400020001FE141E46A044A8428A5876408558964DC5
:206030005200EC03FFEF00DC284D03E70642074619011E48F5A9088690035203ED058F3DFF
:206040008000A8546F16F5A9088690035201ED058F3F0000A8546F0DF5A9088690035202E2
:20605000ED058F3E8000A8546F048F3F0000A854C44206540FA6660DC4488F3F7FFFA8A987
:206060000FA668070642FF0F007B1E4A2B4E6F17C4428F3D7800A8A90FA6660EC4488F3D28
:206070007BFFA8A90FA668080642FF0B07AF1E4A56BF104E6F049A0CFFEF00927640827FED
:206080007622F5A9088690035203ED059A03F4A90A8D6F16F5A9088690035201ED059A016D
:20609000F4A90A8D6F0DF5A9088690035202ED059A02F4A90A8D6F049A00F4A90A8D761A9A
:2060A00002011E5006460F5068615C4E064AFF69764082F6964B2B519251522D672ABE005D
:2060B000761F003406020FA6EC03C5023E678A44924B1CA9FFFFCEC4EC0456BF1F4D6F19F6
:2060C0008A44884B0EC40FA6EC148A44924BFF5ECAC4964C5D4E064A5C4C764083345C4E66
:2060D000064A764082F6964B0A519251522D68D88A44884B0EC40FA6EC1E28A903E7544DC6
:2060E000ED0356BF1E4D8A58924B96DCC5448A5892C796D4924EED0883588F3D8000A8A904
:2060F000074A1EC56F1383588F3D7800A8A9074A1EC56F0C020156010044074A1E4A020161
:2061000007501E5006460F5067A1FF697640827228A903E7544DED022B4D924DFE940006BB
:20611000FE069641A8448A447640855896465200EC03FFEF00BD284603E7184100FF9241FC
:20612000ED049A14FFEF00B47640827F76229A03F4A90A8D761A56BF07450E458F008000AB
:20613000FF31560100A48344FF699A808AC47640845696465200EC0456BF18466F05924521
:206140000B455200EDEB9246ED5D2B4592455207665958458F0080209294CE41EC4D0E45B7
:206150008F0080008F408002FF31560100A40E45FF31560100A592C583448AC4764085245A
:2061600096465200ED130E458F0080008F408002FF31560100A40E45FF31560100A592C53D
:2061700083448AC4764083F396465200ED140E458F0080008F408002FF31560100A40E456E
:20618000FF31560100A592C583448AC47640845696466F120E458F0080008F408002FF3197
:20619000560100A40E45FF31560100A592C583448AC4764084569246ED050A459245520730
:2061A00069A99246EC31F5A9088690035203ED0B0E458F008000FF31560100A4834406C4AE
:2061B0001EC56F22F5A9088690035201ED098A4456030C450EA9FF1F007E1EC46F15F5A984
:2061C000088690035202ED098A4456030D450EA9FF1F007D1EC46F088A4456030D450EA900
:2061D000FF1F007E1EC4764082729246FE860006FE087C431E427640857596477640858EAA
:2061E00096460642764082C396459A03F4A90A919A0AF4A90A8C9A009B0276408581924331
:2061F0001AA90A0BF4A90A90FF2019997640858192431AA9020BF4A90A90FF2233337640DA
:20620000858158458F000A9C9294964492431AA90A0BF4A90A909A009B017640858128A9FF
:206210000A0FF4A90A90FF20199976408581761A924676408592F44770779244FE880006D8
:20622000FE087D447C431E427640857596477640858E96460642764082C39A04F4A90A912D
:206230009A06F4A90A8B9A0BF4A90A899A03F4A90A8CF4430A8A9A009B0276408581924443
:206240001AA90A0BF4A90A902B459243544568099A009B02764085810A459243544567F9D0
:2062500092441AA9020BF4A90A90FF2F15187640858192441AA90A0BF4A90A909A009B28F8
:206260007640858128A90A0FF4A90A90FF20199976408581761A924676408592F44770775D
:20627000FE8800067622764082A49A00F4A90A81F5A90A90F004F4A90A90761A00067622BB
:206280009A00F4A90A82764082A428A9AA55F4A90A8128A90E0DF4A90A909A009B03764056
:206290008581761F00340602BE000FA6EC03C5023E6728A90A0FF4A90A9028A94CCC9B03A1
:2062A00076408581761A00069A00F4A90A91F4A90A94F4A90A98F4A90A99F4A90A9AF4A922
:2062B0000A9BF4A90A92F4A90A89F4A90A8AF4A90A8BF4A90A8C9A0AF4A90A8828A90C0C6E
:2062C000F4A90A900006FE021E42762228A90A0FF4A90A908F000A9429010642FF4196C42F
:2062D00006429003FE82000676229A00F4A90A9128A90A0FF4A90A909A00F4A90A89F4A95B
:2062E0000A8AF4A90A8BF4A90A8CFF20199976408581761A000628A9FFFFF4A90A98F4A9D7
:2062F0000A99F4A90A9AF4A90A9B0006FE087C431E427640857596477640858E96460642C3
:20630000764082C3964492431AA90A0BF4A90A909A01F4A90A919A04F4A90A89FF20199952
:206310007640858192431AA9020BF4A90A9028A966669B017640858158448F000A9C9294E9
:20632000964592431AA90A0BF4A90A909A009B0176408581764082D4924676408592F447C0
:2063300070779245FE880006FE087D447C431E427640857596477640858E964606427640ED
:2063400082C39645764082EB58458F000A989243969492441AA90A0BF4A90A909A02F4A90F
:206350000A919A09F4A90A899A06F4A90A8BFF2019997640858192441AA9020BF4A90A9083
:206360009A009B047640858192441AA90A0BF4A90A909A009B0176408581764082D492466D
:2063700076408592F4477077FE880006FE087C431E427640857596477640858E96460642F3
:20638000764082C3964592431AA90A0BF4A90A909A05F4A90A91FF2019997640858192430A
:206390001AA9020BF4A90A909A009B087640858158458F000A9C9294964492431AA90A0B6E
:2063A000F4A90A90FF20199976408581764082D4924676408592F44770779244FE880006E4
:2063B000FE087D447C431E427640857596477640858E96460642764082C39645764082EB74
:2063C00058458F000A989243969492441AA90A0BF4A90A909A06F4A90A91F4A90A8BF4A964
:2063D0000A899A00F4A90A8C9A009B0A7640858192441AA9020BF4A90A90FF2F03E87640A6
:2063E000858192441AA90A0BF4A90A909A009B0176408581764082D4924676408592F447D4
:2063F0007077FE880006FE129643A046A842884306420DA619011E52C4428F3D8000A8A96E
:206400000FA6660DC4528F3F7FFFA8A90FA668070642FF0F007B1E502B4D6F039A0C6F45FA
:2064100056BF16492B482B4B2B4A2B4C06505C4D764081D89647BE00761F003406020FA6F4
:20642000EC03C5023E6788472901FF20FFFF0FA6EC171B4A1388680456BF16496F18065076
:206430005C485D4D764082200A4B0A4A9248520A670B924B520F68082B4B0A486F050A4C15
:20644000020107501E509243544C66D1764082D4884C0E430FA6ED0888472901FF20FFFFD7
:206450000FA6ED022B499249FE920006FE109643A046A842284B03E7C4428F3D8000A8A9EC
:206460000FA6660DC4428F3F7FFFA8A90FA668070642FF0F007B1E4E2B4F6F039A0C6F39B6
:2064700056BF014856BF174A2B491B4907D06621064E5C4F764083769647BE00761F0034F0
:2064800006020FA6EC03C5023E679247EC08FF5E5D4F5CA9064E764083B06F072B4A0201DE
:20649000074E1E4E0A486F050A491B4907D069E1924AEC071B4907D0690456BF174B6F042C
:2064A0009243544867D0924B5217EC022B4B924BFE900006FE0CA8467D431E42284B03E7A4
:2064B0002849000192435449682D2B4A924A522D671B5C4F0642764082F69647761F00343A
:2064C0000602BE000FA6EC03C5023E679247EC0CFF5E96485C485D4F0642764083340A4A81
:2064D000924A522D68E79247EC06924FED04284B00156F08064209011E420A4992435449EF
:2064E00067D5924B5215EC051BA903E7ED022B4B924BFE8C0006FE0A1E46A044A8428A4E99
:2064F0007640855896475200ED2E02011E4A06460F4A6828BE00761F003406020FA6EC03DC
:20650000C5023E678A440EC48A4288C40FA6EC0F8A4E06421EC4C5448A4E92C796D4C542FA
:206510008A4E92C796DC56BF28476F0C0201074A1E4A0201560100445601004206460F4A31
:2065200067DA9247FE8A0006FE0E9645A048A844884506440DA619011E4EC4448F3D800054
:20653000A8A90FA6660CC44E8F3F7FFFA8A90FA668060644FF0F007B1E4C6F039A0C6F1726
:2065400056BF4041064C5D458A48764084AA56BF80418A48064C8F400400764084AA2B41DE
:206550005D458A48064C764084AA9649FE8E0006FE02A8427640856D0642EC088A42020074
:206560001EC48A422BD48A422BDCF5A90A88ED039A0A6F029A00FE8200067622F5A9702977
:206570005068F4A97029761A0006FE02F5417077F5A9707718A9FFFEF4A970779241FE8250
:206580000006761F003487A956630004193456C40006FF43190156C2FFFF000676083B3071
:1065900092BE000696BD7600000628A901000006FE
:20659800761BFFF0E20000BDE63006002942561676256F00761BFFF0E20000BDE63006008C
:2065A8002942561676256F00761BFFF0E20000BDE63006002942561676256F00761BFFF056
:2065B800E20000BDE63006002942561676256F00761BFFF0E20000BDE63006002942561615
:2065C80076256F00761BFFF0E20000BDE63006002942561676256F00761BFFF0E20000BD6E
:2065D800E63006002942561676256F00761BFFF0E20000BDE63006002942561676256F008A
:2065E800761BFFF0E20000BDE63006002942561676256F00761BFFF0E20000BDE63006003C
:2065F8002942561676256F00761BFFF0E20000BDE63006002942561676256F00761BFFF006
:20660800E20000BDE63006002942561676256F00761BFFF0E20000BDE630060029425616C4
:2066180076256F00761BFFF0E20000BDE63006002942561676256F00761BFFF0E20000BD1D
:20662800E63006002942561676256F00761BFFF0E20000BDE63006002942561676256F0039
:20663800761BFFF0E20000BDE63006002942561676256F00761BFFF0E20000BDE6300600EB
:206648002942561676256F00761BFFF0E20000BDE63006002942561676256F00761BFFF0B5
:20665800E20000BDE63006002942561676256F00761BFFF0E20000BDE63006002942561674
:2066680076256F00761BFFF0E20000BDE63006002942561676256F00761BFFF0E20000BDCD
:20667800E63006002942561676256F00761BFFF0E20000BDE63006002942561676256F00E9
:20668800761BFFF0E20000BDE630060029425616761F003356BF0121E28000BEFFF1761744
:206698007602761BFFF0E20000BDE63006002942561676256F00761BFFF0E20000BDE63019
:2066A80006002942561676256F00761BFFF0E20000BDE63006002942561676256F00761B3E
:2066B800FFF0E20000BDE63006002942561676256F00761BFFF0E20000BDE6300600294291
:2066C800561676256F00761BFFF0E20000BDE63006002942561676256F00761BFFF0E200BE
:2066D80000BDE63006002942561676256F00761BFFF0E20000BDE63006002942561676253B
:2066E8006F00761BFFF0E20000BDE63006002942561676256F00761BFFF0E20000BDE630D2
:2066F80006002942561676256F00761BFFF0E20000BDE63006002942561676256F00761BEE
:20670800FFF0E20000BDE63006002942561676256F00761BFFF0E20000BDE6300600294240
:20671800561676256F00761BFFF0E20000BDE63006002942561676256F00761BFFF0E2006D
:2067280000BDE63006002942561676256F00761BFFF0E20000BDE6300600294256167625EA
:206738006F00761BFFF0E20000BDE63006002942561676256F00761BFFF0E20000BDE63081
:2067480006002942561676256F00761BFFF0E20000BDE63006002942561676256F00761B9D
:20675800FFF0E20000BDE63006002942561676256F00761BFFF0E20000BDE63006002942F0
:20676800561676256F00761BFFF0E20000BDE63006002942561676256F00761BFFF0E2001D
:2067780000BDE63006002942561676256F00761BFFF0E20000BDE63006002942561676259A
:206788006F00761BFFF0E20000BDE63006002942561676256F00761BFFF0E20000BDE63031
:2067980006002942561676256F00761BFFF0E20000BDE63006002942561676256F00761B4D
:2067A800FFF0E20000BDE63006002942561676256F00761BFFF0E20000BDE63006002942A0
:2067B800561676256F00761BFFF0E20000BDE63006002942561676256F00761BFFF0E200CD
:2067C80000BDE63006002942561676256F00761BFFF0E20000BDE63006002942561676254A
:2067D8006F00761BFFF0E20000BDE63006002942561676256F00761BFFF0E20000BDE630E1
:2067E80006002942561676256F00761BFFF0E20000BDE63006002942561676256F00761BFD
:2067F800FFF0E20000BDE63006002942561676256F00761BFFF0E20000BDE6300600294250
:20680800561676256F00761BFFF0E20000BDE63006002942561676256F00761BFFF0E2007C
:2068180000BDE63006002942561676256F00761BFFF0E20000BDE6300600294256167625F9
:206828006F00761BFFF0E20000BDE63006002942561676256F00761BFFF0E20000BDE63090
:2068380006002942561676256F00761BFFF0E20000BDE63006002942561676256F00761BAC
:20684800FFF0E20000BDE63006002942561676256F00761BFFF0E20000BDE63006002942FF
:20685800561676256F00761BFFF0E20000BDE63006002942561676256F00761BFFF0E2002C
:2068680000BDE63006002942561676256F00761BFFF0E20000BDE6300600294256167625A9
:206878006F00761BFFF0E20000BDE63006002942561676256F00761BFFF0E20000BDE63040
:2068880006002942561676256F00761BFFF0E20000BDE63006002942561676256F00761B5C
:20689800FFF0E20000BDE63006002942561676256F00761BFFF0E20000BDE63006002942AF
:2068A800561676256F00761BFFF0E20000BDE63006002942561676256F00761BFFF0E200DC
:2068B80000BDE63006002942561676256F00761BFFF0E20000BDE630060029425616762559
:2068C8006F00761BFFF0E20000BDE63006002942561676256F00761BFFF0E20000BDE630F0
:2068D80006002942561676256F00761BFFF0E20000BDE63006002942561676256F00761B0C
:2068E800FFF0E20000BDE63006002942561676256F00761BFFF0E20000BDE630060029425F
:2068F800561676256F00761BFFF0E20000BDE63006002942561676256F00761BFFF0E2008C
:2069080000BDE63006002942561676256F00761BFFF0E20000BDE630060029425616762508
:206918006F00761BFFF0E20000BDE630060029425616E28000BEFFF176177602761BFFF049
:20692800E20000BDE63006002942561676256F00761BFFF0E20000BDE630060029425616A1
:2069380076256F00767F695E7622761F01C01A1C000876FD7C80FF693E67761F01C0181C47
:20694800FFF7761AFF69767F6A709A129B02767F6966767F69E900067622761F01C056BF15
:20695800552556BFAA25761AFF6900067622761F01C056BF6829761AFF690006FE02974258
:206968009641761F01C043116C0676221A110010761A7625CC110180FFC6610576221811D4
:20697800FE7F761A0E411EA69221901F80A906A60FA7611676221A1100409241CD21FFE0D8
:20698800901FCAA89621761AFF69767F695E92119001520160FD76221811FFBF761A92429C
:20699800520161035202600976229003CD11FE7FFF86CAA89611761A924252036012762284
:2069A800CC11FE7F1AA9010096118F000382FF69A8A9764087B0761F01C01A110180761ABE
:2069B800FE82FF690006FE047C43974296417622761F00224E016C031801BFFF761F01C026
:2069C8001A3000049003CD30FFFCCAA896309242900FCD32FFF0CAA89632FF69767F695EDF
:2069D80092349001520160FD761F00229243CD01BFFF9001FF8DCAA89601761AFF69FE84E0
:2069E80000067622761F01C056BF021BCC10FFFC500296101A1D00011A1D00021A1D0004EE
:2069F8001A1D00081A1D00101A1D00201A1D00401A1D00801A1C00011A1C00041A1D40008C
:206A08001A1D80001A1D01001A1D02001A1D04001A1901001A1902001A1904001A19080030
:206A18001A1C00081A2000011A2000021A2000041A2001001A2002001A2004001A20080074
:206A28001A2040001A2080001A1C00101A1C01001A1C02001A1C04001A1C08001A1C1000A7
:206A38001A1C40001A1C0004761AFF690006FE027622761F002B2820FFFF2821FFFF282261
:206A4800FFFF2823FFFF2824FFFF2825FFFF2826FFFF2827FFFF761A761FFDFF92389641F7
:206A580092399641923A9641923B9641923C9641923D9641923E9641923F9641761F002BDB
:206A6800402F6D039A016F029A00FE82FF6900067622761F01C01812FEFF1812FFFE1A1233
:206A780020001A1240001A120400761AFF6900067622761F01C01812FBFF1A1200021A12D8
:206A880020001A1240001A1200011812FFFB1812FEFF761AFF6900067622761F01C01812D4
:206A9800BFFF8F00464EFF69A8A9764087B0761F01C01A1220001812FFFD1A120001181238
:206AA800FFFB1A1204001812FEFF761AFF6900067622761F01C01A1000401A124000181291
:206AB800DFFF1812FFFD1A1200011812FFFB1A1204001812FEFF761AFF6900067622761FE7
:206AC80001BE180DFF7F180DFFBF1A04C0001A08C0001A083000761AFF690006FE02964182
:206AD8007622761F01DD56BF071056BF03116F1356BF041256BF92136F1656BF011256BF15
:206AE80023136F112B1256BF91136F0D2B1256BF48136F09520061ED520161F0520261F355
:206AF800520361F52B1456BF2311761AFE82FF690006FE08A8422B452B462B4702001E4426
:206B080092466036761F01DDCC150080FFC6520160051811FFDF1A110020CC150040FFC577
:206B1800520160189217964558478A429A01934594A0964797949247525A60022B479245C4
:206B2800520D600656BF01468A4258472B9402001E44020107441E448F0A0000A8A90F44B1
:206B3800670502001E4456BF0146924661CC9247FE880006FE02964192410B4152006107F7
:206B4800F638770092410B41520060FBFE82FF690006FE029641761F01DD47146CFD961911
:206B58009A01767F6B42FE820006FE047C431E429A0A767F6B429A53767F6B519A54767F72
:206B68006B519243767F6B519A5F767F6B5128AC001806425622767F6B51CC4100FF767FC3
:206B78006B5129010642FF4790FF767F6B51CC4200FF767F6B519A0D767F6B519A0A767F9A
:206B88006B42FE840006FE02964152306805523966039CD06F10524168065246660408A95F
:206B9800FFC96F09526168065266660408A9FFA96F029A23FE820006FE04A8429284A84261
:206BA800767F6B8B96435603044396438A429284A842767F6B8B72439243FE840006FE04C5
:206BB800A842767F6BA49643560308439643020207428AA9767F6BA472439243FE840006E3
:206BC800FE029641520969039C376F029C30FE820006FE069643A8422B44FFC096432B443C
:206BD8002B466F0B8A42767F6BA49645020207421E42924572440A469243544666F4184458
:206BE80000FF924460039A016F029A00FE860006FE069645A044A842761F028192329646C0
:206BF8006F0F8A4292C472468A4483429284A84488850EA9A0420FA661039A006F0A9245E7
:206C08000B45520060EF9246761F028196329A01FE860006FE04A842020907428AA9767F36
:206C18006BB70EA91E44FF3F1E44FE840006FE387D73A8461E442B762B76020107468AA9BE
:206C2800767F6BA49674020307468AA9767F6BB70EA91E4807441E4A2B756F1292759C0905
:206C38000EA907468AA9767F6BB75CAD5876DCB25CA49B0195A097769694087500045603A7
:206C48000174547566EC8F3F6000A8A90F4A6922761F028106360F4A671D92745DAD8F0069
:206C5800A078FFC0A842DDB20EA98A4A5DA5764080285DAD92748A4ADDB2FFC05DA5767FB8
:206C68006BF0967752006108064A761F02811E366F0356BF01779277FEB80006FE04767F72
:206C78006C98964352006103764087818F008000A8428F7F65988F3F6000767F6CE7762299
:206C88009ABC28A80120761F00341E04761A7622761F003402001E02761AFF69FE84000627
:206C9800FE027622761FFDBA9218761F002B9620761FFDBA9219761F002B9621761FFDBA1E
:206CA800921A761F002B9622761FFDBA921B761F002B9623761FFDBA921C761F002B9624C2
:206CB800761FFDBA921D761F002B9625761FFDBA921E761F002B9626761FFDBA921F761F3C
:206CC800002B9627761A761FFDFF9238964192399641923A9641923B9641923C9641923DA5
:206CD8009641923E9641923F9641761F002B402F6D039A006F029A0AFE82FF690006FE0438
:206CE800A044A84206440F42690C8A429284A8428A48C4A4DE01C24896C406440F4266F66E
:206CF800FE84000628AD0050FF69561F5616561AE61002002940761F00002902761B767F6F
:206D08006EAA52006142762228A970C928A8003F0901611B76FF70C929046F0F9B0024A966
:206D1800DF016C04290424A8DF011EA6F7A1248606A781A109011EA724A96303FF5C3B04C1
:206D280059A9DF010009FFEC28A9FFFF28A8FFFF090161058F3FFFFF767F6E15761A767F9F
:206D38006EAC28A9FFFF28A8FFFF0901610E76FFFFFF6F06DF01C3BD1EA73E67C5BE24A909
:206D4800DF0124A8FF5860F7767F6E75767F6DEEFE02767F6DA152006003007F5FF6FF69B5
:206D5800767F693A767F6D748F0085988F7F70C9A8428F3F6EAD767F6CE776408795767FD8
:206D68006C76767F6E39767F6AC69A03767F6AD676408598FE820006FE042B448F008000BD
:206D7800A8422B431B436000671F8A4258432894555558438A4228A955555494610356BF4F
:206D880001442894AAAA58438A4288948F00AAAAA8A90FA6610356BF01448A422B940A4394
:206D98001B43600068E39244520160026F00FE840006FE088F3F5F7AA8428F3F5F7BA84425
:206DA8008F3F5F7CA8468F3F5F7DA8488A4288C48F00AAAAA8A90FA6600F8A4488C40FA65B
:206DB800600B8A4688C40FA660078A4888C40FA660039A006F029A01FE880006FE089647CD
:206DC8005CADDC865CA4F6032B84924796469645964496435CAD8F40A078DC860204A0421B
:206DD8005DA48F3F5F7A764080285CAD8F40A0780204A042DC865DA48F3F5F7A764084EB8E
:206DE80052006101FE88000677006F00B2BD761F028259A99200610D28ABFFFF28AAFFFF3A
:206DF80028A9FFFF28A8FFFF0FAB6103767FFFFF761F0281C53E3E67761F02820604610485
:206E08001EA792A13E67761F0282060261031EA73E67767F6DEC8BBE0006B2BDAABDA2BD0C
:206E1800FE0882A4D1005ACB6F155CAD2901560303A107A3DC8809025CA483A90208767F40
:206E28006E58064261068A448346767F6E585ACBD90192A254A166EAFE8882BE86BE8BBEB8
:206E3800000676220200761F01BE1E061E081E161E181E361E0A1E1A1E3A1E021E041E1214
:206E48001E141E0C1E1C1A0C00011806FFFC1A0A0001761F01BF1A040001761AFF690006BD
:206E58005200A8ABC5A4610788A9DE815C857C87000EFFFE88A90FA6610F5300610D9DFF72
:206E68005CA876BFFFFE92859687000EFFFE92859687000CFFF8A9A40006020028ABFFFF38
:206E780028AAFFFF19010FAB60049A00D4006F05A9A492C4A9A4DC02767F6D500006761FF5
:206E88000282A8060006761F0281A83E00060006561F7622B9C028290068761A007F6CFAF4
:206E9800FFFFFFFFFFFFFFFFFFFFFFFFFFFFFFFF76083B3092BE000696BD7600000696BD89
:0A6EA800761200069A0100060006AB
:206EAD00FE0802001E422B4556BF314828A9303028A830301E442B452B45924552506709D3
:206EBD008F00A00058452B940A459245525068FB76408595964628A90100544661027625E9
:206ECD00761F02812B3202001E36761F02802B00761F02812B342B33761F01BF1A0600014D
:206EDD00761F028192336004761F02802B008F00A000FF69767F6B019645761F0281923461
:206EED006105923396452B342B33924561E6761F028092005253607292015244606F9202F8
:206EFD00525F606C9207523A606992485233686656BF344892458F00A0089CF7767F6BD17A
:206F0D00520160CB761F0280920F523060215D458F00A0070642DD87767F6C1F520160BDB7
:206F1D00761F028028AC00180E03563B1E44290125049844994356030805984499430E0610
:206F2D00984499435C480644767F6B5D6FA65234601D8F00A007767F6C121E42761F0280A9
:206F3D0028AC00180E03563B1E44290125049844994356030805984499430E06984499434F
:206F4D005C480644767F6B5D6F88523160860E0328AC0018563B1E4429012504984499431E
:206F5D0056030805984499430E06984499435C480644767F6B5DFFEFFF7192005254603653
:206F6D0092015252603392025245603092035258602D92045238602A9205523060279206D1
:206F7D005234602492075238602192085253601E9209524C601B920A52566018920B5249E1
:206F8D006015920C52416012920D5250600F920E5231600C920F5234600956BF3148064425
:206F9D005C48767F6B5DFFEFFF39920052546046920152526043920252456040920352588B
:206FAD00603D92045238603A92055230603792065234603492075238603192085253602E8A
:206FBD009209524C602B920A52566028920B52496025920C52416022920D5250601F920E54
:206FCD005231601C920F523160199A28767F6B519A41767F6B519A43767F6B519A4B767FA1
:206FDD006B519A0D767F6B5128A90BB8767F6B429A03767F6AD6FFEFFEF19200523A6024F9
:206FED0092015265602192025266601E92035268601B924852316818761F02812B320200D1
:206FFD001E368F00A0789A02764081109AFC8F00A0787640811056BF32485C480644767FA0
:20700D006B5DFFEFFECB9200523A601592015263601292025273600F92035274600C92482E
:20701D005232680956BF334806445C48767F6B5DFFEFFEB492005253603F92015255603CD7
:20702D009202524D60399A53767F6B519A55767F6B519A4D767F6B51761F0281CC32F0009B
:20703D00FFCB9647767F6BC8767F6B51761F0281CC320F00FFC79647767F6BC8767F6B5112
:20704D00761F0281CC3200F0FFC39647767F6BC8767F6B51761F02819232900F9647767F58
:20705D006BC8767F6B519A0D767F6B519A0A767F6B42FFEFFE73920052536022920152563E
:20706D00601F56BF364828A9AAAA767F6DC65C480644767F6B5D9A0F767F6B429A0F767F10
:20707D006B429A0F767F6B429A0F767F6B427622761F01C056BF2829761A77006FFF92480D
:20708D005232FFE8FE4B5C480644767F6B5DFFEFFE45FE02964176256F00FF69FE82000684
:20709D00FE023B109AFC8F00A078FF697640811096412910FF69FE8200067622761F002A47
:2070AD001A000001CC06F0FF1AA903009606CC06FFF050039606CC07FFE0500596071A0413
:1870BD0001FF1A0501FF761AF6077700FF690006190156C3FFFF0006F3
:2070C900FFFFA07200000000FFFFA07300000000FFFFA07400000000FFFEA0760000000061
:2070D9000000FFFFA08000000001FFFEA082000000000000FFFEA084000000000000FFFE3B
:1E70E900A07E00006E8F003FFFFEA08600006E8F003FFFFFA000000000000000000032
:087F7C008888888888888888BD
:047FF600007F6E900A
:00000001FF
