:020000040800F2
:10400000F08B00206D410008495D00088D580008C4
:10401000095D0008AD460008D577000800000000E3
:104020000000000000000000000000007F410008C8
:10403000BD4D000800000000C9410008CD61000826
:104040008341000883410008834100088341000840
:104050008341000883410008834100088341000830
:10406000834100088341000883410008994D0008FE
:104070008341000883410008834100088341000810
:104080008341000883410008834100088341000800
:1040900083410008834100088341000883410008F0
:1040A00083410008834100088341000883410008E0
:1040B00083410008357400088341000883410008EB
:1040C00083410008834100088341000883410008C0
:1040D00083410008857500085976000801770008BB
:1040E000ED4E000883410008834100088341000829
:1040F000834100088341000883410008000000005C
:10410000834100080000000083410008834100084B
:104110008D740008D57400088341000883410008AD
:10412000834100088341000883410008834100085F
:104130008341000883410008834100086547000867
:10414000354700085D4700082D47000883410008F7
:1041500047355245DFF810D000F078F900480047A5
:10416000F98B0008AFF30080F08B002005488047F2
:1041700005480047FEE7FEE7FEE7FEE7FEE7FEE74D
:10418000FEE7FEE7D573000855410008EFF3108005
:1041900072B6704780F31088704719484FF0FF01DE
:1041A0000170002080F3098816484FF080510160AB
:1041B00062B6FEE713484FF0805101607047114826
:1041C0004FF080510160704772B6EFF3098028B15B
:1041D000203880E8F00F0C49096808600B480C494A
:1041E0000A78027008480B490A680260106890E873
:1041F000F00F203080F309884EF0040E62B670474D
:1042000022ED00E004ED00E0DC150020D4150020D4
:10421000D2150020D81500202DE9F05F05460020BA
:1042200092469B4688460646814640241BE0284627
:1042300041464746224600F0C1F853465A46C01A46
:10424000914110D311461846224600F0A8F82D1AC5
:1042500067EB01084F4622460120002100F09FF83D
:1042600017EB00094E41201EA4F10104DFDC484693
:1042700031462A464346BDE8F09F40EA01039B07CA
:1042800003D009E008C9121F08C0042AFAD203E0CB
:1042900011F8013B00F8013B521EF9D27047D2B22F
:1042A00001E000F8012B491EFBD270470022F6E71F
:1042B00010B513460A4604461946FFF7F0FF20469C
:1042C00010BD421E12F8013F002BFBD111F8013B3B
:1042D00002F8013B002BF9D17047421C10F8011B7A
:1042E0000029FBD1801A704730B5054600200346EF
:1042F00000E05B1C934205D2EC5CC85C201A01D143
:10430000002CF6D130BD30B480EA010202F0004545
:1043100030F0004221F0004013D090B1C30DD40D15
:10432000C2F31601C0F31600E41A41F4000140F490
:1043300000027D34914201D3641C00E04900002C4E
:1043400002DA30BC002070474FF400000023914295
:1043500001D3891A034340084FEA4101F7D151B113
:10436000914202D14FF0004105E002D24FF001012D
:1043700001E06FF0010103EBC450284430BC00F0B1
:104380002DB8C10F80EAE0700844CA0796230021C7
:1043900000F02DB896230022114600F028B8202AFC
:1043A00004DB203A00FA02F1002070479140C2F18C
:1043B000200320FA03F3194390407047202A04DBBE
:1043C000203A21FA02F00021704721FA02F3D0408E
:1043D000C2F1200291400843194670470029A8BF46
:1043E0007047401C490008BF20F00100704710B41E
:1043F000B0FA80FC00FA0CF050EA010404BF10BCD3
:10440000704749B1CCF1200421FA04F411FA0CF1FF
:1044100018BF012121430843A3EB0C01CB1D4FEA38
:1044200000614FEA102042BF002010BC704700EB33
:10443000C35010440029A4BF10BC7047401C490061
:1044400008BF20F0010010BC70470000064C074D6B
:1044500006E0E06840F0010394E807009847103454
:10446000AC42F6D3FFF77AFE50E3010870E301088F
:1044700070B58C1810F8015B15F0070301D110F826
:10448000013B2A1106D110F8012B03E010F8016B53
:1044900001F8016B5B1EF9D12B0705D40023521ED6
:1044A0000DD401F8013BFAE710F8013BCB1A921C3E
:1044B00003E013F8015B01F8015B521EF9D5A1423C
:1044C000D8D3002070BD0000704800887049088073
:1044D0007048008848807048008888806F4800884D
:1044E000C0F3802048B36D480088C0F3C02020B3DB
:1044F0006A480088C0F30030F8B168480088C0F30B
:104500004030D0B165480088C0F38030A8B163481E
:104510000088C00B88B16148807800F0010060B16C
:104520005E488078C0F3400038B15C488078C0F3C2
:10453000800010B10020C88002E001205449C880EA
:1045400057488088524908815548406A00EB8000EE
:104550004FF6FF7101EA40004D49488151480088FB
:10456000401E88814F480088C8814D48808C00EBF0
:1045700080000221C1EB4000454908824848C088BC
:1045800048824748806A00EB80004FF6FF7101EADD
:1045900040003F49888243480088401EC882414805
:1045A000008808833E48008D00EB80000221C1EBAB
:1045B0004000374948833A48008988834FF4167091
:1045C000C88338480088401E0884364800884884DC
:1045D00040F25620888432484088C8843048006AB7
:1045E00000EB80004FF6FF7101EA40002849088582
:1045F0002C480088401E48852A480088888528481D
:10460000008C00EB80000221C1EB40002049C885EE
:104610002348C08908862248406B00EB80004FF693
:10462000FF7101EA40001A4948861F480088801E31
:1046300088861D480088C8861948808E00EB800057
:104640000221C1EB4000124908871548008A4887BB
:104650001348806B00EB80004FF6FF7101EA4000C9
:104660000B49888710480088801EC8870E4800883C
:10467000A1F840000A48008F00EB80000221C1EB46
:1046800040000349A1F84200704700009C0100204F
:10469000583700209E010020A0010020A413002014
:1046A00004380020080100200C01002018F0AFFAA7
:1046B0000FE008480068401C06490860084600688A
:1046C0000549884205D900200249086003A003F08B
:1046D000A1F8EEE7B0000020C0C62D00627573207F
:1046E0006661756C740A0D000F48008820F00100A7
:1046F0000D4908800846008820F00200088008461E
:10470000008820F0040008800846008820F0080097
:1047100008800846008820F01000088008460088BD
:1047200020F02000088070473418002010B500F0F9
:1047300081F910BD0EB500F049F940F2012000905A
:1047400004480190044902910821684607F052FC90
:104750000EBD0000785634120210082410B500F087
:104760004FF910BD10B500F00BFA10BD08B50020D0
:104770000B4908600B4908600B4908600B49086049
:104780000B4B10220B4900900B4800F01BF8012046
:10479000074B802209490090094800F013F808BD32
:1047A000981600209C160020A0160020A4160020B9
:1047B000A1480008E07D0020A87D0020E07E0020C8
:1047C000C47D00202DE9F04704460D4616461F46DD
:1047D000DDF82080CCB1C5B1FFF7D8FC8146A561DA
:1047E000E681E189A06900EB0110A060A06920606A
:1047F000A06960600020A0812761C4F81480484649
:10480000FFF7C8FC0020BDE8F087FF20FBE7F0B50C
:104810000346FF2499B1888900280FDD0A6892E8D1
:10482000E10083E8E10010328868904200D88A698C
:104830000A608889401E8881002400E00424E0B2D8
:10484000F0BD00002DE9F04104460E46FF2714B3E9
:104850000121124803F075FBA089E18988420FDA33
:10486000656896E80F0085E80F001035A068A8423B
:1048700000D8A5696560A089401CA081002706E0DA
:104880000827206918B1D4E9041088470746012198
:10489000024803F05AFB3846BDE8F081006800404A
:1048A0000146A1B915480068401C144A1060104622
:1048B000006864281FD31248006840F00100104AC5
:1048C00010601046006820F00100106013E00D48F1
:1048D0000068401C0B4A10601046006864280AD328
:1048E0000748006840F00100054A10601046006863
:1048F00020F0010010600020704700009C1600208E
:1049000000680040981600202DE9F04104460E464C
:10491000FF27D4B1A089E18988420FDA656896E85B
:104920000F0085E80F001035A068A84200D8A569DF
:104930006560A089401CA081002706E00827206947
:1049400018B1D4E9041088470746F8B2BDE8F081F1
:104950002DE9F04107461A4C4FF0FF082CB32046D2
:10496000808918490968884203D9204680891549F9
:1049700008601221144803F0E4FAA089002815DD2C
:10498000266806F11005A068A84200D8A569256030
:10499000A089401EA08112210B4803F0D6FA96E8A8
:1049A0000F0087E80F004FF0000805E012210648CD
:1049B00003F0CBFA4FF0040808F0FF00BDE8F081E7
:1049C000C47D0020A01600200068004010B509E05A
:1049D00008490948FFF798FF0848006840F02000A0
:1049E000064908600548006800F003000028EFD180
:1049F00010BD0000B0690040C47D00200C6800407C
:104A000010B509E008490948FFF77EFF084800682B
:104A100040F02000064908600548006800F00300E7
:104A20000028EFD110BD0000C0690040C47D002007
:104A30001068004027480422264B143B1A60026885
:104A400002F0700169B170290BD00122C2EB111183
:104A5000214A1268521C204B1A60026842F0700210
:104A60000260026802F00402042A08D11B4A12689C
:104A7000521C1A4B1A600268194B1A4002600268F5
:104A800002F00202022A08D1164A1268521C154B83
:104A90001A600268144B1A400260026802F00102B8
:104AA00042B1124A1268521C104B1A60026822F07E
:104AB00001020260016801F47F02B2F5202F07D9DC
:104AC000026822F47F020260094A024B103B1A601E
:104AD0007047000018680040A8160020AC1600209F
:104AE000FBFF00FFB0160020FDFFFF00B416002002
:104AF000010101002DE9F04104464FF00008FFF7E5
:104B000045FB07461948808900280FDD1748808932
:104B100017490968884203D91448808914490860F4
:104B200021461248FFF78EFE804619E011480068C2
:104B3000C0F382667EB110481049895D00EB011513
:104B400060686860A068A860E068E860206840F07D
:104B50000100286004E021460448FFF773FE804608
:104B60003846FFF717FB4046BDE8F081A87D0020DE
:104B7000A4160020086800408069004050DD01084C
:104B800030B50D488089002812DD0C480068C0F35C
:104B9000826484B10A48045D0A4800EB04150649A2
:104BA0002846FFF734FE286840F00100286002E044
:104BB00005480249086030BDA87D00200868004013
:104BC00050DD0108806900400101010078B504460C
:104BD0000E464FF6FF700090002507E014F8015BC9
:104BE000BDF80010284600F013F80090301EA6F122
:104BF00001018EB2F2D16946684600F068FEBDF848
:104C000000000512BDF8000045EA002080B278BD22
:104C100073B50C4648F205066946684600F06FFE1B
:104C20009DF8000084EA002400250CE004F4004014
:104C300018B186EA440084B203E04FF6FF7000EA40
:104C40004404681CC5B2082DF0DB20467CBD000082
:104C500010B52E48007802281AD12D480078012876
:104C600002D0022812D108E016F098F929490988E3
:104C7000884201D014F0E8FA09E016F08FF92649CD
:104C80000988884201D014F013F900E000BF33E036
:104C90001F48007820B1012815D0022827D11CE038
:104CA00016F046F9C0B21B490988884201D014F0B9
:104CB000CBFA16F049F9C0B217490988884201D0E9
:104CC00014F0F6F814E016F033F9C0B2114909886F
:104CD000884201D014F0B8FA0AE016F035F9C0B2F3
:104CE0000D490988884201D014F0E2F800E000BFC5
:104CF00000BF00200649087016F032F907490988FC
:104D0000884201D014F0FCF910BD0000DA00002048
:104D1000DE00002006000020080000200400002023
:104D20001A49097871B11A49097801290AD100EBA9
:104D30004001184A02EB8101498819B90221144A3D
:104D4000117022E01149097871B9114909780729D0
:104D50000AD100EB40010F4A02EB8101498819B9E1
:104D600008210B4A117010E00849097869B1084917
:104D70000978042909D100EB4001064A02EB8101C0
:104D8000498811B90521024A11707047DE000020E0
:104D9000DA0000202478002010B502220021064805
:104DA00003F0C6FC30B105F009FB022200210248E5
:104DB00003F0B6FC10BD0000000002407047000088
:104DC00070B50025002427480078012848D100202C
:104DD000244908702448008840B916F079F8012861
:104DE00004DB16F075F8401EC4B20BE01E480088C4
:104DF000012807D116F06CF8012803DB16F06EF8D5
:104E0000401EC4B21948008808B925460EE017486C
:104E10000088844204DB15480078201AC5B205E0FA
:104E200012480088001BC0F10A00C5B20E48008875
:104E300048B9352068430E4A02EB40016A220D480A
:104E4000FFF71BFA0CE008480088012808D135203C
:104E50006843094A02EB40016A220648FFF70DFA4F
:104E600070BD0000181600201C0300201E03002047
:104E700036290020B8350020602D002070B5054689
:104E80000C46A02D02D0A82D16D10AE024B920216D
:104E90000B4803F0F7FD03E02021094803F0F4FD7F
:104EA0000BE024B91021064803F0ECFD03E01021CB
:104EB000034803F0E9FD00E000BF00BF70BD000043
:104EC000000C014010B52021074803F0DDFD102142
:104ED000054803F0D9FD4021034803F0D3FD8021AC
:104EE000014803F0CFFD10BD000C014070470000E9
:104EF00010B5002016490870164908601649086068
:104F0000164908601448008820F4806000F580602D
:104F100011490880012010F073FDA0200FF05CFB08
:104F2000A0200FF0DBFAA0200FF054F8A0200FF023
:104F3000D5F8A0200FF056F9A0200FF0CFF9A0204F
:104F40000FF04CFAA0200FF0C5FB09F033FE10BDA6
:104F50008C000020A4130020A8130020E8150020D6
:104F6000002000BF0DE00021144A22F81010144A5E
:104F700022F81010042802DA124A22F81010411CFC
:104F8000C8B20728EFDB00210F4A11800F4A1180B9
:104F90000F4A11800F4A11800F4A11800F4A118069
:104FA0000F4A11800F4A11800F4A11800F4A118059
:104FB0000F4A11800F4A1180704700003C370020D3
:104FC0004A370020B6000020BE000020C0000020AC
:104FD000C2000020C4000020C6000020C80000203D
:104FE000CA000020CC000020CE000020D00000200D
:104FF000D2000020D4000020F0B503460C46904DAE
:10500000A5F583708F4E36789E4207D18D4E767807
:10501000A64203D18B4EB67896427DD0894E367823
:105020009E422BD0162B01DB232B09DD002640F8F6
:10503000886F466086600662466286628838FDE058
:1050400000268830466086607F49A3F116060A274D
:1050500096FBF7FC07FB1C6651F8266006600026ED
:105060004662866200BFA3F1160696FBF7FC07FBBB
:105070001C6651F8266006628838DFE0714E76784B
:10508000A6424AD0012C01DB0C2C1DDD0026883005
:10509000466086606C49A3F116060A2796FBF7FC6A
:1050A00007FB1C6651F82660066000264662866291
:1050B00000BFA3F1160696FBF7FC07FB1C6651F830
:1050C000266006628838B9E00026883086605E492E
:1050D0002831661E51F8266046602839A3F116066D
:1050E0000A2796FBF7FC07FB1C6651F82660066052
:1050F000002686625549661E51F8266046622839A8
:10510000A3F1160696FBF7FC07FB1C6631F8266038
:10511000B6B20662883891E059E0012A01DB1F2A05
:1051200027DD00268830866047492831661E51F801
:10513000266046602839A3F116060A2796FBF7FC7D
:1051400007FB1C6651F826600660002686623F4910
:10515000661E51F8266046622839A3F1160696FBB2
:10516000F7FC07FB1C6631F82660B6B20662883889
:1051700064E035495831561E51F826608830866003
:105180003039661E51F8266046602839A3F11606AC
:105190000A2796FBF7FC07FB1C6651F826600660A1
:1051A0002A493031561E51F8266086623039661E13
:1051B00051F8266046622839A3F1160696FBF7FCE3
:1051C00007FB1C6651F826600662883836E01E49E7
:1051D00058311C4EB678761E51F8266088308660AD
:1051E0003039184E7678761E51F826604660283998
:1051F000144E3678163E0A2796FBF7FC07FB1C6612
:1052000051F826600660114930310E4EB678761E90
:1052100051F82660866230390A4E7678761E51F84B
:10522000266046622839074E3678163E96FBF7FC14
:1052300007FB1C6651F8266006628838F0BD000046
:10524000DE5600209C0200204C320020503300200B
:10525000F0B503460C46914DA5F58370904E367817
:105260009E4207D18E4E7678A64203D18C4EB678F8
:1052700096427DD08A4E36789E422BD0162B01DB8B
:10528000232B09DD002620F8F06F468086800682F9
:1052900046828682F038FFE00026F0304680868025
:1052A0008049A3F116060A2796FBF7FC07FB1C664C
:1052B00031F8266006800026468286827A49A3F16C
:1052C000160696FBF7FC07FB1C6631F82660068283
:1052D000F038E1E0724E7678A6424AD0012C01DB2C
:1052E0000C2C1DDD0026F030468086806D49A3F130
:1052F00016060A2796FBF7FC07FB1C6631F82660AA
:1053000006800026468286826749A3F1160696FB30
:10531000F7FC07FB1C6631F826600682F038BBE01C
:105320000026F03086805F492831661E31F82660FD
:1053300046802839A3F116060A2796FBF7FC07FBDF
:105340001C6631F826600680002686825649283180
:10535000661E31F8266046822839A3F1160696FBB0
:10536000F7FC07FB1C6631F826600682F03893E0F4
:1053700059E0012A01DB1F2A27DD0026F030868054
:1053800048492831661E31F8266046802839A3F145
:1053900016060A2796FBF7FC07FB1C6631F8266009
:1053A00006800026868240492831661E31F8266034
:1053B00046822839A3F1160696FBF7FC07FB1C660C
:1053C00031F826600682F03866E036495831561EBC
:1053D00031F82660F03086803039661E31F826605C
:1053E00046802839A3F116060A2796FBF7FC07FB2F
:1053F0001C6631F8266006802B495831561E31F85C
:10540000266086823039661E31F826604682283949
:10541000A3F1160696FBF7FC07FB1C6631F8266025
:105420000682F03838E021491D4EB678761E51F8D4
:105430002660883086603039194E7678761E51F8AD
:10544000266046602839164E3678163E0A2796FBA7
:10545000F7FC07FB1C6651F82660066012495831BC
:105460000F4EB678761E31F82660A0F87C60303991
:105470000B4E7678761E31F82660A0F87A602839CF
:10548000074E3678163E96FBF7FC07FB1C6631F894
:105490002660A0F878608838F0BD0000DE56002055
:1054A0009C02002004340020E0340020A4320020BC
:1054B000F8B500270025D54EB07AC0F3400048B1BA
:1054C000D348008896280DDAD1480088401CD0497E
:1054D000088007E0CE480088962800DB01270020DE
:1054E000CB490880CB48008800283FD00020C9491C
:1054F0000880C9480078C9490870C7484078487092
:10550000C54880788870C448C078C870C24800799F
:105510000871C14840794871BF4880798871C04896
:105520000068C0B1BE48006800909DF80000087097
:105530009DF8010048709DF8020088709DF80300F6
:10554000C870B74C241DB4480178204614F011FEF1
:10555000B44A03C205E00FF095FA0021B14A116088
:105560005160B6F8E800C117AF4A03C2AA480078F4
:1055700016287CDBA8484079A849497988421FD180
:10558000A5480079A5490979884219D1A248C0786F
:10559000A249C978884213D19F4880789F49897869
:1055A00088420DD19C4840789C494978884207D16F
:1055B0009948007899490978884201D1002F56D03E
:1055C0009548407995494979884259D0B6F8E8001C
:1055D000C117964A03C2954903C9934B0CCB801A55
:1055E00061EB0301002358405940084304D08F4821
:1055F00000688D490968451A8C48D0E900108A4A2C
:10560000C2E900108A48008800B90025844C5C3447
:1056100081488078401E54F8200041197E488078E7
:10562000401E44F82010303C7B484078401E54F81F
:105630002000411978484078401E44F82010283C4A
:105640007548007816380A2190FBF1F201FB120030
:1056500054F8200041197048007816380A2290FB4F
:10566000F2F302FB130044F820106E4800E0A2E0C1
:10567000D0E90020521940F100006A49C1E9002038
:105680006548C0786549C978884213D162488078F6
:105690006249897888420DD15F4840785F494978EE
:1056A000884207D15C4800785C490978884201D17A
:1056B000002F4DD0584800788DF8000056484078AB
:1056C0008DF80100544880788DF802005248C07867
:1056D0008DF803005249009808604F4800784F4900
:1056E000097888421ED04E4C2C340C21204606F0FE
:1056F000A5FC30341F21204606F0A0FC583C47484A
:10570000007815380A2190FBF1F201FB120000210C
:1057100044F8201040480178204614F02AFD414A00
:1057200003C20BE03C4840783C494978884205D0A8
:105730003B4C5C341F21204606F080FC0C210220EB
:1057400000F004FB27B900203A4908603A49086094
:10575000334C5C3430488078401E34F82000EA3600
:10576000B080303C2C484078401E34F820007080D7
:10577000283C2948007816380A2190FBF1F201FBF9
:10578000120034F8200026F8EA092348007823495B
:1057900008702148407848701F48807888701E48FB
:1057A000C078C8701C48007908711B48407948715E
:1057B0001948807988712148008828B30020194A47
:1057C000106050601E4908601E4908601E4908604C
:1057D00018490860184908601C4908601C4908609D
:1057E0001C49086001201C4908800D48006810B958
:1057F0000848008828B90FF045F90C21022000F074
:10580000A5FA012003490880F8BD0000D855002002
:105810009A150020981500209C020020C00200204C
:105820000034002030150020A8150020A01500200D
:105830006615002010140020141400205C150020B0
:10584000401500203C15002038150020B814002019
:10585000BC140020C0140020621500200246002164
:105860000AE042FA01F000F0010018B1481CC1B290
:1058700008467047481CC1B21029F2DB0020F8E747
:105880000148007870470000AB00002017F0BFF916
:105890000FE008480068401C064908600846006898
:1058A0000549884205D900200249086003A001F09B
:1058B000B1FFEEE7B0000020C0C62D006861726441
:1058C0004661756C740A0D0001466320704730B55F
:1058D00002460020002300BF00BF0CE00C88012519
:1058E00085402C402CB1C0F10F050124AC401C4375
:1058F000A3B2441CE0B21028F0DB138030BD30B5F9
:1059000002460020002300BF00BF0CE00C780125F8
:1059100085402C402CB1C0F107050124AC401C434C
:10592000E3B2441CE0B20828F0DB137030BD000085
:10593000084A1288521C074B1A801A461288824263
:1059400006DB42181B889A4202DC0022014B1A80B7
:10595000704700002A160020F8B500270025D64E13
:10596000307AC0F3801048B1D448008896280DDA08
:10597000D2480088401CD149088007E0CF48008801
:10598000962800DB01270020CC490880CC480088FD
:1059900000283FD00020CA490880CA480078CA4978
:1059A0000870C84840784870C64880788870C548F4
:1059B000C078C870C34800790871C24840794871FE
:1059C000C04880798871C1480068C0B1BF4800688C
:1059D00000909DF8000008709DF8010048709DF847
:1059E000020088709DF80300C870B84C241DB548AB
:1059F0000178204614F0BDFBB54A03C205E00FF064
:105A00004FF80021B24A11605160D6F89800002189
:105A1000B04A03C2AB48007816287DDBA94840791C
:105A2000A949497988421FD1A6480079A649097930
:105A3000884219D1A348C078A349C978884213D1B4
:105A4000A0488078A049897888420DD19D48407847
:105A50009D494978884207D19A4800789A4909783F
:105A6000884201D1002F57D096484079964949790C
:105A700088425BD0D6F898000021974A03C2964826
:105A8000D0E900209349D1E90031B2EB030C60EB7F
:105A9000010100238CEA03005940084304D08E48DA
:105AA00001688C4800680D1A8B4903C9894A03C2F2
:105AB0008A48008800B90025844C5C34814880788D
:105AC000401E54F8200041197E488078401E44F85A
:105AD0002010303C7B484078401E54F8200041198B
:105AE00078484078401E44F82010283C75480078DB
:105AF00016380A2190FBF1F201FB120054F8200045
:105B000041197048007816380A2290FBF2F302FB24
:105B1000130044F8201000E0A3E06D48D0E9002015
:105B2000521940F100006A49C1E900206548C07877
:105B30006549C978884213D162488078624989787A
:105B400088420DD15F4840785F494978884207D143
:105B50005C4800785C490978884201D1002F4DD01B
:105B6000584800788DF80000564840788DF80100BC
:105B7000544880788DF802005248C0788DF80300B0
:105B80005249009808604F4800784F490978884288
:105B90001ED04E4C2C340C21204606F04FFA3034E7
:105BA0001F21204606F04AFA583C4748007815382D
:105BB0000A2190FBF1F201FB1200002144F82010B1
:105BC00040480178204614F0D4FA414A03C20BE061
:105BD0003C4840783C494978884205D03B4C5C348D
:105BE0001F21204606F02AFA0721022000F0AEF815
:105BF00027B900203A4908603A490860334C5C34C0
:105C000030488078401E54F820009C36B060303C0C
:105C10002C484078401E54F820007060283C2948E9
:105C2000007816380A2190FBF1F201FB120054F8BB
:105C3000200046F89C092348007823490870214831
:105C4000407848701F48807888701E48C078C870B7
:105C50001C48007908711B484079487119488079BF
:105C600088712148008830B30021194A11605160C1
:105C700000201E4908601E4908601E490860184936
:105C80000860184908601C4908601C4908601C49E4
:105C9000086001201B4908800C48006810B90848BA
:105CA000008828B90EF0FCFE0721022000F04EF813
:105CB000012003490880F8BDD85500208215002036
:105CC000801500209C020020B9020020243300200F
:105CD000181500209015002088150020661500205A
:105CE00010140020141400205C150020281500203A
:105CF0002415002020150020B8140020BC1400201A
:105D0000C01400206015002016F081FF0FE0084845
:105D10000068401C0649086008460068054988423A
:105D200005D900200249086003A001F073FDEEE7E9
:105D3000B0000020C0C62D006D656D6F72792066C1
:105D400061756C740A0D0000704700002DE9F04188
:105D500005460E46FEF71AFA074605EB45000C49C4
:105D600001EB800420890121B14008432081208972
:105D70006189084030B10120A840064909880843DC
:105D8000044908803846FEF705FABDE8F0810000B6
:105D9000F4670020D01500201D48007800F00F00A7
:105DA00038B11B48007800F00F001A4931F8100094
:105DB00070471748007800F0F00048B115481449C2
:105DC0000978C1F3031130F81100001D80B2EFE72C
:105DD0000F48008800F4706048B10E480C490988EB
:105DE000C1F3032130F81100083080B2E0E7084821
:105DF000008800F4704040B105480088000B054958
:105E000031F810000C3080B2D2E70320D0E7000058
:105E1000D015002030DD010810B5024602EB420328
:105E2000094C04EB8300038901248C402343038144
:105E300003894489234033B101239340034C2488D0
:105E40002343024C238010BDF4670020D0150020AE
:105E500010B500F01BF800F003F800F01FF810BDBB
:105E60000020054908800549088005490880054942
:105E70000860054908607047D0150020D41500203F
:105E8000D2150020D8150020DC1500200148024959
:105E90000860704720780020E015002008480021A5
:105EA0000AE0002202608280C28002814FF6FF7207
:105EB00042810C304A1C91B20429F2DB7047000089
:105EC000F467002070B50446FEF760F906461B48EB
:105ED0000068448119480068058905EA040000BB90
:105EE00017480178012088401649098881431548E0
:105EF00001803046FEF74EF900F026F8FEF746F92D
:105F000006460E48006805890C4800680089A043D1
:105F10000A49096808813046FEF73CF905EA0400A1
:105F200070BD064800680089A043044909680881DB
:105F30003046FEF72FF905EA0400F1E7DC150020F2
:105F4000D4150020D015002010B5FEF71FF9044627
:105F5000FFF722FF0A49088008460088094908809F
:105F60000748008800EB4000074901EB8000074923
:105F70000860FEF71FF92046FEF70CF910BD00007F
:105F8000D2150020D4150020F4670020D815002079
:105F900010B5FFF701FF0B490880084600880A4941
:105FA00008800848008800EB4000084901EB8000A9
:105FB000074908600846006806490860FEF7EDF8E2
:105FC00010BD0000D2150020D4150020F467002079
:105FD000D8150020DC1500202DE9F04707460E46B5
:105FE00015461048D0F800900068A0EB86000D49D7
:105FF00008604946384600F01BF8804605EB45002E
:10600000094901EB8004C4F800800020A080E080F2
:1060100020810120A84005490988084303490880D8
:10602000BDE8F087E0150020F4670020D0150020BF
:1060300010B5024608464FF080730360031F1846F0
:106040001A606FF00104031F18461C604FF01234F1
:10605000031F18461C604FF00334031F18461C60D2
:106060004FF00234031F18461C606410031F1846CB
:106070001C600024031F18461C604FF01134031FDE
:1060800018461C604FF01034031F18461C604FF078
:106090000934031F18461C604FF00834031F1846CC
:1060A0001C604FF00734031F18461C604FF0063485
:1060B000031F18461C604FF00534031F18461C6070
:1060C0004FF00434031F18461C6010BD70B5002546
:1060D000344EA6F1240411E0A08860B1E088401C91
:1060E000E080E088A188884205DB0020E080002174
:1060F0002846FFF791FE0C34681C85B2B442EBD9F8
:106100002948007818B100202849087016E027486F
:106110000078062812DA25480078401C23490870C8
:1061200008460078052809DB4FF40051204802F0AA
:10613000A9FC4FF480711F4802F0A6FC1E480078AD
:1061400018B100201D49087009E01C480078062895
:1061500005DA1A480078401C1849087000BF184832
:10616000007818B100201749087009E01548007838
:10617000062805DA13480078401C1249087000BF51
:1061800011480068401C10490860084600684FF438
:106190007A71B0FBF1F201FB120008B901F02CFF9B
:1061A00070BD000018680020911600209416002091
:1061B00000100140000801409216002095160020B2
:1061C00093160020961600200000002010B5044809
:1061D0000068401C02490860FFF778FF10BD00000E
:1061E000E4150020F8B500270025D54E3089C0F30E
:1061F000403048B1D348008896280DDAD14800884D
:10620000401CD049088007E0CE480088962800DB73
:1062100001270020CB490880CB48008800283ED0C9
:106220000020C9490880C9480078C9490870C74892
:1062300040784870C54880788870C448C078C87075
:10624000C24800790871C14840794871BF488079D7
:106250008871C0480068C0B1BE48006800909DF8D1
:10626000000008709DF8010048709DF802008870D9
:106270009DF80300C870B74C241DB448017820462F
:1062800013F077FFB44A03C205E00EF017FC0021BB
:10629000B14A11605160B06F0021B04A03C2AB48EF
:1062A000007816287DDBA9484079A94949798842B8
:1062B0001FD1A6480079A6490979884219D1A34877
:1062C000C078A349C978884213D1A0488078A049F2
:1062D000897888420DD19D4840789D494978884207
:1062E00007D19A4800789A490978884201D1002F4D
:1062F00057D0964840799649497988425AD0B06F2C
:106300000021974A03C29648D0E900209349D1E979
:106310000031B2EB030C60EB010100238CEA0300B7
:106320005940084304D08E4801688C4800680D1A13
:106330008B4903C9894A03C28A48008800B90025ED
:10634000844C5C3481488078401E54F82000411908
:106350007E488078401E44F82010303C7B484078CE
:10636000401E54F82000411978484078401E44F8F7
:106370002010283C7548007816380A2190FBF1F26D
:1063800001FB120054F820004119704800781638BB
:106390000A2290FBF2F302FB130044F820106E482F
:1063A00000E0A2E0D0E90020521940F100006A4963
:1063B000C1E900206548C0786549C978884213D191
:1063C000624880786249897888420DD15F48407878
:1063D0005F494978884207D15C4800785C49097870
:1063E000884201D1002F4DD0584800788DF8000028
:1063F000564840788DF80100544880788DF80200A6
:106400005248C0788DF803005249009808604F4800
:1064100000784F49097888421ED04E4C2C340C210C
:10642000204605F00BFE30341F21204605F006FE05
:10643000583C4748007815380A2190FBF1F201FBDF
:106440001200002144F8201040480178204613F043
:1064500090FE414A03C20BE03C4840783C494978F1
:10646000884205D03B4C5C341F21204605F0E6FDF8
:1064700006210220FFF76AFC27B900203A4908608C
:106480003A490860334C5C3430488078401E54F8F8
:106490002000C6F88400303C2C484078401E54F858
:1064A0002000C6F88000283C2848007816380A21C9
:1064B00090FBF1F201FB120054F82000F067234832
:1064C0000078234908702148407848701F48807838
:1064D00088701E48C078C8701C48007908711B4835
:1064E000407948711948807988712148008830B313
:1064F0000021194A1160516000201E4908601E49A0
:1065000008601E49086018490860184908601C495D
:1065100008601C4908601C49086001201B4908806C
:106520000C48006810B90848008828B90EF0C6FA6F
:1065300006210220FFF70AFC012003490880F8BD6C
:10654000D85500206A150020681500209C02002004
:10655000B2020020483200200015002078150020EB
:10656000701500206615002010140020141400205F
:106570005C150020101500200C15002008150020C7
:10658000B8140020BC140020C01400205E150020A8
:1065900010B524480088401E00B222490880002817
:1065A00028DA022008802048007830B101280AD07B
:1065B00002280ED0032818D111E0FFF713FE0120A6
:1065C0001949087015E0FFF7C7F90220164908704D
:1065D0000FE0FEF76DFF03201349087009E000F09B
:1065E0001DFD00201049087003E000200E490870CE
:1065F00000BF00BF0D48008898B10D48008880B1E9
:106600000C48008868B10C48008850B100200B4944
:10661000088006490880064908800649088006491E
:10662000088010BDCA150020C81500205E15002086
:106630006015002062150020641500205C15002004
:106640003EB50446256844F25021681A8D427DD03B
:1066500009DCA5F58040A0F5047070B1102827D0A2
:10666000202874D142E020285CD0302870D0A0F5DA
:106670004050D0380028F4D1AEE02179607901EBA8
:10668000002088490880A179E07901EB0020854944
:106690004880217A607A01EB002000B2814988802D
:1066A000A07A8871E07AC87101207F490870B0E053
:1066B0002179607901EB00207A490881A179E0799C
:1066C00001EB002077494881217A607A01EB0020B4
:1066D00000B274498881A17AE07A01EB002000B20F
:1066E0007049C88101207149087092E02179607970
:1066F00001EB00206B490882A179E07901EB0020D1
:1067000068494882217A607A01EB002065498882D5
:10671000A17AE07A01EB00206249C8820120644935
:10672000087076E02179607901EB00205D490883EB
:10673000A179E07901EB00205A494883217A607AF7
:1067400001EB002057498883A17A02E00AE05FE06C
:1067500025E0E07A01EB00205249C8830120554929
:10676000087056E020794F4981F820006179A079BE
:1067700001EB00204B494884E07981F82400217A1C
:10678000607A01EB00204749C884A17AE07A01EBE6
:1067900000204449088501204749087039E02079E4
:1067A000404981F82A00607981F82B00A07981F8AE
:1067B0002C00E07981F82D00207A81F82E00607A93
:1067C00081F82F00A07A81F83000E07A81F831005A
:1067D00001203A4908701CE02179607901EB002022
:1067E00030494886A07981F83400E07981F8350095
:1067F000217A607A01EB00202A49C886A17AE07AE2
:1068000001EB00202749088701202D49087000E08E
:1068100000BF00BF24480078002842D023480078F9
:1068200000283ED02248007800283AD0214800783D
:10683000B8B321480078A0B32048007888B3204836
:10684000007870B34FF48440009000200190002144
:1068500002910821684605F0CDFB01201949087016
:106860000020194908801049087010490870104923
:1068700008701049087010490870104908701049D4
:1068800008701248408820F00400104948800846EB
:10689000408820F0080048800846408820F010001A
:1068A00048803EBD1C1C002020000020210000204C
:1068B00022000020230000202400002025000020CA
:1068C000260000201700002018000020A813002038
:1068D000016840F25933CA1A99424FD007DCA1F23D
:1068E00051324AB1042A23D0052A61D130E0032A6B
:1068F00053D0052A5CD157E00379427903EB022299
:106900003F4B1A808379C27903EB02223C4B5A80B9
:10691000037A427A03EB0222394B9A80837AC27A55
:1069200003EB0222364BDA800122364B1A7040E02C
:106930000379427903EB0222314B1A818379C279C0
:1069400003EB02222E4B5A8101222F4B1A7030E0AA
:106950000379427903EB0222294B9A818379C27928
:1069600003EB0222264BDA81037A427A03EB0222FE
:10697000234B1A820122254B1A701AE00279204B10
:106980009A744279DA7482791A75C2795A75027AE0
:106990009A7501221E4B1A700BE00279184BDA75BA
:1069A00001221C4B1A7004E001221B4B1A7000E0FC
:1069B00000BF00BF134A127802B3134A1278EAB13B
:1069C000124A1278D2B1124A1278BAB1114A127828
:1069D000A2B1114A12788AB10122104B1A7000221A
:1069E0000F4B1A80074B1A70074B1A70074B1A701F
:1069F000074B1A70074B1A70074B1A70704700004C
:106A0000561C00202700002028000020290000201C
:106A10002A0000202B0000202C0000201C00002059
:106A20001A000020704700002DE9F04100250024E5
:106A30000027A0460026D8480068D8490968C1F355
:106A4000902188427ED000BF9AE1D448006805F1C9
:106A50000A01C84060B9D0480068E840012807D161
:106A6000CD4801680020A8400140CB48016085E185
:106A7000CA48006805F10A01C8400128F7D1C64894
:106A80000068E8400128F2D014F028FAC4B2092CBA
:106A900002DC601CC4B202E00A2C00D101242046B2
:106AA0000EF022FB01200EF0D3FF611E88B20121FF
:106AB0000EF080FE611E88B201210EF069FE05F124
:106AC0006401621E90B20EF051FE611E88B2B4499C
:106AD00009880EF0A5FE611E88B2B24909880EF041
:106AE0007BFE611E88B2B04909880EF087FE611EE8
:106AF00088B2AE4909880EF07BFB611E88B2AC49B2
:106B000009880EF03FFB611E88B2AA49B1F9001056
:106B10000EF0D0FE611E88B2A74909880EF08AFCEB
:106B2000611E88B2A549B1F900100EF0D5FE611EB4
:106B300088B2A34909880EF06BFC611E88B2A14996
:106B4000098800E025E10EF035FC611E88B29E49FF
:106B500009880EF0F7FB611E88B29C4909880EF087
:106B60007FFB611E88B29A4909880EF0B3FB611E53
:106B700088B2984909880EF08BFC611E88B296494C
:106B800009880EF005FD611E88B2944909880EF04F
:106B9000EDFC611E88B2924909880EF0B1FC611EBD
:106BA00088B2904909880EF099FC611E88B28E491E
:106BB00009880EF0C9FC611E88B28C4909880EF064
:106BC000B1FC611E88B28A4909880EF0EDFA611E97
:106BD00088B2884909880EF0B1FA611E88B28649E8
:106BE000B1F900100EF042FE611E88B28349098897
:106BF0000EF0ECFA611E88B2814909880EF0B0FAF5
:106C0000611E88B27F49B1F900100EF041FE611E8D
:106C100088B27D4909880EF0A7FB611E88B27B49C6
:106C200009880EF069FB611E88B2794909880EF067
:106C3000F1FA611E88B2774909880EF023FB611EC4
:106C400088B2754909880EF0A1FB611E88B27349AC
:106C500009880EF063FB611E88B2714909880EF045
:106C6000EBFA611E88B26F4909880EF01FFB611EA6
:106C700088B26D4909880EF09DFC611E88B26B498F
:106C800009880EF017FC611E88B26949B1F900103D
:106C90000EF070FE611E88B26649B1F900100EF068
:106CA00055FE6548B0F900006449B1F9001088420A
:106CB00004DD614800881FFA80F803E05F4800881F
:106CC0001FFA80F8611E88B20FFA88F10EF02AFED2
:106CD0005B48B0F900005B49B1F90010884203DD60
:106CE0005748008886B202E05648008886B2564867
:106CF000B0F90000B04202DD5348008886B2611E40
:106D000088B231B20EF0FAFD611E88B200210EF099
:106D100079FC611E88B200210EF088FC611E88B2E9
:106D200000210EF097FC611E88B200210EF0A6FC37
:106D3000611E88B200210EF0B5FC611E88B20021F0
:106D40000EF0C4FC611E88B200210EF0D3FC611E5F
:106D500088B200210EF0E2FC611E88B200210EF024
:106D6000F1FC611E88B200210EF038FC0A4801686F
:106D70000120A8400143084801600127681CC5B2F2
:106D8000102DFFF662AE012F03D101200EF010FE90
:106D90000027BDE8F081000094000020A41300202B
:106DA0009C0100209E010020A0010020080100207D
:106DB0000C0100200E010020100100201401002011
:106DC00016010020180100201C0100201E010020D7
:106DD00020010020220100202401002028010020A1
:106DE0002A0100202E010020300100203401002063
:106DF000360100203A0100203C0100203E01002025
:106E000042010020440100204C01002050010020DC
:106E10005201002054010020560100205A01002098
:106E20005C0100205E010020800100208201002022
:106E3000880100208A0100208C0100208E010020A2
:106E4000900100209201002094010020F0B587B04D
:106E500006465F4850F82670BC1C07F1DE05022E7E
:106E600001D0002E6ED1207949286BD1607941285C
:106E700068D1A079502865D1E0790D2862D1E079F8
:106E8000A17962792379CDE90332CDE90510E17862
:106E9000A0786278CDE90020029123784DA255A117
:106EA000492015F0B5FE207849282CD16078562865
:106EB00029D1A078452826D1E0784D2823D11EB9C4
:106EC00002204D49087004E0022E02D101204A49F7
:106ED0000870012049490870494815F0E5FD484807
:106EE00015F079FD28202870412068704320A87093
:106EF0004B20E8700D2028710522294630460DF000
:106F000083FF07B0F0BD207849285ED1607849281A
:106F10005BD1A078432858D1E0784D2855D107207F
:106F20003649087028202870412068704320A870D6
:106F30004B20E8700D2028710522294630460DF0BF
:106F400063FFDEE7022E00D0F6BB2078472808D189
:106F50006078352805D1A078522802D1E0784328FE
:106F60000BD02078472830D1607833282DD1A078F5
:106F700043282AD1E078432827D12248B0F9860057
:106F800001280ADC1F48408DC0F3803028B91D4815
:106F9000408DC0F3403000B9B3E71EB90220164956
:106FA000087004E0022E02D1012013490870144831
:106FB00015F07AFD124815F00EFD0F48007810B15B
:106FC00005200E4908709CE7FFE700BF99E7000025
:106FD000283700206F746120726563763A25632537
:106FE0006325632563256325632563253032780A8D
:106FF0000D0000006D6F6400DE000020DA0000204C
:1070000000040040B6550020024908700978024A81
:1070100011807047AB000020A4000020F8B50027C5
:107020000025D54EB07A00F0010048B1D348008861
:1070300096280DDAD1480088401CD049088007E026
:10704000CE480088962800DB01270020CB49088025
:10705000CB48008800283FD00020C9490880C94893
:107060000078C9490870C74840784870C54880789A
:107070008870C448C078C870C24800790871C14897
:1070800040794871BF4880798871C0480068C0B1B4
:10709000BE48006800909DF8000008709DF801004F
:1070A00048709DF8020088709DF80300C870B74CC6
:1070B000241DB4480178204613F05BF8B44A03C29B
:1070C00005E00DF009FD0021B14A11605160B6F8EC
:1070D000F800C117AF4A03C2AA48007816287CDB23
:1070E000A8484079A849497988421FD1A548007924
:1070F000A5490979884219D1A248C078A249C9781E
:10710000884213D19F4880789F49897888420DD161
:107110009C4840789C494978884207D19948007832
:1071200099490978884201D1002F56D09548407975
:1071300095494979884259D0B6F8F800C117964A5E
:1071400003C2954903C9934B0CCB801A61EB030131
:10715000002358405940084304D08F4800688D49A7
:107160000968451A8C48D0E900108A4AC2E9001023
:107170008A48008800B90025844C5C3481488078B6
:10718000401E54F8200041197E488078401E44F883
:107190002010303C7B484078401E54F820004119B4
:1071A00078484078401E44F82010283C7548007804
:1071B00016380A2190FBF1F201FB120054F820006E
:1071C00041197048007816380A2290FBF2F302FB4E
:1071D000130044F820106E4800E0A2E0D0E900203F
:1071E000521940F100006A49C1E900206548C078A1
:1071F0006549C978884213D16248807862498978A4
:1072000088420DD15F4840785F494978884207D16C
:107210005C4800785C490978884201D1002F4DD044
:10722000584800788DF80000564840788DF80100E5
:10723000544880788DF802005248C0788DF80300D9
:107240005249009808604F4800784F4909788842B1
:107250001ED04E4C2C340C21204604F0EFFE30346E
:107260001F21204604F0EAFE583C474800781538B4
:107270000A2190FBF1F201FB1200002144F82010DA
:1072800040480178204612F074FF414A03C20BE0E7
:107290003C4840783C494978884205D03B4C5C34B6
:1072A0001F21204604F0CAFE0D210220FEF74EFDEC
:1072B00027B900203A4908603A490860334C5C34E9
:1072C00030488078401E34F82000FA36B080303CD8
:1072D0002C484078401E34F820007080283C294813
:1072E000007816380A2190FBF1F201FB120034F805
:1072F000200026F8FA09234800782349087021481D
:10730000407848701F48807888701E48C078C870E0
:107310001C48007908711B484079487119488079E8
:1073200088712148008828B30020194A10605060F5
:107330001E4908601E4908601E4908601849086017
:10734000184908601C4908601C4908601C4908600D
:1073500001201C4908800D48006810B908480088C1
:1073600028B90DF0B9FB0D210220FEF7EFFC01203A
:1073700003490880F8BD0000D8550020B215002050
:10738000B01500209C020020C7020020DC34002041
:1073900048150020C0150020B815002066150020F3
:1073A00010140020141400205C1500205815002033
:1073B0005415002050150020B8140020BC140020E3
:1073C000C0140020641500200149087070470000B7
:1073D0001616002008B51548006840F00100134952
:1073E00008600846406840F0800048600020009037
:1073F00002E00098401C009044F62061009888420A
:10740000F7D3002009494860C86208460068084967
:107410000840064908604FF47F008860084600680D
:1074200020F48020086015F005FA08BD0010024025
:10743000FFFFF6EA10B508F0BFFF0446012111482E
:1074400015F021FBE0B110480078032808D1002C8A
:1074500012DD611EC9B20C4608460EF0FFFA0BE0C1
:1074600009480078062807D1002C05DD611EC9B245
:107470000C4608460EF0F2FA0121024815F000FB16
:1074800010BD000000040040DA00002010B50E49D5
:107490000E4815F0A7FD10B103200DF051FB0C496B
:1074A0000A4815F09FFD10B103200DF05FFC032189
:1074B000064815F06EFD30B10321044815F05CFD5F
:1074C000024815F0FDFC10BD05030500004C00400E
:1074D0000703070010B52649264815F083FDE8B1DB
:1074E00004200DF02DFB24480078032814D13C2003
:1074F0000EF0B4FA21480078022804D100210420BB
:107500000DF054FA0AE01D480078012806D1022146
:1075100004200DF04BFA01E017480078184915488F
:1075200015F060FDB8B104200DF020FC1248007881
:10753000032810D111480078022804D1042100202A
:107540000DF034FA07E00D480078012803D104213A
:1075500002200DF02BFA0321064815F01AFD30B178
:107560000321044815F008FD024815F0A9FC10BDE0
:107570000503050000500040DA000020DE00002076
:107580000703070010B52F492F4815F02BFD18B33E
:107590002E48007802280DD12D480078032809D103
:1075A0003C200EF05BFA00200DF0CAFA0421002006
:1075B0000DF0FCF92548007802280ED12448007807
:1075C00006280AD13C200EF049FA00200DF0B8FA46
:1075D000012100200DF0EAF902E000200DF0B0FAE0
:1075E0001C49194815F0FEFCF0B100200DF0BEFB5F
:1075F0000020FDF795FB15480078022808D11448B3
:107600000078032804D1002104200DF0CFF90BE00D
:107610000E480078022807D10D480078062803D1CB
:10762000002101200DF0C2F90321074815F0B1FC3B
:1076300030B10321044815F09FFC034815F040FCCD
:1076400010BD00000503050000380140DE000020E9
:10765000DA0000200703070010B52449244815F07C
:10766000C1FCC8B101200DF06BFA22480078062851
:1076700012D13C200EF0F2F91F480078022804D104
:10768000002101200DF092F906E01B480078012846
:1076900002D102210DF08AF91849154815F0A2FC13
:1076A000B8B101200DF062FB12480078062810D115
:1076B00011480078022804D1012100200DF076F94C
:1076C00007E00D480078012803D1012102200DF0C8
:1076D0006DF90321064815F05CFC30B10321044824
:1076E00015F04AFC024815F0EBFB10BD0503050040
:1076F00000440040DA000020DE00002007030700FD
:1077000010B52F492F4815F06DFC20B32E48007896
:1077100001280ED12D48007803280AD13C200EF014
:107720009DF902200DF00CFA042102200DF03EF923
:1077300015E02548007801280ED124480078062855
:107740000AD13C200EF08AF902200DF0F9F901214E
:1077500002200DF02BF902E002200DF0F1F91C4996
:10776000184815F03FFCF0B102200DF0FFFA02209E
:10777000FDF7D6FA14480078012808D1134800789C
:10778000032804D1022104200DF010F90BE00E486B
:107790000078012807D10D480078062803D102217E
:1077A00001200DF003F90321064815F0F2FB30B17A
:1077B0000321044815F0E0FB024815F081FB10BDE1
:1077C0000503050000480040DE000020DA0000202C
:1077D0000703070015F01BFA0FE008480068401C7B
:1077E00006490860084600680549884205D9002016
:1077F0000249086003A000F00DF8EEE7B000002099
:10780000C0C62D005573616765206661756C740A8A
:107810000D0000000FB4054B10B503A9044A0298EF
:1078200000F02CF810BC5DF814FB0000C9890008BA
:10783000041C00200FB4084B10B504A902AA039839
:1078400000F01CF8044602A9002000F042FA20468D
:1078500010BC5DF814FB0000D37C000802E008C8EF
:10786000121F08C1002AFAD170477047002001E0BA
:1078700001C1121F002AFBD1704700002DE9FF4F04
:107880008DB00F460546002606E025280BD0DDE921
:107890000F1290476D1C761C28780028F5D111B086
:1078A0003046BDE8F08F0024A246A1460122E949F6
:1078B00000E0044315F8013F203B02FA03F00842C0
:1078C000F7D128782A2810D06FF02F022878A0F15D
:1078D0003001092914D80AEB8A0102EB410144F076
:1078E000020400EB010A6D1CF0E701CF5FEA000A19
:1078F00003D544F40054CAF1000A44F002046D1C9C
:1079000028782E2817D115F8010F44F004042A28EE
:107910000ED06FF02F022878A0F1300109290AD883
:1079200009EB890102EB410100EB01096D1CF2E753
:1079300057F8049B6D1C28786C280FD006DC4C2867
:1079400017D068280DD06A2814D104E0742810D00C
:107950007A280FD10DE044F400140AE044F48014B6
:1079600001E044F440146978814202D104F58014A6
:107970006D1C6D1C28786E281ED00CDC632830D05E
:1079800004DC00288BD0582811D19FE0642867D0F0
:1079900069280CD164E073282DD004DC6F2872D0E4
:1079A000702804D194E075286ED078286DD0DDE978
:1079B0000F129047761C4BE1C4F30250022806D008
:1079C000032809D0042801CF09D0066040E101CF87
:1079D000F117C0E900613BE101CF068038E1067094
:1079E00036E117F8040B8DF8000000208DF8010037
:1079F000EB46012003E057F804BB4FF0FF3061076E
:107A00004FF0000102D40DE008F10101884649451C
:107A10000FDA8045F8DB1BF808100029F4D108E0E4
:107A200008F1010188468142FADB1BF808100029A1
:107A3000F6D1DDE90F23AAEB08008146214600F0CC
:107A400031F9304400EB080604E0DDE90F121BF8C1
:107A5000010B9047B8F10108F7D221464846F2E001
:107A60000A21C4F302524FF0000B0891022A04D0FD
:107A700001CFC117032A09D00AE0FF1D27F007072D
:107A8000F7E8020108E02CE01EE01FE000B2C11799
:107A9000042A01D140B2C117021E71F1000206DAB8
:107AA0000023D0EB030063EB01012D2202E022054D
:107AB00004D52B228DF82420012203E0E20701D017
:107AC0002022F7E7904653E00A210BE0102109E05D
:107AD00010214FF0000B44F004044FF00809089106
:107AE00003E008214FF0000B0891C4F30252022A70
:107AF00004D001CF0021032A06D006E0FF1D27F0A5
:107B00000707F7E8020103E080B2042A00D1C0B2FF
:107B10004FF0000822072BD52A78702A07D0DDF80D
:107B200020C08CF0100C5CEA0B0C05D00EE040225B
:107B30008DF82420012208E050EA010306D030230A
:107B40008DF824308DF8252002229046089B83F082
:107B5000080353EA0B030BD150EA010201D162077B
:107B600006D530228DF824204FF00108A9F1010933
:107B70002A78582A04D038A20B9208AA0A920BE05D
:107B80003AA2F9E75B46089AFCF746FB0B9B9B5C25
:107B90000A9A521E0A92137050EA0102F2D10A9810
:107BA000ADEB000000F1200B600702D524F4803417
:107BB00001E04FF00109D94502DDA9EB0B0000E01F
:107BC000002000EB0B0141440890AAEB010AE003FE
:107BD00006D4DDE90F232146504600F063F8064441
:107BE0004FF0000908E009A911F80900DDE90F12BA
:107BF000904709F10109761CC145F4DBE0030CD57F
:107C0000DDE90F232146504600F04CF8064404E01D
:107C1000DDE90F1230209047761C0899481E089025
:107C20000029F5DC08E00A980A990078491C0A91B5
:107C3000DDE90F129047761CBBF10001ABF1010B9F
:107C4000F1DC21465046DDE90F2300F019F8064427
:107C50006D1C21E6092801003031323334353637C6
:107C60003839616263646566000000003031323388
:107C70003435363738394142434445460000000028
:107C80002DE9F041044600251E461746880404D419
:107C900005E039462020B0476D1C641EF9D5284602
:107CA000BDE8F0812DE9F041044600251E469046CE
:107CB000C80301D5302700E02027880404D505E05B
:107CC00041463846B0476D1C641EF9D52846BDE8CC
:107CD000F0810A68531C0B601070704710B50446A1
:107CE0000A48844208D140F2194002F03DFB40F2BC
:107CF000194002F029FB07E040F21A4002F034FB81
:107D000040F21A4002F020FB10BD00000064004069
:107D100010B50021837A012202FA03F13E4A12686B
:107D200042F001023C4B1A603B4A1C3212688A4303
:107D3000394B1C331A60C289DAB9374A0C321268DF
:107D40008A43354B0C331A60C288344B03EA024233
:107D500043881A434389304C403444F833208288A6
:107D60002E4B03EA024203881A43438904EBC30300
:107D70005A60C289012A1BD1274A0C3212680A4371
:107D8000254B0C331A600288244B03EA02424388D5
:107D90001A434389204C403444F8332082881F4BD7
:107DA00003EA0242C3881A43438904EBC3035A60BF
:107DB00082893AB9184A121D12688A43164B1B1D54
:107DC0001A6006E0144A121D12680A43124B1B1D6A
:107DD0001A6002893AB9104A143212688A430E4B6B
:107DE00014331A6006E00C4A143212680A430A4B34
:107DF00014331A60027C012A06D1074A1C32126829
:107E00000A43054B1C331A60034A126822F0010230
:107E1000014B1A6010BD0000006600400000FFFF2B
:107E200070B502464FF6FF730020146824F0020478
:107E30001460146844F00104146000E05B1E546890
:107E400004F001040CB9002BF8D1546804F00104CB
:107E50000CB9002074E00C784FF0404505EA8474BA
:107E60004D784FF0407606EA05652C438D784FF447
:107E7000702606EA05452C43CD784FF4E00606EA65
:107E800005552C434D896D1EC5F309052C43D4615E
:107E90000C79012C04D1146844F08004146003E0D0
:107EA000146824F0800414604C79012C04D1146807
:107EB00044F04004146003E0146824F040041460AB
:107EC0008C79012C04D1146844F02004146003E080
:107ED000146824F020041460CC79012C04D11468B7
:107EE00044F01004146003E0146824F010041460DB
:107EF0000C7A012C04D1146844F00804146003E0E7
:107F0000146824F0080414604C7A012C04D114681D
:107F100044F00404146003E0146824F004041460C2
:107F2000146824F0010414604FF6FF7300E05B1E38
:107F3000546804F001040CB1002BF8D103B1012006
:107F400070BD42698A434261704742690A43426197
:107F5000704710B5024609B900BFFEE732B1012AE9
:107F600016D0022A20D0032A41D12EE000234B71E3
:107F7000CB718B7140F2FF334B8100230B724B703E
:107F800002238B700023CB700B714B720B7030E0AF
:107F90000123CB8100230B740B810B804B808B80E2
:107FA000CB808B814B8124E0002005E0002401F18F
:107FB0000B031C54431CD8B20828F7D300238B7240
:107FC0004B600B724B720B6013E0002005E0002445
:107FD00001F10B031C54431CD8B20828F7D300232B
:107FE0008B724B600B72CB744B720B6001E000BF65
:107FF000FEE700BF10BD000002480068401C0149B8
:1080000008607047F01300202DE9F04104460D464A
:108010000026002702E00120FDF754FF0B480078FE
:10802000012804D138467F1CB0F5967FF3D3012098
:10803000064908702A462146054800F08CFC064691
:108040000020024908703046BDE8F081EE130020A0
:10805000D05D00202DE9F84380460C4616460027E7
:108060002546FF2D00D9FF254FF0000902E0012031
:10807000FDF728FF15480078012805D1484609F189
:108080000109B0F5967FF2D301201049087010481D
:108090000670EAB2411C404608F048FD681CC2B2B6
:1080A0000B490C4800F0F9FB07460020074908700F
:1080B0003B4609A210A14920009414F0A9FD2146D5
:1080C000404614F0A7FD3846BDE8F883EE130020C3
:1080D000C4660020D05D0020696E707574206672E1
:1080E0006F6D2064737020646174615B25645D3A18
:1080F00025640A0D000000006669666F000000003C
:108100002DE9F04104460D460026002702E001203B
:10811000FDF7D8FE0B480078012804D138467F1CB3
:10812000B0F5967FF3D30120064908702A46214610
:10813000054800F010FC0646002002490870304651
:10814000BDE8F081ED130020C45900202DE9F8436B
:1081500080460C46164600272546FF2D00D9FF25F0
:108160004FF0000902E00120FDF7ACFE1548007851
:10817000012805D1484609F10109B0F5967FF2D3EF
:1081800001201049087010480670EAB2411C4046B0
:1081900008F0CCFC681CC2B20B490C4800F07DFB17
:1081A00007460020074908703B4609A20FA1492055
:1081B000009414F02DFD2146404614F02BFD384666
:1081C000BDE8F883ED130020C4650020C4590020E9
:1081D000696E707574203264737020646174615BC1
:1081E00025645D3A25640A0D000000006669666F2B
:1081F0000000000010B54FF480620649A1F10C00A8
:1082000000F02AFB4FF4FD620349A1F10C0000F0DD
:1082100023FB10BDD0590020DC5D002038B50024C0
:108220000020009047480078072872D2DFE800F06D
:108230000483831F343C4A000020434908704348AC
:10824000FFF75EFF00B97AE03F48037840A246A1FD
:10825000492014F0DDFC012401203A49087044490A
:10826000C868804703203749087000BF67E00124D1
:1082700035480078401E81B23D4842683348401C72
:108280009047314803783BA240A1492014F0C0FC3C
:1082900004202C49087052E0354988688047012441
:1082A0000520284908704AE00124314800234FF492
:1082B000FA62210205683648A84700900620214945
:1082C00008703CE001242A4801696846884700B9E3
:1082D00035E030A22DA14920009B14F099FC0098B4
:1082E000042817DD19480078FF2806D017480278BF
:1082F0000098C1B22648FFF7ADFE25484078062811
:1083000002D0102804D100BF21202749088000BFD7
:108310000CE010E025A014F074FC26A21BA157204D
:10832000009B14F075FC2CA014F06BFC02240020C0
:108330000449087003E000200249087000BF00BF34
:10834000204638BDEA130020EB130020C45700205C
:108350006F75747075742032647370206461746119
:108360003A25640A0D0000006669666F000000008F
:10837000AC570020647370206669666F207772695D
:108380007465203A25640A0D00000000444556003B
:10839000C4580020647370206669666F207265613E
:1083A00064203A25640A0D00DC1300201B5B333384
:1083B0006D000000646576206669666F20646174F4
:1083C0006120666F726D206572726F72204C454E2F
:1083D0003A25640A0D0000001B5B306D0A0D000099
:1083E00010B50948007838B900F022F801280AD001
:1083F00001200549087006E0FFF710FF012802D0B0
:1084000000200149087010BDEC13002010B504468F
:1084100006492068086060684860A0688860E06875
:10842000C86020690861FFF7E5FE10BDAC57002069
:108430007FB500240020039092480088212805D1B0
:1084400022209149087000208E4908808F480078CA
:1084500008287DD2DFE800F004527C7C7C8DA0EF00
:108460008B48007820B98B4840688B4908603CE015
:1084700087480078012804D18648806886490860CA
:1084800033E083480078022812D18448007838B15C
:108490007D4801780078401C7B4A1070212907DD57
:1084A0000020794908707B48C0687B4908601CE05F
:1084B0007B480078401C7A4908707A48007818B1E7
:1084C00008460078642809DD002075490870704965
:1084D0000870704840687049086006E001206C49E7
:1084E00008706C4880686C49086069480078401CD6
:1084F00067490870012065490870BEE06648006859
:10850000807868B9684801780078401C664A107025
:108510000F2904DD0020114608705C490870ACE0AA
:1085200002205A4908706149C868804703205749AA
:108530000870012400BF58480068837856480068D6
:10854000028801215A4809F025F90390039800E0B8
:108550008FE081B2554842685548904704204B4906
:10856000087052498868804700BF05204749087055
:1085700083E00124484800688078052202EB40012E
:108580004A4800234FF4487205684A48A8470390B8
:1085900006203E49087070E001244448016903A8A0
:1085A000884700B969E044A247A14920039B14F021
:1085B0002FFB039804283FDD0020009001900290DB
:1085C000039881B26A463B4809F057F938BB9DF8D9
:1085D0000810314800688078B1EB400F1FD19DF83A
:1085E00008202D48019900684368384898470128B9
:1085F00020D127480078401E28B92A48007810B9B1
:1086000001202849087022480078401E022811D114
:108610002248007870B90120204908700AE02CA097
:1086200014F0EFFA2CA228A1452014F0F1FA30A0A2
:1086300014F0E7FA0CE010E02FA014F0E2FA30A2F8
:1086400021A15720039B14F0E3FA29A014F0D9FAD2
:10865000022407200D4908700FE00020124908701D
:1086600001200A4908700C48006808300A4908606F
:1086700003E000200549087000BF00BF204604B099
:1086800070BD0000DC130020E1130020DF13002088
:10869000E213002008DD0108E4130020E9130020A4
:1086A000E0130020E8130020DE130020AC57002068
:1086B000C4570020C4580020726561642064737040
:1086C0003A25640A0D00000044455600B6550020C6
:1086D0001B5B33316D00000064657620646174615A
:1086E00020666F726D206572726F720A0D00000055
:1086F0001B5B306D0A0D00001B5B33336D00000007
:10870000646576206461746120666F726D206572A5
:10871000726F72204C454E3A25640A0D000000002D
:1087200010B543688C0002FA04F42343436010BD83
:1087300070B5034600BF00BF022A04D0042A11D03E
:10874000082A2DD11DE018688E0002FA06F600EA0C
:10875000060501EB8100860003F10800805900F056
:1087600002041FE018688E0002FA06F600EA060509
:1087700001EB8100860003F10800805900F0040439
:1087800010E018688E0002FA06F600EA060501EB12
:108790008100860003F10800805900F0080401E020
:1087A00000BFFEE700BF15B10CB1012070BD002075
:1087B000FCE700002DE9F04F026843680024144EE6
:1087C0000F68D1F804C0D1F80880D1F80C900025CA
:1087D00017E0344407EB031A03EB040B8AEA0B0A95
:1087E0000CEB531B8AEA0B0A524408EB021A02EB09
:1087F000040B8AEA0B0A09EB521B8AEA0B0A534460
:108800006D1C202DE5D302604360BDE8F08F0000B1
:10881000B979379E30B50146CB888A88934202DD0C
:108820009C1AA0B207E09A4201D1002003E00C8913
:10883000D51A641BA0B230BD70B504460D46204663
:10884000FFF7E8FF2189081A401E691C884201DBF6
:10885000012070BD0020FCE7016000238380C380FD
:108860000281704770B504460D46204600F043F87B
:1088700088B9E088218988420DDAE188206845546A
:10888000E088401CE080E0882189884201DB0020EC
:10889000E080012070BD0020FCE72DE9F04180461A
:1088A0000E461446374621464046FFF7C5FF10B92D
:1088B0000020BDE8F08121464046FFF7D3FF08B90C
:1088C0000020F6E7002509E017F8011B4046FFF7F6
:1088D000C9FF08B90020ECE7681CC5B2A542F3DB6C
:1088E0000120E6E701468888CA88904201D101202C
:1088F00070470020FCE701468888002806DDCA880A
:108900008888401E824208D101207047CA880889A1
:10891000401E824201D10120F7E70020F5E770B543
:1089200004460D462046FFF7DDFF90B9A088218957
:1089300088420EDAA1882068405C2870A088401C1C
:10894000A080A0882189884201DB0020A08001202E
:1089500070BD0020FCE72DE9F84304468846154623
:10896000C1462046FFF756FF07462FB1A188206871
:10897000405C401CB84202DD0020BDE8F883294677
:108980002046FFF7CCFF08B90020F6E72878B84268
:1089900001DC287818B9E088A0800020EDE70026E7
:1089A0000DE069462046FFF7BAFF20B19DF80000B0
:1089B00009F8010B01E00020DFE7701CC6B228783F
:1089C000B042EEDC0120D8E770B504460E46002523
:1089D000E1B2094814F079FA05E028466D1CB0F1BF
:1089E000005F00D305E00721034814F0D2FA002805
:1089F000F3D000BF204670BD004C004030B50246A9
:108A00000B46164C002145F25550154D286000BF0D
:108A10001348C06800F00101601E041E01D0002947
:108A2000F6D109B1002030BD0D4843600B4C00BFAA
:108A30000B48C06800F00201601E041E01D000292E
:108A4000F6D109B10020EEE7C2F30B00044DA86097
:108A50004AF6AA2028600120E5E70000FFFF0F008A
:108A6000003000404AF6AA20014908607047000023
:108A7000003000404CF6CC400149086070470000CF
:108A8000003000404161704701617047F0B5044615
:108A900016460025002201F00F0501F0100747B12E
:108AA000042E05D145F00305E76B1F43E76300E0A3
:108AB000354300201EE0012787401F40C7B12268D0
:108AC0004FEA800C0F2707FA0CF7BA43870005FA24
:108AD00007F73A43282904D1012787401F406761DF
:108AE00005E0482903D1012787401F402761226004
:108AF000471CB8B20828DED3082022E001278740AF
:108B00001F40E7B16268A0F108074FEA870C0F2702
:108B100007FA0CF7BA43A0F10807BF0005FA07F7F8
:108B20003A43282904D1012787401F40676105E0A7
:108B3000482903D1012787401F4027616260471CF5
:108B4000B8B21028DAD3F0BD02469068084008B1E8
:108B5000012070470020FCE70246D068084008B1B9
:108B6000012070470020FCE7F0B50A4600230024EE
:108B70000021002500F00046B6F1004F02D11D4E45
:108B8000F16901E01B4E7168C0F3034583B200F444
:108B90004016B6F5401F08D121F0E061154E766809
:108BA00026F0E066134F7E6012E000F48016B6F502
:108BB000801F06D1032606FA05F4A14341F0E061C7
:108BC00006E0460D360103FA06F6B14341F0E061D6
:108BD00022B1460D360103FA06F6314300F0004695
:108BE000B6F1004F02D1034EF16101E0014E716018
:108BF000F0BD00000000014070B54FF48041480313
:108C000000F034F913F0CEFF0BF0BCFE47480068CB
:108C10004FF47A72B0FBF2F1481EB0F1807F00D3BE
:108C20001BE0481E4FF0E022506150170F22002831
:108C300007DA13071D0E3E4B00F00F04241F1D55CD
:108C400003E013071C0E3B4B1C5400BF00204FF0E9
:108C5000E02290610720106100BF01F0BFFBFA2104
:108C6000002007F057FDFA21012007F053FDFA21FB
:108C7000022007F04FFDFA21032007F04BFDFA21F7
:108C8000042007F047FD01220021042007F05AFFCD
:108C900001220221002007F055FF01221146104653
:108CA00007F050FF02220121032007F04BFF0522AD
:108CB0000221084607F046FF08F024FEFDF7C8F839
:108CC0001DA220A122A0FEF7A5FD02F00DFD0022AD
:108CD0004FF480712448FDF77FF900202349C880B4
:108CE0000A208880012211022148FDF775F904212C
:108CF0001E484182142101820222D1011D48FDF744
:108D00006BF907211948C1831421818303224FF491
:108D100080711948FDF760F90F21144841856421DD
:108D20000185FDF735F9002070BD0000CC1500204D
:108D300018ED00E000E400E030383A33383A3535D9
:108D400000000000417567202032203230323400AC
:108D5000415050207374617274200A0D20257320D5
:108D600025730A0D00000000ADC90008F46700205B
:108D7000C5B5000869C5000855C0000800F01F020D
:108D800001219140024A431142F82310704700002C
:108D900080E100E02DE9F04103460D46164600242F
:108DA0000027A0462A48006800F4E060B0F5E06FB4
:108DB00003D100BF4FF0040830E02548006800F4FC
:108DC000E060B0F5C06F03D101274FF0030825E044
:108DD0001F48006800F4E060B0F5A06F02D10227E0
:108DE000B8461BE01A48006800F4E060B0F5806FF8
:108DF00003D103274FF0010810E01548006800F484
:108E0000E060B0F5407F03D104274FF0000805E093
:108E10004FF4A06000F020F80227B846C7F1040024
:108E200005FA00F4C8F104010F20C84030400443A3
:108E300024010848C45403F01F010120884059113F
:108E4000890001F1E021C1F80001BDE8F0810000D6
:108E50000CED00E000E400E002490143024A116029
:108E6000704700000000FA050CED00E0024A0A40DD
:108E70000243024B1A60704780FFFF1F08ED00E0BD
:108E800030B50346144600221A4648780D7800EBA8
:108E900005201080891C48780D7800EB0520508053
:108EA000891C48780D7800EB05209080891C487853
:108EB0000D7800EB0520D080891C48780D7800EBF8
:108EC00005201081891C48780D7800EB0520508121
:108ED000891C48780D7800EB05209081891C487822
:108EE0000D7800EB0520D081891C48780D7800EBC7
:108EF00005201082891C48780D7800EB05205082EF
:108F0000891C48780D7800EB05209082891C4878F0
:108F10000D7800EB0520D082891C48780D7800EB95
:108F200005201083891C48780D7800EB05205083BC
:108F3000891C48780D7800EB05209083891C4878BF
:108F40000D7800EB0520D083012030BDF8B5074631
:108F50000C461646002507F12205B6F5837F0FD98A
:108F6000F2A013F04EFE4FF48373F2A2F8A1452055
:108F7000009613F04DFEF7A013F043FE4FF48376F6
:108F80006078217800EB01202880A41C607821788B
:108F900000EB01206880A41C6078217800EB0120A0
:108FA000A880A41C6078217800EB0120E880A41C34
:108FB0006078217800EB01202881A41C607821785A
:108FC00000EB01206881A41C20780006617800EB8A
:108FD0000140A17800EB0120E1780844C5F80E00BB
:108FE000241D6078217800EB01206882A41C607841
:108FF000217800EB012000B2A882A41C60782178BF
:1090000000EB012000B2E882A41C6078217800EB1C
:1090100001202883A41C6078217800EB012068835C
:10902000A41C6078217800EB012000B2A883A41C66
:109030006078217800EB0120E883A41C6078217817
:1090400000EB012000B22884A41C6078217800EB9A
:1090500001206884A41C6078217800EB0120A8849A
:10906000A41C6078217800EB0120E884A41C6078BF
:10907000217800EB01202885A41C6078217800EB82
:10908000012000B26885A41C6078217800EB0120E3
:10909000A885A41C6078217800EB0120E885A41C39
:1090A0006078217800EB01202886A41C6078217864
:1090B00000EB012000B26886A41C6078217800EBE8
:1090C0000120A886A41C6078217800EB012000B262
:1090D000E886A41C6078217800EB012000B2288784
:1090E000A41C6078217800EB01206887A41C6078BC
:1090F000217800EB012000B2A887A41C60782178B9
:1091000000EB012000B2E887A41C6078217800EB16
:109110000120A5F84000A41C6078217800EB012014
:10912000A5F84200A41C6078217800EB012000B271
:10913000A5F84400A41C6078217800EB012000B25F
:10914000A5F84600A41C6078217800EB012000B24D
:10915000A5F84800A41C6078217800EB0120A5F850
:109160004A00A41C6078217800EB0120A5F84C008F
:10917000A41C6078217800EB012025F84E0FA41C78
:109180006078217800EB01206880A41C6078217849
:1091900000EB0120A880A41C6078217800EB01205E
:1091A00000B2E880A41C6078217800EB012000B2B6
:1091B0002881A41C6078217800EB012000B268812E
:1091C000A41C6078217800EB0120A881A41C6078A1
:1091D000217800EB0120E881A41C6078217800EB65
:1091E000012000B22882A41C6078217800EB0120C5
:1091F00000B26882A41C5948C17CA88A61F30000AF
:10920000A8825648417DA88A61F34100A88253484C
:10921000017CA88A61F38200A8825048817CA88AD8
:1092200061F3C300A8824D48417CA88A61F3041011
:10923000A8824A480088E8824848B0F90C000A2110
:1092400090FBF1F000B2288344484088688343488B
:109250008088A8834148C088E883404800892884E2
:109260003E48408968843D48C089A8844E3D3C48BA
:109270000088012845D1B5F8C800002841DD3748ED
:10928000C07C00283DD13648017835F8620F61F383
:10929000000028803248817E288861F341002880C0
:1092A0002F488178288861F3820028802C48017932
:1092B000288861F3C300288029488179288861F3D0
:1092C000041028802648C08A00B268802448408A5A
:1092D0000A2190FBF1F000B2A88021480089E880C3
:1092E0001F48408928811E48808968811C48C089A0
:1092F000A8811B48008AE8811948008B00B22882A7
:10930000623D1648C07C38B11648008820F0020043
:10931000801C1449088005E01248008820F00200F3
:1093200010490880A88C00906B881DE01B5B3331CE
:109330006D0000007265616C2031204C454E204567
:1093400052524F523A25642C25640A0D0000000049
:10935000445350001B5B306D0A0D000006280020AE
:10936000AE270020AC13002003A20BA1492013F06C
:109370004FFC0120F8BD00007265616C206D6F64C8
:10938000653A25642C6F757420766F6C7461653A4C
:1093900025640A0D00000000647370002DE9FC478D
:1093A00007460C4616464FF00008002507F1220537
:1093B00005F17400401B4FF48371A1EBA000401C29
:1093C0001FFA80F8B04501DBB0460EE075A013F03F
:1093D00018FC4FF4837375A27BA14520CDE900688A
:1093E00013F016FC79A013F00CFC207800066178CD
:1093F00000EB0140A17800EB0120E17808447835CA
:1094000045F8040C241D20780006617800EB01402B
:10941000A17800EB0120E17808442860241D207821
:109420000006617800EB0140A17800EB0120E178B3
:1094300000EB0109241D20780006617800EB014053
:10944000A17800EB0120E17800EB0109241D2078D0
:109450000006617800EB0140A17800EB0120E17883
:1094600000EB0109241D20780006617800EB014023
:10947000A17800EB0120E17800EB0109241D2078A0
:109480000006617800EB0140A17800EB0120E17853
:1094900000EB0109241D20780006617800EB0140F3
:1094A000A17800EB0120E17800EB0109241D207870
:1094B0000006617800EB0140A17800EB0120E17823
:1094C0000844E861241D20780006617800EB014023
:1094D000A17800EB0120E17808442862241D20785F
:1094E0000006617800EB0140A17800EB0120E178F3
:1094F00000EB0109241D20780006617800EB014093
:10950000A17800EB0120E17800EB0109241D20780F
:109510000006617800EB0140A17800EB0120E178C2
:1095200000EB0109241D20780006617800EB014062
:10953000A17800EB0120E17800EB0109241D2078DF
:109540000006617800EB0140A17800EB0120E17892
:1095500000EB0109241D20780006617800EB014032
:10956000A17800EB0120E17800EB0109241D60786F
:10957000217800EB012000B2A887A41C6078217834
:1095800000EB012000B2E887A41C6078217800EB92
:10959000012000B2A5F84000783DA41C0120BDE8E0
:1095A000FC8700001B5B33316D0000007265616C4D
:1095B0002032204C454E204552524F523A25642CC1
:1095C00025642C25640A0D00445350001B5B306D4C
:1095D0000A0D000070B5034615460024002203F171
:1095E0002202087800064E7800EB06408E7800EBE9
:1095F0000620CE78304442F8BC0F091D08780006DA
:109600004E7800EB06408E7800EB0620CE78304492
:109610005060091D48780E7800EB062000B21081DA
:10962000891C48780E7800EB06205081891C487808
:109630000E7800EB06209081891C48780E7800EBAC
:109640000620D081891C48780E7800EB062000B2F5
:109650001082891C48780E7800EB062000B25082F8
:10966000891C48780E7800EB062000B29082891C95
:1096700048780E7800EB0620D082891C48780E7856
:1096800000EB06201083891C48780E7800EB06203A
:1096900000B25083891C48780E7800EB0620908336
:1096A000891C48780E7800EB0620D083891C487806
:1096B0000E7800EB06201084891C087800064E788E
:1096C00000EB06408E7800EB0620CE783044C2F8DE
:1096D0002200091D087800064E7800EB06408E78BF
:1096E00000EB0620CE783044C2F82600091D087829
:1096F00000064E7800EB06408E7800EB0620CE7810
:1097000030445085091D087800064E7800EB06406D
:109710008E7800EB0620CE7830449085091D1831F4
:10972000087800064E7800EB06408E7800EB0620A5
:10973000CE7830445087091D087800064E7800EB3B
:1097400006408E7800EB0620CE7830449087BC3AF5
:10975000091D1831012070BD70B50346154600245F
:10976000002203F1220248780E7800EB062000B2B6
:10977000CE3222F8020C891C48780E7800EB0620C5
:1097800000B21080891C48780E7800EB062000B2E9
:109790005080891C48780E7800EB06209080891C48
:1097A00048780E7800EB0620D080891C48780E7827
:1097B00000EB062000B21081891C48780E7800EB7F
:1097C00006205081891C48780E7800EB0620908195
:1097D000891C48780E7800EB0620D081891C087817
:1097E00000064E7800EB06408E7800EB0620CE781F
:1097F00030441061091D087800064E7800EB0640E1
:109800008E7800EB0620CE7830445061091D087830
:1098100000064E7800EB06408E7800EB0620CE78EE
:1098200030441083091D087800064E7800EB06408E
:109830008E7800EB0620CE7830445083091D183115
:10984000087800064E7800EB06408E7800EB062084
:10985000CE7830441085091D087800064E7800EB5C
:1098600006408E7800EB0620CE7830445085CE3A04
:10987000091D1831012070BD2DE9F84307460C463B
:1098800016464FF00008002507F59475CC2E0DD92B
:10989000D4A013F0B6F9CC23D4A2DAA145200096C7
:1098A00013F0B6F9D8A013F0ACF9CC266078217883
:1098B00000EB01202880A41C6078217800EB0120B7
:1098C0006880A41C6078217800EB0120A880A41C8B
:1098D0006078217800EB0120E880A41C6078217872
:1098E00000EB01202881A41C6078217800EB012086
:1098F0006881A41C6078217800EB0120A881A41C59
:109900006078217800EB0120E881A41C6078217840
:1099100000EB01202882A41C6078217800EB012054
:1099200000B26882A41C6078217800EB012000B2AC
:10993000A882A41C6078217800EB0120E882A41C96
:109940006078217800EB01202883A41C60782178BE
:1099500000EB01206883A41C6078217800EB0120D3
:10996000A883A41C6078217800EB0120E883A41C64
:109970006078217800EB012000B22884A41C607874
:10998000217800EB01206884A41C6078217800EB2A
:109990000120A884A41C6078217800EB0120E884D1
:1099A000A41C6078217800EB01202885A41C607835
:1099B000217800EB01206885A41C6078217800EBF9
:1099C0000120A885A41C6078217800EB0120E8859F
:1099D000A41C6078217800EB01202886A41C607804
:1099E000217800EB01206886A41C6078217800EBC8
:1099F0000120A886A41C6078217800EB0120E8866D
:109A0000A41C6078217800EB01202887A41C6078D2
:109A1000217800EB01206887A41C6078217800EB96
:109A20000120A887A41C6078217800EB0120E8873A
:109A3000A41CE88F764908806078217800EB01202B
:109A4000A5F84000A41C6078217800EB0120A5F85F
:109A50004200A41C6078217800EB0120A5F84400A6
:109A6000A41CB5F844006B4908806078217800EBAD
:109A7000012000B2A5F84600A41C35F8460F66493F
:109A800008806078217800EB01206880A41C607851
:109A9000217800EB0120A880A41C6078217800EBDD
:109AA0000120E880A41C6078217800EB0120288147
:109AB000A41C6078217800EB012000B26881A41C0E
:109AC0006078217800EB0120A881A41C60782178BF
:109AD00000EB0120E881A41C6078217800EB0120D4
