:020000040800F2
:10400000909700206D4100081D6100086D5C00085C
:10401000DD6000088D460008217C000800000000DB
:104020000000000000000000000000007F410008C8
:104030009D4D000800000000C9410008C965000846
:104040008341000883410008834100088341000840
:104050008341000883410008834100088341000830
:10406000834100088341000883410008794D00081E
:104070008341000883410008834100088341000810
:104080008341000883410008834100088341000800
:1040900083410008834100088341000883410008F0
:1040A00083410008834100088341000883410008E0
:1040B000834100084D7800088341000883410008CF
:1040C00083410008834100088341000883410008C0
:1040D00083410008D1790008A57A00084D7B0008CB
:1040E000CD4E000883410008834100088341000849
:1040F000834100088341000883410008000000005C
:10410000834100080000000083410008834100084B
:10411000A5780008ED780008834100088341000875
:10412000834100088341000883410008834100085F
:104130008341000883410008834100084547000887
:10414000154700083D4700080D4700088341000857
:1041500047355245DFF810D000F068F900480047B5
:10416000CD920008AFF3008090970020054880476B
:1041700005480047FEE7FEE7FEE7FEE7FEE7FEE74D
:10418000FEE7FEE7ED77000855410008EFF31080E9
:1041900072B6704780F31088704719484FF0FF01DE
:1041A0000170002080F3098816484FF080510160AB
:1041B00062B6FEE713484FF0805101607047114826
:1041C0004FF080510160704772B6EFF3098028B15B
:1041D000203880E8F00F0C49096808600B480C494A
:1041E0000A78027008480B490A680260106890E873
:1041F000F00F203080F309884EF0040E62B670474D
:1042000022ED00E004ED00E0641600205C160020C2
:104210005A160020601600202DE9F05F05460020A8
:1042200092469B4688460646814640241BE0284627
:1042300041464746224600F0B2F853465A46C01A55
:10424000914110D311461846224600F099F82D1AD4
:1042500067EB01084F4622460120002100F090F84C
:1042600017EB00094E41201EA4F10104DFDC484693
:1042700031462A464346BDE8F09F40EA01039B07CA
:1042800003D009E008C9121F08C0042AFAD203E0CB
:1042900011F8013B00F8013B521EF9D27047D2B22F
:1042A00001E000F8012B491EFBD270470022F6E71F
:1042B00010B513460A4604461946FFF7F0FF20469C
:1042C00010BD421E12F8013F002BFBD111F8013B3B
:1042D00002F8013B002BF9D17047421C10F8011B7A
:1042E0000029FBD1801A704730B480EA010202F045
:1042F000004530F0004221F0004013D090B1C30DD2
:10430000D40DC2F31601C0F31600E41A41F4000103
:1043100040F400027D34914201D3641C00E0490066
:10432000002C02DA30BC002070474FF4000000235C
:10433000914201D3891A034340084FEA4101F7D162
:1043400051B1914202D14FF0004105E002D24FF04D
:10435000010101E06FF0010103EBC450284430BCBF
:1043600000F02DB8C10F80EAE0700844CA07962318
:10437000002100F02DB896230022114600F028B845
:10438000202A04DB203A00FA02F100207047914015
:10439000C2F1200320FA03F3194390407047202A0A
:1043A00004DB203A21FA02F00021704721FA02F3DF
:1043B000D040C2F1200291400843194670470029BD
:1043C000A8BF7047401C490008BF20F0010070479B
:1043D00010B4B0FA80FC00FA0CF050EA010404BFFB
:1043E00010BC704749B1CCF1200421FA04F411FA51
:1043F0000CF118BF012121430843A3EB0C01CB1D95
:104400004FEA00614FEA102042BF002010BC704705
:1044100000EBC35010440029A4BF10BC7047401CDF
:10442000490008BF20F0010010BC7047064C074D42
:1044300006E0E06840F0010394E807009847103474
:10444000AC42F6D3FFF78AFEB8330208D83302082D
:1044500070B58C1810F8015B15F0070301D110F846
:10446000013B2A1106D110F8012B03E010F8016B73
:1044700001F8016B5B1EF9D12B0705D40023521EF6
:104480000DD401F8013BFAE710F8013BCB1A921C5E
:1044900003E013F8015B01F8015B521EF9D5A1425C
:1044A000D8D3002070BD0000704800887049088093
:1044B0007048008848807048008888806F4800886D
:1044C000C0F3802048B36D480088C0F3C02020B3FB
:1044D0006A480088C0F30030F8B168480088C0F32B
:1044E0004030D0B165480088C0F38030A8B163483F
:1044F0000088C00B88B16148807800F0010060B18D
:104500005E488078C0F3400038B15C488078C0F3E2
:10451000800010B10020C88002E001205449C8800A
:1045200057488088524908815548406A00EB80000E
:104530004FF6FF7101EA40004D494881514800881B
:10454000401E88814F480088C8814D48808C00EB10
:1045500080000221C1EB4000454908824848C088DC
:1045600048824748806A00EB80004FF6FF7101EAFD
:1045700040003F49888243480088401EC882414825
:10458000008808833E48008D00EB80000221C1EBCB
:104590004000374948833A48008988834FF41670B1
:1045A000C88338480088401E0884364800884884FC
:1045B00040F25620888432484088C8843048006AD7
:1045C00000EB80004FF6FF7101EA400028490885A2
:1045D0002C480088401E48852A480088888528483D
:1045E000008C00EB80000221C1EB40002049C8850F
:1045F0002348C08908862248406B00EB80004FF6B4
:10460000FF7101EA40001A4948861F480088801E51
:1046100088861D480088C8861948808E00EB800077
:104620000221C1EB4000124908871548008A4887DB
:104630001348806B00EB80004FF6FF7101EA4000E9
:104640000B49888710480088801EC8870E4800885C
:10465000A1F840000A48008F00EB80000221C1EB66
:1046600040000349A1F8420070470000A00100206B
:10467000443A0020A2010020A4010020B013002031
:10468000F03A00200C010020100100201DF08CF9F0
:104690000FE008480068401C0649086008460068AA
:1046A0000549884205D900200249086003A003F0AB
:1046B000D7FAEEE7B4000020C0C62D006275732063
:1046C0006661756C740A0D000F48008820F00100C7
:1046D0000D4908800846008820F00200088008463E
:1046E000008820F0040008800846008820F00800B8
:1046F00008800846008820F01000088008460088DE
:1047000020F0200008807047C418002010B500F089
:1047100081F910BD0EB500F049F940F2012000907A
:1047200004480190044902910821684609F0F0F814
:104730000EBD0000785634120210082410B500F0A7
:104740004FF910BD10B500F00BFA10BD08B50020F0
:104750000B4908600B4908600B4908600B49086069
:104760000B4B10220B4900900B4800F01BF8012066
:10477000074B802209490090094800F013F808BD52
:10478000281700202C170020301700203417002095
:10479000814800087C850020448500207C8600201C
:1047A000608500202DE9F04704460D4616461F4659
:1047B000DDF82080CCB1C5B1FFF7E8FC8146A561EA
:1047C000E681E189A06900EB0110A060A06920608A
:1047D000A06960600020A0812761C4F81480484669
:1047E000FFF7D8FC0020BDE8F087FF20FBE7F0B51D
:1047F0000346FF2499B1888900280FDD0A6892E8F2
:10480000E10083E8E10010328868904200D88A69AC
:104810000A608889401E8881002400E00424E0B2F8
:10482000F0BD00002DE9F04104460E46FF2714B309
:104830000121124803F00DFEA089E18988420FDAB8
:10484000656896E80F0085E80F001035A068A8425B
:1048500000D8A5696560A089401CA081002706E0FA
:104860000827206918B1D4E90410884707460121B8
:10487000024803F0F2FD3846BDE8F08100680040D0
:104880000146A1B915480068401C144A1060104642
:10489000006864281FD31248006840F00100104AE5
:1048A00010601046006820F00100106013E00D4811
:1048B0000068401C0B4A10601046006864280AD348
:1048C0000748006840F00100054A10601046006883
:1048D00020F0010010600020704700002C1700201D
:1048E00000680040281700202DE9F04104460E46DC
:1048F000FF27D4B1A089E18988420FDA656896E87C
:104900000F0085E80F001035A068A84200D8A569FF
:104910006560A089401CA081002706E00827206967
:1049200018B1D4E9041088470746F8B2BDE8F08111
:104930002DE9F04107461A4C4FF0FF082CB32046F2
:10494000808918490968884203D920468089154919
:1049500008601221144803F07CFDA089002815DDB1
:10496000266806F11005A068A84200D8A569256050
:10497000A089401EA08112210B4803F06EFD96E82D
:104980000F0087E80F004FF0000805E012210648ED
:1049900003F063FD4FF0040808F0FF00BDE8F0816C
:1049A00060850020301700200068004010B509E045
:1049B00008490948FFF798FF0848006840F02000C0
:1049C000064908600548006800F003000028EFD1A0
:1049D00010BD0000B0690040608500200C680040F8
:1049E00010B509E008490948FFF77EFF084800684C
:1049F00040F02000064908600548006800F0030008
:104A00000028EFD110BD0000C06900406085002083
:104A10001068004027480422264B143B1A600268A5
:104A200002F0700169B170290BD00122C2EB1111A3
:104A3000214A1268521C204B1A60026842F0700230
:104A40000260026802F00402042A08D11B4A1268BC
:104A5000521C1A4B1A600268194B1A400260026815
:104A600002F00202022A08D1164A1268521C154BA3
:104A70001A600268144B1A400260026802F00102D8
:104A800042B1124A1268521C104B1A60026822F09E
:104A900001020260016801F47F02B2F5202F07D9FC
:104AA000026822F47F020260094A024B103B1A603E
:104AB0007047000018680040381700203C1700209D
:104AC000FBFF00FF40170020FDFFFF004417002000
:104AD000010101002DE9F04104464FF00008FFF705
:104AE00055FB07461948808900280FDD1748808943
:104AF00017490968884203D9144880891449086015
:104B000021461248FFF78EFE804619E011480068E2
:104B1000C0F382667EB110481049895D00EB011533
:104B200060686860A068A860E068E860206840F09D
:104B30000100286004E021460448FFF773FE804628
:104B40003846FFF727FB4046BDE8F081448500204A
:104B5000341700200868004080690040A82B020834
:104B600030B50D488089002812DD0C480068C0F37C
:104B7000826484B10A48045D0A4800EB04150649C2
:104B80002846FFF734FE286840F00100286002E064
:104B900005480249086030BD44850020086800408F
:104BA000A82B0208806900400101010078B5044685
:104BB0000E464FF6FF700090002507E014F8015BE9
:104BC000BDF80010284600F013F80090301EA6F142
:104BD00001018EB2F2D16946684601F068F8BDF86D
:104BE00000000512BDF8000045EA002080B278BD43
:104BF00073B50C4648F205066946684601F06FF841
:104C00009DF8000084EA002400250CE004F4004034
:104C100018B186EA440084B203E04FF6FF7000EA60
:104C20004404681CC5B2082DF0DB20467CBD0000A2
:104C300010B52E48007802281AD12D480078012896
:104C400002D0022812D108E01BF0B0F829490988E7
:104C5000884201D019F05CF809E01BF0A7F826495A
:104C60000988884201D018F087FE00E000BF33E0D9
:104C70001F48007820B1012815D0022827D11CE058
:104C80001BF064F8C0B21B490988884201D019F0B2
:104C90003FF81BF067F8C0B217490988884201D075
:104CA00018F06AFE14E01BF051F8C0B211490988EF
:104CB000884201D019F02CF80AE01BF053F8C0B27A
:104CC0000D490988884201D018F056FE00E000BF67
:104CD00000BF0020064908701BF050F807490988FA
:104CE000884201D018F070FF10BD0000DE000020E7
:104CF000E20000200A0000200C0000200800002034
:104D00001A49097871B11A49097801290AD100EBC9
:104D10004001184A02EB8101498819B90221144A5D
:104D2000117022E01149097871B9114909780729F0
:104D30000AD100EB40010F4A02EB8101498819B901
:104D400008210B4A117010E00849097869B1084937
:104D50000978042909D100EB4001064A02EB8101E0
:104D6000498811B90521024A11707047E2000020FC
:104D7000DE000020C07F002010B50222002106487E
:104D800003F0F2FF30B106F065FE02220021024876
:104D900003F0E2FF10BD0000000002407047000079
:104DA00070B50025002427480078012848D100204C
:104DB000244908702448008840B91AF097FF012858
:104DC00004DB1AF093FF401EC4B20BE01E480088BB
:104DD000012807D11AF08AFF012803DB1AF08CFFA3
:104DE000401EC4B21948008808B925460EE017488D
:104DF0000088844204DB15480078201AC5B205E01B
:104E000012480088001BC0F10A00C5B20E48008895
:104E100048B9352068430E4A02EB40016A220D482A
:104E2000FFF72BFA0CE008480088012808D135204C
:104E30006843094A02EB40016A220648FFF71DFA5F
:104E400070BD0000AC160020280300202A030020BB
:104E5000462B0020A4380020702F002070B5054696
:104E60000C46A02D02D0A82D16D10AE024B920218D
:104E70000B4804F047F903E02021094804F044F905
:104E80000BE024B91021064804F03CF903E010219E
:104E9000034804F039F900E000BF00BF70BD000016
:104EA000000C014010B52021074804F02DF9102115
:104EB000054804F029F94021034804F023F9802132
:104EC000014804F01FF910BD000C014070470000BC
:104ED00010B5002018490870184908601849086082
:104EE000184908601648008820F4806000F580604A
:104EF00013490880012014F09BFAA02012F0B4FF9F
:104F0000A02012F033FFA02012F02CFCA02012F001
:104F1000ADFCA02012F02EFDA02012F0A7FDA020D5
:104F200012F0A4FEA02013F01DF8A02012F01EFE27
:104F30000BF0DCFC10BD000090000020B01300203E
:104F4000B413002070160020F8B500270026E14DAC
:104F5000A87A00F0010048B1DF48008896280DDAF1
:104F6000DD480088401CDC49088007E0DA480088FA
:104F7000962800DB01270020D7490880D748008801
:104F800000284DD00020D5490880D5480078D54963
:104F90000870D34840784870D14880788870D048ED
:104FA000C078C870CE4800790871CD484079487102
:104FB000CB4880798871CC480068C0B1CA48006885
:104FC00000909DF8000008709DF8010048709DF861
:104FD000020088709DF80300C870C34C241DC048AF
:104FE0000178204619F0D7FEC04A03C205E013F04D
:104FF00047FA0021BD4A11605160B5F85001010423
:105000000022B5F8520192184141B5F85401131C21
:105010004141B5F85601181841F10001B44A03C2E4
:10502000AF48007816287DDBAD484079AD49497915
:1050300088421FD1AA480079AA490979884219D122
:10504000A748C078A749C978884213D1A448807876
:10505000A449897888420DD1A1484078A14949786E
:10506000884207D19E4800789E490978884201D13C
:10507000002F57D09A4840799A494979884262D09E
:10508000B5F8500101040022B5F8520192184141CF
:10509000B5F85401121C4141B5F85601101841F100
:1050A0000001944A03C29248D0E900209149D1E915
:1050B0000031D21A884104D28E4801688C480068B9
:1050C0000E1A8C4903C98A4A03C28B48008800B96A
:1050D0000026854C5C3482488078401E54F82000BD
:1050E00081197F488078401E44F82010303C7C486D
:1050F0004078401E54F82000811979484078401EBD
:1051000044F82010283C7648007816380A2190FB95
:10511000F1F201FB120054F8200081197048007868
:10512000163800E0ABE00A2290FBF2F302FB13001A
:1051300044F820106D48D0E90020921940F1000099
:105140006A49C1E900206648C0786649C978884242
:1051500013D1634880786349897888420DD16048CB
:10516000407860494978884207D15D4800785D49B8
:105170000978884201D1002F4DD0594800788DF828
:105180000000574840788DF80100554880788DF828
:1051900002005348C0788DF8030053490098086016
:1051A0004F4800784F49097888421ED04E4C2C3425
:1051B0000C21204608F0E0FB30341F21204608F087
:1051C000DBFB583C4748007815380A2190FBF1F288
:1051D00001FB1200002144F82010414801782046CC
:1051E00019F0D9FD454A03C20BE03D4840783D49DE
:1051F0004978884205D03C4C5C341F21204608F099
:10520000BBFB0E21022000F09FFF27B900203C4984
:1052100008603C490860344C5C3431488078401E5A
:1052200054F82000C5F86001303C2D484078401EFD
:1052300054F82000C5F85C01283C2948007816384D
:105240000A2190FBF1F201FB120054F82000C5F88E
:105250005801234800782349087021484078487055
:105260001F48807888701E48C078C8701C48007934
:1052700008711B4840794871194880798871224823
:10528000008830B30021194A1160516000201F4985
:1052900008601F4908601F490860194908601949DA
:1052A00008601D4908601D4908601D49086001200B
:1052B0001C4908800C48006810B90848008828B9C3
:1052C00013F0A6F80E21022000F03EFF0120034952
:1052D0000880F8BDC45800200216002000160020E7
:1052E000A0020020D2020020C83700208015002034
:1052F0001016002008160020A015002068150020B8
:105300003014002034140020941500209015002043
:105310008C15002088150020D8140020DC140020F3
:10532000E01400209E150020002000BF0DE00021A9
:10533000144A22F81010144A22F81010042802DA35
:10534000124A22F81010411CC8B20728EFDB0021D6
:105350000F4A11800F4A11800F4A11800F4A1180A5
:105360000F4A11800F4A11800F4A11800F4A118095
:105370000F4A11800F4A11800F4A11800F4A118085
:1053800070470000283A0020363A0020BA0000207A
:10539000C2000020C4000020C6000020C800002079
:1053A000CA000020CC000020CE000020D000002049
:1053B000D2000020D4000020D6000020D800002019
:1053C000F0B503460C46904DA5F5B8708F4E367873
:1053D0009E4207D18D4E7678A64203D18B4EB67889
:1053E00096427DD0894E36789E422BD0162B01DB1B
:1053F000232B09DD002640F8886F46608660066230
:10540000466286628838FDE0002688304660866005
:105410007F49A3F116060A2796FBF7FC07FB1C66DB
:1054200051F82660066000264662866200BFA3F13E
:10543000160696FBF7FC07FB1C6651F82660066211
:105440008838DFE0714E7678A6424AD0012C01DB25
:105450000C2C1DDD00268830466086606C49A3F167
:1054600016060A2796FBF7FC07FB1C6651F8266018
:10547000066000264662866200BFA3F1160696FB10
:10548000F7FC07FB1C6651F8266006628838B9E015
:105490000026883086605E492831661E51F82660F5
:1054A00046602839A3F116060A2796FBF7FC07FB8E
:1054B0001C6651F826600660002686625549661E05
:1054C00051F8266046622839A3F1160696FBF7FCD0
:1054D00007FB1C6631F82660B6B20662883891E098
:1054E00059E0012A01DB1F2A27DD0026883086606B
:1054F00047492831661E51F8266046602839A3F1D5
:1055000016060A2796FBF7FC07FB1C6651F8266077
:105510000660002686623F49661E51F82660466294
:105520002839A3F1160696FBF7FC07FB1C6631F839
:105530002660B6B20662883864E035495831561E96
:1055400051F82660883086603039661E51F8266032
:1055500046602839A3F116060A2796FBF7FC07FBDD
:105560001C6651F8266006602A493031561E51F8F3
:10557000266086623039661E51F8266046622839F8
:10558000A3F1160696FBF7FC07FB1C6651F8266094
:105590000662883836E01E4958311C4EB678761EB1
:1055A00051F82660883086603039184E7678761E3D
:1055B00051F8266046602839144E3678163E0A2780
:1055C00096FBF7FC07FB1C6651F826600660114944
:1055D00030310E4EB678761E51F82660866230392C
:1055E0000A4E7678761E51F8266046622839074EB4
:1055F0003678163E96FBF7FC07FB1C6651F82660D2
:1056000006628838F0BD0000345A0020A002002055
:105610005C34002060350020F0B503460C46914D07
:10562000A5F5B870904E36789E4207D18E4E7678AA
:10563000A64203D18C4EB67896427DD08A4E3678FB
:105640009E422BD0162B01DB232B09DD002620F8F0
:10565000F06F46808680068246828682F038FFE0C0
:105660000026F030468086808049A3F116060A277E
:1056700096FBF7FC07FB1C6631F8266006800026C7
:10568000468286827A49A3F1160696FBF7FC07FB51
:105690001C6631F826600682F038E1E0724E7678BA
:1056A000A6424AD0012C01DB0C2C1DDD0026F03077
:1056B000468086806D49A3F116060A2796FBF7FC03
:1056C00007FB1C6631F8266006800026468286822B
:1056D0006749A3F1160696FBF7FC07FB1C6631F839
:1056E00026600682F038BBE00026F03086805F49F5
:1056F0002831661E31F8266046802839A3F1160647
:105700000A2796FBF7FC07FB1C6631F8266006802B
:105710000026868256492831661E31F82660468268
:105720002839A3F1160696FBF7FC07FB1C6631F837
:1057300026600682F03893E059E0012A01DB1F2A37
:1057400027DD0026F030868048492831661E31F872
:10575000266046802839A3F116060A2796FBF7FC37
:1057600007FB1C6631F826600680002686824049C9
:105770002831661E31F8266046822839A3F11606C4
:1057800096FBF7FC07FB1C6631F826600682F038B2
:1057900066E036495831561E31F82660F030868072
:1057A0003039661E31F8266046802839A3F1160686
:1057B0000A2796FBF7FC07FB1C6631F8266006807B
:1057C0002B495831561E31F8266086823039661EC4
:1057D00031F8266046822839A3F1160696FBF7FCBD
:1057E00007FB1C6631F826600682F03838E0214954
:1057F0001D4EB678761E51F82660883086603039A6
:10580000194E7678761E51F8266046602839164E75
:105810003678163E0A2796FBF7FC07FB1C6651F804
:1058200026600660124958310F4EB678761E31F860
:105830002660A0F87C6030390B4E7678761E31F801
:105840002660A0F87A602839074E3678163E96FB17
:10585000F7FC07FB1C6631F82660A0F878608838F2
:10586000F0BD0000345A0020A002002014360020B1
:10587000F0360020B4340020F8B500270025D24EC1
:10588000B07AC0F3400048B1D048008896280DDABD
:10589000CE480088401CCD49088007E0CB480088EE
:1058A000962800DB01270020C8490880C8480088E6
:1058B00000283FD00020C6490880C6480078C64965
:1058C0000870C44840784870C24880788870C148E1
:1058D000C078C870BF4800790871BE4840794871E7
:1058E000BC4880798871BD480068C0B1BB48006879
:1058F00000909DF8000008709DF8010048709DF828
:10590000020088709DF80300C870B44C241DB14893
:105910000178204619F03FFAB14A03C205E012F0BF
:1059200085FD0020AE4A10605060B6F8E800C1174F
:10593000AC4A03C2A748007816287DDBA548407909
:10594000A549497988421FD1A2480079A24909791D
:10595000884219D19F48C0789F49C978884213D19D
:105960009C4880789C49897888420DD19948407834
:1059700099494978884207D196480078964909782C
:10598000884201D1002F57D09248407992494979F5
:10599000884254D0B6F8E800C117934A03C2914830
:1059A000D0E900309049D1E900219A1A884104D207
:1059B0008D4801688B4800680D1A8B4903C9894AD4
:1059C00003C28A48008800B90025844C5C348148B1
:1059D0008078401E54F8200041197E488078401E8F
:1059E00044F82010303C7B484078401E54F820009A
:1059F000411978484078401E44F82010283C7548EA
:105A0000007816380A2190FBF1F201FB120054F8DD
:105A1000200041196F48007816380A2290FBF2F3F3
:105A200002FB130044F820106D48D0E90020521901
:105A300040F100006A4900E09CE0C1E900206548AF
:105A4000C0786549C978884213D162488078624934
:105A5000897888420DD15F4840785F49497888420B
:105A600007D15C4800785C490978884201D1002F51
:105A70004DD0584800788DF80000564840788DF891
:105A80000100544880788DF802005248C0788DF8A3
:105A900003005249009808604E4800784E49097842
:105AA00088421ED04D4C2C340C21204607F064FF58
:105AB00030341F21204607F05FFF583C46480078ED
:105AC00015380A2190FBF1F201FB1200002144F885
:105AD000201040480178204619F05DF9404A03C281
:105AE0000BE03C4840783C494978884205D03B4C23
:105AF0005C341F21204607F03FFF0C21022000F0FC
:105B000023FB27B900203A4908603A490860334C22
:105B10005C3430488078401E34F82000EA36B0808B
:105B2000303C2C484078401E34F820007080283CDF
:105B30002848007816380A2190FBF1F201FB120088
:105B400034F8200026F8EA09224800782249087033
:105B50002048407848701F48807888701D48C07879
:105B6000C8701C48007908711A4840794871194872
:105B7000807988712048008828B30020184A106076
:105B800050601E4908601E4908601E490860184997
:105B90000860184908601C4908601C4908601C49D5
:105BA000086001201B4908800C48006810B90848AB
:105BB000008828B912F03AFC0C21022000F0C4FA47
:105BC000012003490880F8BDC4580020D2150020E8
:105BD000D0150020A0020020C402002010360020B2
:105BE00050150020E0150020D8150020A015002039
:105BF000301400203414002094150020601500207B
:105C00005C15002058150020D8140020DC1400205A
:105C1000E01400209A150020024600210AE042FA12
:105C200001F000F0010018B1481CC1B208467047ED
:105C3000481CC1B21029F2DB0020F8E7024600211F
:105C40000AE042FA01F000F0010018B1481CC1B2AC
:105C500008467047481CC1B21029F2DB0020F8E763
:105C60000148007870470000AF0000201BF09CFE48
:105C70000FE008480068401C0649086008460068B4
:105C80000549884205D900200249086003A001F0B7
:105C9000E7FFEEE7B4000020C0C62D006861726423
:105CA0004661756C740A0D0001466320704730B57B
:105CB00002460020002300BF00BF0CE00C88012535
:105CC00085402C402CB1C0F10F050124AC401C4391
:105CD000A3B2441CE0B21028F0DB138030BD30B515
:105CE00002460020002300BF00BF0CE00C78012515
:105CF00085402C402CB1C0F107050124AC401C4369
:105D0000E3B2441CE0B20828F0DB137030BD0000A1
:105D1000084A1288521C074B1A801A46128882427F
:105D200006DB42181B889A4202DC0022014B1A80D3
:105D300070470000BE160020F8B500270025D34E9E
:105D4000307AC0F3801048B1D148008896280DDA27
:105D5000CF480088401CCE49088007E0CC48008826
:105D6000962800DB01270020C9490880C94800881F
:105D700000283FD00020C7490880C7480078C7499D
:105D80000870C54840784870C34880788870C24819
:105D9000C078C870C04800790871BF484079487120
:105DA000BD4880798871BE480068C0B1BC480068B1
:105DB00000909DF8000008709DF8010048709DF863
:105DC000020088709DF80300C870B54C241DB248CD
:105DD0000178204618F0DFFFB24A03C205E012F056
:105DE00033FB0021AF4A11605160D6F898000021C2
:105DF000AD4A03C2A848007816287CDBA648407943
:105E0000A649497988421FD1A3480079A349097955
:105E1000884219D1A048C078A049C978884213D1D6
:105E20009D4880789D49897888420DD19A4840786C
:105E30009A494978884207D1974800789749097864
:105E4000884201D1002F56D093484079934949792F
:105E5000884256D0D6F898000021944A03C292484E
:105E6000D0E900209149D1E90031D21A884104D209
:105E70008E4801688C4800680D1A8C48D0E90010E3
:105E8000894AC2E900108A48008800B90025844C7C
:105E90005C3481488078401E54F8200041197E48C7
:105EA0008078401E44F82010303C7B484078401EEB
:105EB00054F82000411978484078401E44F82010DA
:105EC000283C7548007816380A2190FBF1F201FB56
:105ED000120054F8200041196F48007816380A2241
:105EE00090FBF2F302FB130044F820106D48D0E958
:105EF0000020521900E09FE040F100006949C1E92B
:105F000000206548C0786549C978884213D1624845
:105F100080786249897888420DD15F4840785F492E
:105F20004978884207D15C4800785C490978884202
:105F300001D1002F4DD0584800788DF80000564808
:105F400040788DF80100544880788DF8020052485E
:105F5000C0788DF803005249009808604E480078D8
:105F60004E49097888421ED04D4C2C340C212046D5
:105F700007F002FD30341F21204607F0FDFC583C9D
:105F80004648007815380A2190FBF1F201FB120017
:105F9000002144F8201040480178204618F0FBFE0C
:105FA000404A03C20BE03C4840783C49497888426B
:105FB00005D03B4C5C341F21204607F0DDFC072157
:105FC000022000F0C1F827B900203A4908603A4998
:105FD0000860334C5C3430488078401E54F8200010
:105FE0009C36B060303C2C484078401E54F820006D
:105FF0007060283C2848007816380A2190FBF1F29E
:1060000001FB120054F8200046F89C092248007851
:10601000224908702048407848701F48807888706E
:106020001D48C078C8701C48007908711A4840792A
:1060300048711948807988712048008828B3002069
:10604000184A106050601E4908601E4908601E49C9
:10605000086018490860184908601C4908601C4914
:1060600008601C49086001201B4908800C48006832
:1060700010B90848008828B912F0E6F90721022073
:1060800000F062F8012003490880F8BDC4580020E0
:10609000BA150020B8150020A0020020BD02002083
:1060A0003435002038150020C8150020C015002008
:1060B000A015002030140020341400209415002076
:1060C000481500204415002040150020D814002059
:1060D000DC140020E0140020981500201BF064FC64
:1060E0000FE008480068401C064908600846006840
:1060F0000549884205D900200249086003A001F043
:10610000AFFDEEE7B4000020C0C62D006D656D6FD9
:106110007279206661756C740A0D0000704700008A
:10612000BFF34F8F0648006800F4E060054908435C
:10613000001D03490860BFF34F8F00BFFEE700005A
:106140000CED00E00000FA052DE9F04105460E4691
:10615000FEF71CF8074605EB45000C4901EB8004EF
:1061600020890121B14008432081208961890840AC
:1061700030B10120A8400649098808430449088035
:106180003846FEF707F8BDE8F0810000806F002078
:10619000581600201D48007800F00F0038B11B4849
:1061A000007800F00F001A4931F8100070471748C6
:1061B000007800F0F00048B1154814490978C1F39F
:1061C000031130F81100001D80B2EFE70F4800887E
:1061D00000F4706048B10E480C490988C1F30321EE
:1061E00030F81100083080B2E0E70848008800F479
:1061F000704040B105480088000B054931F8100097
:106200000C3080B2D2E70320D0E7000058160020FF
:10621000742B020810B5024602EB4203094C04EB52
:106220008300038901248C4023430381038944892B
:10623000234033B101239340034C24882343024C71
:10624000238010BD806F00205816002010B500F08C
:106250001BF800F003F800F01FF810BD00200549FE
:1062600008800549088005490880054908600549F6
:1062700008607047581600205C1600205A1600204F
:10628000601600206416002001480249086070472B
:10629000AC7F002068160020084800210AE0002298
:1062A00002608280C28002814FF6FF7242810C3010
:1062B0004A1C91B20429F2DB70470000806F002075
:1062C00070B50446FDF762FF06461B48006844812E
:1062D00019480068058905EA040000BB17480178E1
:1062E00001208840164909888143154801803046BD
:1062F000FDF750FF00F026F8FDF748FF06460E4870
:10630000006805890C4800680089A0430A490968AB
:1063100008813046FDF73EFF05EA040070BD0648DF
:1063200000680089A0430449096808813046FDF7E8
:1063300031FF05EA0400F1E7641600205C16002036
:106340005816002010B5FDF721FF0446FFF722FF85
:106350000A490880084600880949088007480088DB
:1063600000EB4000074901EB800007490860FDF79A
:1063700021FF2046FDF70EFF10BD00005A16002039
:106380005C160020806F00206016002010B5FFF71B
:1063900001FF0B490880084600880A490880084820
:1063A000008800EB4000084901EB800007490860C5
:1063B0000846006806490860FDF7EFFE10BD0000C2
:1063C0005A1600205C160020806F00206016002006
:1063D000641600202DE9F04707460E461546104882
:1063E000D0F800900068A0EB86000D49086049468F
:1063F000384600F01BF8804605EB4500094901EBE3
:106400008004C4F800800020A080E080208101206A
:10641000A84005490988084303490880BDE8F0877A
:1064200068160020806F00205816002010B5024624
:1064300008464FF080730360031F18461A606FF020
:106440000104031F18461C604FF01234031F184646
:106450001C604FF00334031F18461C604FF00234D9
:10646000031F18461C606410031F18461C6000249C
:10647000031F18461C604FF01134031F18461C60A0
:106480004FF01034031F18461C604FF00934031FEF
:1064900018461C604FF00834031F18461C604FF06C
:1064A0000734031F18461C604FF00634031F1846BC
:1064B0001C604FF00534031F18461C604FF0043475
:1064C000031F18461C6010BD70B50025344EA6F1A0
:1064D000240411E0A08860B1E088401CE080E088DE
:1064E000A188884205DB0020E08000212846FFF7D4
:1064F00091FE0C34681C85B2B442EBD9294800786F
:1065000018B100202849087016E0274800780628AE
:1065100012DA25480078401C2349087008460078A4
:10652000052809DB4FF40051204802F0EBFD4FF441
:1065300080711F4802F0E8FD1E48007818B1002065
:106540001D49087009E01C480078062805DA1A4839
:106550000078401C1849087000BF1848007818B12E
:1065600000201749087009E015480078062805DA68
:1065700013480078401C1249087000BF1148006899
:10658000401C10490860084600684FF47A71B0FB5F
:10659000F1F201FB120008B902F02AF870BD000008
:1065A000A46F0020211700202417002000100140B4
:1065B0000008014022170020251700202317002083
:1065C000261700200400002010B504480068401C75
:1065D00002490860FFF778FF10BD00006C1600202C
:1065E000F8B500270025D24E3089C0F3403048B1BD
:1065F000D048008896280DDACE480088401CCD4946
:10660000088007E0CB480088962800DB012700209F
:10661000C8490880C848008800283ED00020C649E4
:106620000880C6480078C6490870C4484078487059
:10663000C24880788870C148C078C870BF48007967
:106640000871BE4840794871BC4880798871BD485E
:106650000068C0B1BB48006800909DF80000087059
:106660009DF8010048709DF8020088709DF80300B5
:10667000C870B44C241DB1480178204618F08BFB3B
:10668000B14A03C205E011F0EDFE0021AE4A1160EF
:106690005160B06F0021AD4A03C2A84800781628A7
:1066A0007EDBA6484079A649497988421FD1A34894
:1066B0000079A3490979884219D1A048C078A04936
:1066C000C978884213D19D4880789D49897888424D
:1066D0000DD19A4840789A494978884207D197481D
:1066E000007897490978884201D1002F58D0934803
:1066F000407993494979884255D0B06F0021944A36
:1067000003C29248D0E900209149D1E90031D21A60
:10671000884104D28E4801688C4800680D1A8C4864
:10672000D0E90010894AC2E900108A48008800B9FF
:106730000025844C5C3481488078401E54F8200049
:1067400041197E488078401E44F82010303C7B4838
:106750004078401E54F82000411978484078401E87
:1067600044F82010283C7548007816380A2190FB20
:10677000F1F201FB120054F8200041196F48007833
:1067800016380A2290FBF2F302FB130044F82010A3
:106790006D48D0E90020521940F100006A4900E03C
:1067A0009CE0C1E900206548C0786549C978884205
:1067B00013D1624880786249897888420DD15F4858
:1067C00040785F494978884207D15C4800785C4945
:1067D0000978884201D1002F4DD0584800788DF8B3
:1067E0000000564840788DF80100544880788DF8B4
:1067F00002005248C0788DF80300524900980860A2
:106800004E4800784E49097888421ED04D4C2C34B1
:106810000C21204607F0B0F830341F21204607F045
:10682000ABF8583C4648007815380A2190FBF1F245
:1068300001FB1200002144F8201040480178204656
:1068400018F0A9FA404A03C20BE03C4840783C49A2
:106850004978884205D03B4C5C341F21204607F024
:106860008BF806210220FFF76FFC27B900203A4978
:1068700008603A490860334C5C3430488078401EE8
:1068800054F82000C6F88400303C2C484078401E64
:1068900054F82000C6F88000283C284800781638B4
:1068A0000A2190FBF1F201FB120054F82000F0677E
:1068B00022480078224908702048407848701F48D4
:1068C000807888701D48C078C8701C4800790871AD
:1068D0001A484079487119488079887120480088A1
:1068E00028B30020184A106050601E4908601E49F5
:1068F00008601E49086018490860184908601C496A
:1069000008601C4908601C49086001201B49088078
:106910000C48006810B90848008828B911F0A2FD99
:1069200006210220FFF710FC012003490880F8BD72
:10693000C4580020A4150020A2150020A0020020A9
:10694000B60200205834002020150020B015002089
:10695000A8150020A01500203014002034140020B9
:1069600094150020301500202C150020281500203B
:10697000D8140020DC140020E0140020961500201C
:1069800010B529480088401E00B227490880002819
:106990002DDA0220088025480078052822D2DFE879
:1069A00000F003090F151B00FFF71AFE01201F4915
:1069B00008701BE0FFF7C0F902201C49087015E0C1
:1069C000FEF75AFF0320194908700FE000F03EFD62
:1069D00004201649087009E0FEF7B6FA00201349B2
:1069E000087003E000201149087000BF00BF104884
:1069F0000088C0B10F480088A8B10F48008890B146
:106A00000E48008878B10E48008860B100200D491A
:106A10000880074908800749088007490880074916
:106A200008800749088010BD1A160020181600209B
:106A300096150020981500209A1500209C1500201E
:106A40009E150020941500203EB50446256844F2AA
:106A50005021681A8D427DD009DCA5F58040A0F553
:106A6000047070B1102827D0202874D142E020286B
:106A70005CD0302870D0A0F54050D0380028F4D138
:106A8000AEE02179607901EB002088490880A17986
:106A9000E07901EB002085494880217A607A01EB9A
:106AA000002000B281498880A07A8871E07AC8719C
:106AB00001207F490870B0E02179607901EB002066
:106AC0007A490881A179E07901EB00207749488172
:106AD000217A607A01EB002000B274498881A17AA2
:106AE000E07A01EB002000B27049C88101207149B1
:106AF000087092E02179607901EB00206B490882EF
:106B0000A179E07901EB002068494882217A607A16
:106B100001EB002065498882A17AE07A01EB002030
:106B20006249C88201206449087076E02179607961
:106B300001EB00205D490883A179E07901EB002099
:106B40005A494883217A607A01EB002057498883AB
:106B5000A17A02E00AE05FE025E0E07A01EB0020A4
:106B60005249C88301205549087056E020794F49A1
:106B700081F820006179A07901EB00204B4948841D
:106B8000E07981F82400217A607A01EB00204749FE
:106B9000C884A17AE07A01EB0020444908850120ED
:106BA0004749087039E02079404981F82A00607926
:106BB00081F82B00A07981F82C00E07981F82D0074
:106BC000207A81F82E00607A81F82F00A07A81F86F
:106BD0003000E07A81F8310001203A4908701CE069
:106BE0002179607901EB002030494886A07981F84D
:106BF0003400E07981F83500217A607A01EB0020D9
:106C00002A49C886A17AE07A01EB00202749088743
:106C100001202D49087000E000BF00BF2448007823
:106C2000002842D02348007800283ED0224800782F
:106C300000283AD021480078B8B321480078A0B3A2
:106C40002048007888B32048007870B34FF484401F
:106C5000009000200190002102910821684606F072
:106C600057FE012019490870002019490880104971
:106C700008701049087010490870104908701049D0
:106C8000087010490870104908701248408820F0B8
:106C90000400104948800846408820F008004880D9
:106CA0000846408820F0100048803EBD081E0020A5
:106CB00024000020250000202600002027000020BE
:106CC00028000020290000202A0000201B000020AE
:106CD0001C000020B4130020016840F25933CA1A86
:106CE00099424FD007DCA1F251324AB1042A23D095
:106CF000052A61D130E0032A53D0052A5CD157E040
:106D00000379427903EB02223F4B1A808379C279DF
:106D100003EB02223C4B5A80037A427A03EB0222B5
:106D2000394B9A80837AC27A03EB0222364BDA809F
:106D30000122364B1A7040E00379427903EB0222BC
:106D4000314B1A818379C27903EB02222E4B5A818F
:106D500001222F4B1A7030E00379427903EB0222B3
:106D6000294B9A818379C27903EB0222264BDA817F
:106D7000037A427A03EB0222234B1A820122254B2B
:106D80001A701AE00279204B9A744279DA74827987
:106D90001A75C2795A75027A9A7501221E4B1A70B9
:106DA0000BE00279184BDA7501221C4B1A7004E0D3
:106DB00001221B4B1A7000E000BF00BF134A12787B
:106DC00002B3134A1278EAB1124A1278D2B1124AC7
:106DD0001278BAB1114A1278A2B1114A12788AB166
:106DE0000122104B1A7000220F4B1A80074B1A70A9
:106DF000074B1A70074B1A70074B1A70074B1A7023
:106E0000074B1A7070470000421E00202B00002024
:106E10002C0000202D0000202E0000202F0000203C
:106E200030000020200000201E00002010B50020AF
:106E30000649086040F2046004F02AF94FF48073B8
:106E400003220421024802F061F910BD401600201F
:106E500000100140704700002DE9F041002500249A
:106E60000027A0460026D8480068D8490968C1F321
:106E7000902188427ED000BF9AE1D448006805F195
:106E80000A01C84060B9D0480068E840012807D12D
:106E9000CD4801680020A8400140CB48016085E151
:106EA000CA48006805F10A01C8400128F7D1C64860
:106EB0000068E8400128F2D018F01EFFC4B2092C87
:106EC00002DC601CC4B202E00A2C00D1012420467E
:106ED00011F040FE012012F0D3FA611E88B20121A8
:106EE00012F09EF9611E88B2012112F087F905F1B6
:106EF0006401621E90B212F06FF9611E88B2B4494B
:106F0000098812F0C3F9611E88B2B249098812F0EB
:106F100099F9611E88B2B049098812F0A5F9611E7D
:106F200088B2AE49098811F099FE611E88B2AC4959
:106F3000098811F05DFE611E88B2AA49B1F90010FE
:106F400012F0DAF9611E88B2A749098811F0A8FF8A
:106F5000611E88B2A549B1F9001012F0DFF9611E77
:106F600088B2A349098811F089FF611E88B2A1493E
:106F7000098800E025E111F053FF611E88B29E49A7
:106F8000098811F015FF611E88B29C49098811F02B
:106F90009DFE611E88B29A49098811F0D1FE611EDA
:106FA00088B29849098811F0A9FF611E88B29649F4
:106FB000098812F023F8611E88B29449098812F0FA
:106FC0000BF8611E88B29249098811F0CFFF611E4B
:106FD00088B29049098811F0B7FF611E88B28E49C6
:106FE000098811F0E7FF611E88B28C49098811F009
:106FF000CFFF611E88B28A49098811F00BFE611E1D
:1070000088B28849098811F0CFFD611E88B286498F
:10701000B1F9001012F04CF9611E88B28349098859
:1070200011F00AFE611E88B28149098811F0CEFD77
:10703000611E88B27F49B1F9001012F04BF9611E50
:1070400088B27D49098811F0C5FE611E88B27B496E
:10705000098811F087FE611E88B27949098811F00C
:107060000FFE611E88B27749098811F041FE611E4A
:1070700088B27549098811F0BFFE611E88B2734954
:10708000098811F081FE611E88B27149098811F0EA
:1070900009FE611E88B26F49098811F03DFE611E2C
:1070A00088B26D49098811F0BBFF611E88B26B4937
:1070B000098811F035FF611E88B26949B1F90010E5
:1070C00012F07AF9611E88B26649B1F9001012F027
:1070D0005FF96548B0F900006449B1F900108842D1
:1070E00004DD614800881FFA80F803E05F480088EB
:1070F0001FFA80F8611E88B20FFA88F112F034F995
:107100005B48B0F900005B49B1F90010884203DD2B
:107110005748008886B202E05648008886B2564832
:10712000B0F90000B04202DD5348008886B2611E0B
:1071300088B231B212F004F9611E88B2002111F058
:1071400097FF611E88B2002111F0A6FF611E88B270
:10715000002111F0B5FF611E88B2002111F0C4FFBB
:10716000611E88B2002111F0D3FF611E88B2002198
:1071700011F0E2FF611E88B2002111F0F1FF611EE3
:1071800088B2002112F000F8611E88B2002112F0CE
:107190000FF8611E88B2002111F056FF0A480168FD
:1071A0000120A8400143084801600127681CC5B2BE
:1071B000102DFFF662AE012F03D1012012F01AF953
:1071C0000027BDE8F081000098000020B0130020E7
:1071D000A0010020A2010020A40100200C01002039
:1071E00010010020120100201401002018010020CD
:1071F0001A0100201C010020200100202201002093
:107200002401002026010020280100202C0100205C
:107210002E0100203201002034010020380100201E
:107220003A0100203E0100204001002042010020E0
:107230004601002048010020500100205401002098
:1072400056010020580100205A0100205E01002054
:1072500060010020620100208401002086010020DE
:107260008C0100208E01002090010020920100205E
:10727000940100209601002098010020F0B587B00D
:1072800006465F4850F82670BC1C07F1DE05022E4A
:1072900001D0002E6ED1207949286BD16079412828
:1072A00068D1A079502865D1E0790D2862D1E079C4
:1072B000A17962792379CDE90332CDE90510E1782E
:1072C000A0786278CDE90020029123784DA255A1E3
:1072D00049201AF06AFB207849282CD1607856287A
:1072E00029D1A078452826D1E0784D2823D11EB990
:1072F00002204D49087004E0022E02D101204A49C3
:10730000087001204949087049481AF0E2FA4848D3
:107310001AF07BFA28202870412068704320A8705A
:107320004B20E8700D20287105222946304611F0C7
:107330003FFA07B0F0BD207849285ED1607849282F
:107340005BD1A078432858D1E0784D2855D107204B
:107350003649087028202870412068704320A870A2
:107360004B20E8700D20287105222946304611F087
:107370001FFADEE7022E00D0F6BB2078472808D19E
:107380006078352805D1A078522802D1E0784328CA
:107390000BD02078472830D1607833282DD1A078C1
:1073A00043282AD1E078432827D12248B0F9860023
:1073B00001280ADC1F48408DC0F3803028B91D48E1
:1073C000408DC0F3403000B9B3E71EB90220164922
:1073D000087004E0022E02D10120134908701448FD
:1073E0001AF077FA12481AF010FA0F48007810B124
:1073F00005200E4908709CE7FFE700BF99E70000F1
:10740000143A00206F746120726563763A25632513
:107410006325632563256325632563253032780A58
:107420000D0000006D6F6400E2000020DE0000200F
:1074300000040040A2580020024908700978024A5E
:1074400011807047AF000020A8000020F8B5002789
:107450000025D24EB07A00F0010048B1D048008833
:1074600096280DDACE480088401CCD49088007E0F8
:10747000CB480088962800DB01270020C8490880F7
:10748000C848008800283FD00020C6490880C64868
:107490000078C6490870C44840784870C24880786F
:1074A0008870C148C078C870BF4800790871BE486C
:1074B00040794871BC4880798871BD480068C0B186
:1074C000BB48006800909DF8000008709DF801001E
:1074D00048709DF8020088709DF80300C870B44C95
:1074E000241DB1480178204617F055FCB14A03C26B
:1074F00005E010F0C5FF0020AE4A10605060B6F8FD
:10750000F800C117AC4A03C2A748007816287DDBF3
:10751000A5484079A549497988421FD1A2480079F8
:10752000A2490979884219D19F48C0789F49C978F2
:10753000884213D19C4880789C49897888420DD133
:107540009948407899494978884207D19648007807
:1075500096490978884201D1002F57D09248407946
:1075600092494979884254D0B6F8F800C117934A35
:1075700003C29148D0E900309049D1E900219A1A1C
:10758000884104D28D4801688B4800680D1A8B49E8
:1075900003C9894A03C28A48008800B90025844C7F
:1075A0005C3481488078401E54F8200041197E48A0
:1075B0008078401E44F82010303C7B484078401EC4
:1075C00054F82000411978484078401E44F82010B3
:1075D000283C7548007816380A2190FBF1F201FB2F
:1075E000120054F8200041196F48007816380A221A
:1075F00090FBF2F302FB130044F820106D48D0E931
:107600000020521940F100006A4900E09CE0C1E905
:1076100000206548C0786549C978884213D162481E
:1076200080786249897888420DD15F4840785F4907
:107630004978884207D15C4800785C4909788842DB
:1076400001D1002F4DD0584800788DF800005648E1
:1076500040788DF80100544880788DF80200524837
:10766000C0788DF803005249009808604E480078B1
:107670004E49097888421ED04D4C2C340C212046AE
:1076800006F07AF930341F21204606F075F9583C8F
:107690004648007815380A2190FBF1F201FB1200F0
:1076A000002144F8201040480178204617F073FB71
:1076B000404A03C20BE03C4840783C494978884244
:1076C00005D03B4C5C341F21204606F055F90D21B6
:1076D0000220FEF739FD27B900203A4908603A49EF
:1076E0000860334C5C3430488078401E34F8200009
:1076F000FA36B080303C2C484078401E34F82000E8
:107700007080283C2848007816380A2190FBF1F256
:1077100001FB120034F8200026F8FA09224800780C
:10772000224908702048407848701F488078887047
:107730001D48C078C8701C48007908711A48407903
:1077400048711948807988712048008828B3002042
:10775000184A106050601E4908601E4908601E49A2
:10776000086018490860184908601C4908601C49ED
:1077700008601C49086001201B4908800C4800680B
:1077800010B90848008828B910F07AFE0D210220AF
:10779000FEF7DAFC012003490880F8BDC458002038
:1077A000EA150020E8150020A0020020CB020020EE
:1077B000EC36002068150020F8150020F015002098
:1077C000A01500203014002034140020941500204F
:1077D000781500207415002070150020D8140020A2
:1077E000DC140020E01400209C15002008B515488A
:1077F000006840F00100134908600846406840F006
:10780000800048600020009002E00098401C00903A
:1078100044F6206100988842F7D300200949486067
:10782000C8620846006808490840064908604FF4E5
:107830007F0088600846006820F48020086019F006
:1078400013FF08BD00100240FFFFF6EA10B50AF072
:10785000CFFC0446012111481AF02FF8E0B110487E
:107860000078032808D1002C12DD611EC9B20C4635
:10787000084611F00BFE0BE009480078062807D1F6
:10788000002C05DD611EC9B20C46084611F0FEFD54
:10789000012102481AF00EF810BD0000000400405B
:1078A000DE00002010B50E490E481AF07DFA10B126
:1078B000032010F019FE0C490A481AF075FA10B1AD
:1078C000032010F027FF032106481AF044FA30B1D4
:1078D000032104481AF032FA02481AF0D3F910BD15
:1078E00005030500004C00400703070010B53249AE
:1078F00032481AF059FA68B3042010F0F5FD304808
:10790000007803282CD13C2011F0C0FD2D480078D0
:10791000022810D12C480078022803D02A48007889
:10792000072803D1002010F057FE1BE0002104209F
:1079300010F002FD16E023480078012812D12248F9
:107940000078022803D020480078072803D10220BD
:1079500010F042FE06E00221042010F0EDFC01E0F0
:1079600017480078194915481AF01EFAB8B10420D2
:1079700010F0D0FE12480078032810D1114800788A
:10798000022804D10421002010F0D6FC07E00D48A5
:107990000078012803D10421022010F0CDFC03213E
:1079A00006481AF0D8F930B1032104481AF0C6F994
:1079B00002481AF067F910BD0503050000500040A9
:1079C000DE000020E2000020000000200703070086
:1079D00010B52F492F481AF0E7F918B32E48007850
:1079E00002280DD12D480078032809D13C2011F040
:1079F0004DFD002010F078FD0421002010F09CFCCB
:107A00002548007802280ED12448007806280AD19B
:107A10003C2011F03BFD002010F066FD012100200C
:107A200010F08AFC02E0002010F05EFD1C491948AD
:107A30001AF0BAF9F0B1002010F06CFE0020FDF74A
:107A40005FF915480078022808D114480078032807
:107A500004D10021042010F06FFC0BE00E480078E8
:107A6000022807D10D480078062803D10021012003
:107A700010F062FC032107481AF06DF930B10321C0
:107A800004481AF05BF903481AF0FCF810BD000036
:107A90000503050000380140E2000020DE00002060
:107AA0000703070010B5244924481AF07DF9C8B12E
:107AB000012010F019FD22480078062812D13C2040
:107AC00011F0E4FC1F480078022804D100210120B5
:107AD00010F032FC06E01B480078012802D1022198
:107AE00010F02AFC184915481AF05EF9B8B10120C7
:107AF00010F010FE12480078062810D111480078C6
:107B0000022804D10121002010F016FC07E00D48E6
:107B10000078012803D10121022010F00DFC03217F
:107B200006481AF018F930B1032104481AF006F992
:107B300002481AF0A7F810BD0503050000440040F4
:107B4000DE000020E20000200703070010B52F49E7
:107B50002F481AF029F920B32E48007801280ED1B9
:107B60002D48007803280AD13C2011F08FFC022018
:107B700010F0BAFC0421022010F0DEFB15E02548CD
:107B8000007801280ED12448007806280AD13C202C
:107B900011F07CFC022010F0A7FC0121022010F063
:107BA000CBFB02E0022010F09FFC1C4918481AF0A1
:107BB000FBF8F0B1022010F0ADFD0220FDF7A0F8B7
:107BC00014480078012808D113480078032804D10C
:107BD0000221042010F0B0FB0BE00E4800780128D1
:107BE00007D10D480078062803D10221012010F0AA
:107BF000A3FB032106481AF0AEF830B10321044874
:107C00001AF09CF802481AF03DF810BD0503050073
:107C100000480040E2000020DE00002007030700CB
:107C200019F0C2FE0FE008480068401C06490860D1
:107C3000084600680549884205D9002002490860C5
:107C400003A000F00DF8EEE7B4000020C0C62D0040
:107C50005573616765206661756C740A0D000000DC
:107C60000FB4054B10B503A9044A029800F030F890
:107C700010BC5DF814FB000001900008F01D00200E
:107C80000FB4084B10B504A902AA039800F020F81D
:107C9000044602A9002000F046FA204610BC5DF818
:107CA00014FB00002781000802E008C8121F08C169
:107CB000002AFAD170477047002001E001C1121F6D
:107CC000002AFBD1704700F0010181F3138870474F
:107CD0002DE9FF4F8DB00F460546002606E025280A
:107CE0000BD0DDE90F1290476D1C761C2878002818
:107CF000F5D111B03046BDE8F08F0024A246A14670
:107D00000122E94900E0044315F8013F203B02FA53
:107D100003F00842F7D128782A2810D06FF02F02FC
:107D20002878A0F13001092914D80AEB8A0102EB66
:107D3000410144F0020400EB010A6D1CF0E701CFA1
:107D40005FEA000A03D544F40054CAF1000A44F083
:107D500002046D1C28782E2817D115F8010F44F065
:107D600004042A280ED06FF02F022878A0F13001E9
:107D700009290AD809EB890102EB410100EB01094D
:107D80006D1CF2E757F8049B6D1C28786C280FD007
:107D900006DC4C2817D068280DD06A2814D104E0DE
:107DA000742810D07A280FD10DE044F400140AE0B2
:107DB00044F4801401E044F440146978814202D113
:107DC00004F580146D1C6D1C28786E281ED00CDC08
:107DD000632830D004DC00288BD0582811D19FE0D4
:107DE000642867D069280CD164E073282DD004DCA6
:107DF0006F2872D0702804D194E075286ED078284E
:107E00006DD0DDE90F129047761C4BE1C4F30250B0
:107E1000022806D0032809D0042801CF09D0066023
:107E200040E101CFF117C0E900613BE101CF0680DD
:107E300038E1067036E117F8040B8DF800000020D9
:107E40008DF80100EB46012003E057F804BB4FF02A
:107E5000FF3061074FF0000102D40DE008F101018D
:107E6000884649450FDA8045F8DB1BF808100029E1
:107E7000F4D108E008F1010188468142FADB1BF8E1
:107E800008100029F6D1DDE90F23AAEB080081468E
:107E9000214600F031F9304400EB080604E0DDE94A
:107EA0000F121BF8010B9047B8F10108F7D22146D9
:107EB0004846F2E00A21C4F302524FF0000B089149
:107EC000022A04D001CFC117032A09D00AE0FF1DFE
:107ED00027F00707F7E8020108E02CE01EE01FE0AA
:107EE00000B2C117042A01D140B2C117021E71F1BC
:107EF000000206DA0023D0EB030063EB01012D2220
:107F000002E0220504D52B228DF82420012203E073
:107F1000E20701D02022F7E7904653E00A210BE068
:107F2000102109E010214FF0000B44F004044FF041
:107F30000809089103E008214FF0000B0891C4F3F1
:107F40000252022A04D001CF0021032A06D006E003
:107F5000FF1D27F00707F7E8020103E080B2042ABB
:107F600000D1C0B24FF0000822072BD52A78702A22
:107F700007D0DDF820C08CF0100C5CEA0B0C05D0AB
:107F80000EE040228DF82420012208E050EA01038F
:107F900006D030238DF824308DF82520022290461B
:107FA000089B83F0080353EA0B030BD150EA01024C
:107FB00001D1620706D530228DF824204FF0010848
:107FC000A9F101092A78582A04D038A20B9208AAEC
:107FD0000A920BE03AA2F9E75B46089AFCF71CF913
:107FE0000B9B9B5C0A9A521E0A92137050EA010284
:107FF000F2D10A98ADEB000000F1200B600702D52A
:1080000024F4803401E04FF00109D94502DDA9EBE9
:108010000B0000E0002000EB0B0141440890AAEBAC
:10802000010AE00306D4DDE90F232146504600F0A3
:1080300063F806444FF0000908E009A911F80900A7
:10804000DDE90F12904709F10109761CC145F4DB07
:10805000E0030CD5DDE90F232146504600F04CF833
:10806000064404E0DDE90F1230209047761C0899A1
:10807000481E08900029F5DC08E00A980A99007863
:10808000491C0A91DDE90F129047761CBBF10001F3
:10809000ABF1010BF1DC21465046DDE90F2300F086
:1080A00019F806446D1C21E60928010030313233ED
:1080B0003435363738396162636465660000000024
:1080C000303132333435363738394142434445460E
:1080D000000000002DE9F041044600251E46174629
:1080E000880404D405E039462020B0476D1C641E86
:1080F000F9D52846BDE8F0812DE9F0410446002578
:108100001E469046C80301D5302700E0202788048A
:1081100004D505E041463846B0476D1C641EF9D5CC
:108120002846BDE8F0810A68531C0B601070704748
:108130002DE9F04104460D46605D00F00BF806465F
:10814000691C605C00F006F8074647EA0610C0B2FA
:10815000BDE8F0810146302905DB392903DCA1F1B6
:108160003000C0B27047412905DB462903DCA1F18C
:108170003700C0B2F6E7612905DB662903DCA1F10F
:108180005700C0B2EEE700BFECE7F0B502460023AF
:10819000012003E0175C3B44471CB8B28842F9DD7C
:1081A0004FF6FF70B3FBF0F700FB1734E04385B2E6
:1081B000681C86B23046F0BDF0B50146C1F303231A
:1081C000C1F3031401F00F051819421910464FEAC4
:1081D000E27C02EB1C7C4FEA2C1CA2EB0C1C0CF08A
:1081E000FF060F20B043471C3846F0BD10B50446CB
:1081F0000A48844208D140F2194002F069FF40F277
:10820000194002F055FF07E040F21A4002F060FF0B
:1082100040F21A4002F04CFF10BD00000064004024
:1082200010B50021837A012202FA03F13E4A126856
:1082300042F001023C4B1A603B4A1C3212688A43EE
:10824000394B1C331A60C289DAB9374A0C321268CA
:108250008A43354B0C331A60C288344B03EA02421E
:1082600043881A434389304C403444F83320828891
:108270002E4B03EA024203881A43438904EBC303EB
:108280005A60C289012A1BD1274A0C3212680A435C
:10829000254B0C331A600288244B03EA02424388C0
:1082A0001A434389204C403444F8332082881F4BC2
:1082B00003EA0242C3881A43438904EBC3035A60AA
:1082C00082893AB9184A121D12688A43164B1B1D3F
:1082D0001A6006E0144A121D12680A43124B1B1D55
:1082E0001A6002893AB9104A143212688A430E4B56
:1082F00014331A6006E00C4A143212680A430A4B1F
:1083000014331A60027C012A06D1074A1C32126813
:108310000A43054B1C331A60034A126822F001021B
:10832000014B1A6010BD0000006600400000FFFF16
:1083300070B502464FF6FF730020146824F0020463
:108340001460146844F00104146000E05B1E54687B
:1083500004F001040CB9002BF8D1546804F00104B6
:108360000CB9002074E00C784FF0404505EA8474A5
:108370004D784FF0407606EA05652C438D784FF432
:10838000702606EA05452C43CD784FF4E00606EA50
:1083900005552C434D896D1EC5F309052C43D46149
:1083A0000C79012C04D1146844F08004146003E0BB
:1083B000146824F0800414604C79012C04D11468F2
:1083C00044F04004146003E0146824F04004146096
:1083D0008C79012C04D1146844F02004146003E06B
:1083E000146824F020041460CC79012C04D11468A2
:1083F00044F01004146003E0146824F010041460C6
:108400000C7A012C04D1146844F00804146003E0D1
:10841000146824F0080414604C7A012C04D1146808
:1084200044F00404146003E0146824F004041460AD
:10843000146824F0010414604FF6FF7300E05B1E23
:10844000546804F001040CB1002BF8D103B10120F1
:1084500070BD42698A434261704742690A43426182
:10846000704710B5024609B900BFFEE732B1012AD4
:1084700016D0022A20D0032A41D12EE000234B71CE
:10848000CB718B7140F2FF334B8100230B724B7029
:1084900002238B700023CB700B714B720B7030E09A
:1084A0000123CB8100230B740B810B804B808B80CD
:1084B000CB808B814B8124E0002005E0002401F17A
:1084C0000B031C54431CD8B20828F7D300238B722B
:1084D0004B600B724B720B6013E0002005E0002430
:1084E00001F10B031C54431CD8B20828F7D3002316
:1084F0008B724B600B72CB744B720B6001E000BF50
:10850000FEE700BF10BD00000020144988744874C5
:1085100008741348008820F48040114908800846F8
:10852000008820F4004008800846408820F00100C0
:1085300048800846408820F002004880084640886D
:1085400020F0040048800846408820F00800488059
:108550000846408820F0100048807047F22900202B
:10856000B413002010B5044640F2046002F090FD00
:1085700040F2056002F08CFD40F2147002F088FDBC
:108580004FF4805302221821164800F0BFFD042347
:1085900002221946144800F0B9FD144819F07CFB7A
:1085A0002146124819F026FB0021104819F018FC4A
:1085B00000210E4819F034FC00210C4819F020FC71
:1085C00004210A4819F014FC0821084819F020FC7D
:1085D00040F20531054819F0DAFB044819F0A9FB0F
:1085E00010BD000000100140001401400050004088
:1085F00002480068401C0149086070470C140020C4
:108600002DE9F04104460D460026002702E0012036
:10861000FDF756FE0B480078012804D138467F1C30
:10862000B0F5967FF3D30120064908702A4621460B
:10863000054800F0ACFC06460020024908703046B0
:10864000BDE8F0810A140020986100202DE9F8436C
:1086500080460C46164600272546FF2D00D9FF25EB
:108660004FF0000902E00120FDF72AFE15480078CE
:10867000012805D1484609F10109B0F5967FF2D3EA
:1086800001201049087010480670EAB2411C4046AB
:108690000AF06AF9681CC2B20B490C4800F019FCD8
:1086A00007460020074908703B4609A210A149204F
:1086B000009419F07AF92146404619F077F93846C6
:1086C000BDE8F8830A1400208C6A0020986100201D
:1086D000696E7075742066726F6D206473702064AB
:1086E0006174615B25645D3A25640A0D0000000039
:1086F0006669666F000000002DE9F04104460D46F2
:108700000026002702E00120FDF7DAFD0B48007883
:10871000012804D138467F1CB0F5967FF3D30120A1
:10872000064908702A462146054800F030FC0646F6
:108730000020024908703046BDE8F081091400208D
:108740008C5D00202DE9F84380460C461646002734
:108750002546FF2D00D9FF254FF0000902E001203A
:10876000FDF7AEFD15480078012805D1484609F10E
:108770000109B0F5967FF2D3012010490870104826
:108780000670EAB2411C40460AF0EEF8681CC2B21C
:108790000B490C4800F09DFB074600200749087074
:1087A0003B4609A20FA14920009419F0FEF821468A
:1087B000404619F0FBF83846BDE8F883091400205C
:1087C0008C6900208C5D0020696E707574203264A5
:1087D000737020646174615B25645D3A25640A0DE1
:1087E000000000006669666F0000000010B54FF4DD
:1087F00080620649A1F10C0000F04AFB4FF4FD62D3
:108800000349A1F10C0000F043FB10BD985D00206E
:10881000A461002038B5002400200090474800786B
:10882000072872D2DFE800F00483831F343C4A003B
:108830000020434908704348FFF75EFF00B97AE023
:108840003F48037840A246A1492019F0AEF8012420
:1088500001203A4908704449C868804703203749D5
:10886000087000BF67E0012435480078401E81B2DF
:108870003D4842683348401C9047314803783BA24A
:1088800040A1492019F091F804202C49087052E0C9
:1088900035498868804701240520284908704AE046
:1088A0000124314800234FF4FA622102056836485A
:1088B000A84700900620214908703CE001242A487E
:1088C00001696846884700B935E030A22DA14920EA
:1088D000009B19F06AF80098042817DD1948007801
:1088E000FF2806D0174802780098C1B22648FFF743
:1088F000ADFE25484078062802D0102804D100BFDC
:1089000021202749088000BF0CE010E025A019F0C5
:1089100045F826A21BA15720009B19F046F82CA071
:1089200019F03CF8022400200449087003E00020FC
:108930000249087000BF00BF204638BD0614002061
:10894000071400208C5B00206F75747075742032E2
:1089500064737020646174613A25640A0D0000003C
:108960006669666F00000000745B0020647370200D
:108970006669666F207772697465203A25640A0D0E
:1089800000000000444556008C5C00206473702099
:108990006669666F2072656164203A25640A0D007D
:1089A000F81300201B5B33336D00000064657620F4
:1089B0006669666F206461746120666F726D206500
:1089C00072726F72204C454E3A25640A0D00000009
:1089D0001B5B306D0A0D000010B50948007838B9EE
:1089E00000F022F801280AD001200549087006E0AD
:1089F000FFF710FF012802D000200149087010BDC8
:108A00000814002010B50446064920680860606814
:108A10004860A0688860E068C86020690861FFF766
:108A2000E5FE10BD745B00207FB50025002003909B
:108A3000A2480088212805D12220A14908700020E1
:108A40009E4908809F48007808287DD2DFE800F022
:108A500004547C7C7C9EB1FE00F0FAFC9A480078BD
:108A600020B99A4840689A4908603CE096480078E6
:108A7000012804D1954880689549086033E0924800
:108A80000078022812D19348007838B18C480178D8
:108A90000078401C8A4A1070212907DD002088498F
:108AA00008708A48C0688A4908601CE08A480078D3
:108AB000401C894908708948007818B10846007838
:108AC000642809DD0020844908707F4908707F48C8
:108AD00040687F49086006E001207B4908707B48B8
:108AE00080687B49086078480078401C76490870A7
:108AF000012074490870DCE075480068807868B926
:108B0000774801780078401C754A10700F2904DD01
:108B10000020114608706B490870CAE002206949BC
:108B200008707049C86880470320664908700125AD
:108B300000BF67480068847865480068008841F293
:108B40005D11884208D100E0AFE06748408843F2F9
:108B50000841884200D107245D4800680288234606
:108B6000012162480AF080FD0390039881B25D48BC
:108B700042685E4890470420524908705949886805
:108B80008047012505204F49087092E00125504893
:108B900000688078052202EB4001524800234FF420
:108BA000487206685248B04703900620454908704D
:108BB0007FE001254B48016903A8884700B978E0A8
:108BC0004CA250A14920039B18F0EFFE0398042803
:108BD0004EDD00200090019002903D4800688078B2
:108BE00046003B480068008841F25D11884206D18A
:108BF0003D48408843F20841884200D10E26039840
:108C000081B26A463A480AF0A2FD28BB9DF80800E6
:108C1000B04221D19DF808202D4801990068436891
:108C200031489847012822D127480078401E28B9AA
:108C30002A48007810B90120284908702248007895
:108C4000401E022813D12348007800E021E070B9CB
:108C50000120204908700AE02BA018F09FFE2CA2EA
:108C600028A1452018F0A1FE2FA018F097FE0BE0D8
:108C70002FA018F093FE30A222A15720039B18F0DA
:108C800094FE29A018F08AFE022507200D490870DD
:108C90000FE000201249087001200A4908700C48B2
:108CA000006808300A49086003E0002005490870A0
:108CB00000BF00BF284604B070BD0000F8130020BC
:108CC000FD130020FB130020FE130020D41300200E
:108CD0000014002005140020FC13002004140020C0
:108CE000FA130020745B0020A25800208C5B002047
:108CF0008C5C002072656164206473703A25640A9C
:108D00000D000000444556001B5B33316D00000030
:108D1000646576206461746120666F726D2065728F
:108D2000726F720A0D0000001B5B306D0A0D0000AF
:108D30001B5B33336D0000006465762064617461F1
:108D400020666F726D206572726F72204C454E3ACC
:108D500025640A0D0000000010B543688C0002FA7B
:108D600004F42343436010BD70B5034600BF00BF49
:108D7000022A04D0042A11D0082A2DD11DE0186837
:108D80008E0002FA06F600EA060501EB8100860075
:108D900003F10800805900F002041FE018688E00FB
:108DA00002FA06F600EA060501EB8100860003F1EF
:108DB0000800805900F0040410E018688E0002FAE0
:108DC00006F600EA060501EB8100860003F10800C3
:108DD000805900F0080401E000BFFEE700BF15B1B4
:108DE0000CB1012070BD0020FCE700002DE9F04F20
:108DF000026843680024144E0F68D1F804C0D1F80B
:108E00000880D1F80C90002517E0344407EB031AD2
:108E100003EB040B8AEA0B0A0CEB531B8AEA0B0ADE
:108E2000524408EB021A02EB040B8AEA0B0A09EB24
:108E3000521B8AEA0B0A53446D1C202DE5D30260B5
:108E40004360BDE8F08F0000B979379E30B5014628
:108E5000CB888A88934202DD9C1AA0B207E09A422E
:108E600001D1002003E00C89D51A641BA0B230BDEB
:108E700070B504460D462046FFF7E8FF2189081A21
:108E8000401E691C884201DB012070BD0020FCE708
:108E9000016000238380C3800281704770B504465F
:108EA0000D46204600F043F888B9E08821898842C1
:108EB0000DDAE18820684554E088401CE080E088B5
:108EC0002189884201DB0020E080012070BD002064
:108ED000FCE72DE9F04180460E4614463746214610
:108EE0004046FFF7C5FF10B90020BDE8F0812146DC
:108EF0004046FFF7D3FF08B90020F6E7002509E058
:108F000017F8011B4046FFF7C9FF08B90020ECE73E
:108F1000681CC5B2A542F3DB0120E6E7014688885C
:108F2000CA88904201D1012070470020FCE7014629
:108F30008888002806DDCA888888401E824208D1B9
:108F400001207047CA880889401E824201D1012051
:108F5000F7E70020F5E770B504460D462046FFF719
:108F6000DDFF90B9A088218988420EDAA1882068A7
:108F7000405C2870A088401CA080A088218988427D
:108F800001DB0020A080012070BD0020FCE72DE95E
:108F9000F843044688461546C1462046FFF756FF6B
:108FA00007462FB1A1882068405C401CB84202DD12
:108FB0000020BDE8F88329462046FFF7CCFF08B91A
:108FC0000020F6E72878B84201DC287818B9E08854
:108FD000A0800020EDE700260DE069462046FFF75F
:108FE000BAFF20B19DF8000009F8010B01E0002054
:108FF000DFE7701CC6B22878B042EEDC0120D8E76B
:1090000070B504460E460025E1B2094818F03FFE4F
:1090100005E028466D1CB0F1005F00D305E0072194
:10902000034818F098FE0028F3D000BF204670BD1A
:109030000038014030B502460B46164C002145F27F
:109040005550154D286000BF1348C06800F001015D
:10905000601E041E01D00029F6D109B1002030BDE8
:109060000D4843600B4C00BF0B48C06800F0020184
:10907000601E041E01D00029F6D109B10020EEE7E0
:10908000C2F30B00044DA8604AF6AA202860012014
:10909000E5E70000FFFF0F00003000404AF6AA207D
:1090A0000149086070470000003000404CF6CC4099
:1090B0000149086070470000003000400146002967
:1090C00006DB0A2904DA022000EB0110C0B2704767
:1090D0000220FCE70146022903DB922901DC08118A
:1090E00070470020FCE7000010B54FF48071044881
:1090F00000F06AF808B1012010BD0020FCE7000074
:10910000001001404161704701617047F0B50446AD
:1091100016460025002201F00F0501F0100747B1A7
:10912000042E05D145F00305E76B1F43E76300E01C
:10913000354300201EE0012787401F40C7B1226849
:109140004FEA800C0F2707FA0CF7BA43870005FA9D
:1091500007F73A43282904D1012787401F40676158
:1091600005E0482903D1012787401F40276122607D
:10917000471CB8B20828DED3082022E00127874028
:109180001F40E7B16268A0F108074FEA870C0F277C
:1091900007FA0CF7BA43A0F10807BF0005FA07F772
:1091A0003A43282904D1012787401F40676105E021
:1091B000482903D1012787401F4027616260471C6F
:1091C000B8B21028DAD3F0BD02469068084008B162
:1091D000012070470020FCE70246D068084008B133
:1091E000012070470020FCE7F0B50A460023002468
:1091F0000021002500F00046B6F1004F02D11D4EBF
:10920000F16901E01B4E7168C0F3034583B200F4BD
:109210004016B6F5401F08D121F0E061154E766882
:1092200026F0E066134F7E6012E000F48016B6F57B
:10923000801F06D1032606FA05F4A14341F0E06140
:1092400006E0460D360103FA06F6B14341F0E0614F
:1092500022B1460D360103FA06F6314300F000460E
:10926000B6F1004F02D1034EF16101E0014E716091
:10927000F0BD00000000014070B503461C090A2C37
:1092800003DA04F130058D5402E004F137058D5402
:1092900003F00F000A2805DA00F13005EEB2551C84
:1092A0004E5504E000F13705EEB2551C4E5570BD29
:1092B00010B5034603F00F000A2803DA00F130046A
:1092C0008C5402E000F137048C5410BD70B54FF49B
:1092D0008041480300F064F918F036FB0FF018F8ED
:1092E000474800684FF47A72B0FBF2F1481EB0F1C3
:1092F000807F00D31BE0481E4FF0E02250615017E2
:109300000F22002807DA13071D0E3E4B00F00F0452
:10931000241F1D5503E013071C0E3B4B1C5400BFBC
:1093200000204FF0E02290610720106100BF02F0A2
:10933000A1FBFA21002009F009F9FA21012009F026
:1093400005F9FA21022009F001F9FA21032009F0B8
:10935000FDF8FA21042009F0F9F801220021042087
:1093600009F00EFB01220221002009F009FB012275
:109370001146104609F004FB02220121032009F0E6
:10938000FFFA05220221084609F0FAFA0AF024FA47
:10939000FCF75CFF1DA220A122A0FEF761FC03F0F8
:1093A0002DFE00224FF480712448FDF713F80020B1
:1093B0002349C8800A208880012211022148FDF734
:1093C00009F804211E484182142101820222D101A0
:1093D0001D48FCF7FFFF07211948C1831421818331
:1093E00003224FF480711948FCF7F4FF0F21144851
:1093F000418564210185FCF7C9FF002070BD000094
:109400005416002018ED00E000E400E031343A3555
:10941000343A333900000000466562203131203291
:1094200030323600415050207374617274200A0D3E
:109430002025732025730A0D0000000019E30008A1
:10944000806F0020A5CD0008DDDE000891D900085E
:109450001248408845F20A41884209D00F484088A6
:10946000491D884204D00D484088C91D884205D155
:109470000B480C4988600C48C8600DE007484088DC
:1094800043F20A41884204D004484088891E884239
:1094900002D106480349886070470000A2580020A6
:1094A000D42A0208D4130020042B02082C2B020813
:1094B00000F01F0201219140024A431142F823109B
:1094C0007047000080E100E02DE9F04103460D46C1
:1094D000164600240027A0462A48006800F4E060F1
:1094E000B0F5E06F03D100BF4FF0040830E025482D
:1094F000006800F4E060B0F5C06F03D101274FF0C1
:10950000030825E01F48006800F4E060B0F5A06F94
:1095100002D10227B8461BE01A48006800F4E06058
:10952000B0F5806F03D103274FF0010810E0154814
:10953000006800F4E060B0F5407F03D104274FF0ED
:10954000000805E04FF4A06000F020F80227B846BC
:10955000C7F1040005FA00F4C8F104010F20C84067
:109560003040044324010848C45403F01F01012083
:1095700088405911890001F1E021C1F80001BDE8DE
:10958000F08100000CED00E000E400E0024901433E
:10959000024A1160704700000000FA050CED00E07F
:1095A000024A0A400243024B1A60704780FFFF1FC5
:1095B00008ED00E030B50346144600221A4648780C
:1095C0000D7800EB05201080891C48780D7800EBA1
:1095D00005205080891C48780D7800EB052090808C
:1095E000891C48780D7800EB0520D080891C4878CC
:1095F0000D7800EB05201081891C48780D7800EB70
:1096000005205081891C48780D7800EB0520908159
:10961000891C48780D7800EB0520D081891C48789A
:109620000D7800EB05201082891C48780D7800EB3E
:1096300005205082891C48780D7800EB0520908227
:10964000891C48780D7800EB0520D082891C487869
:109650000D7800EB05201083891C48780D7800EB0D
:1096600005205083891C48780D7800EB05209083F5
:10967000891C48780D7800EB0520D083012030BD8F
:10968000F8B507460C461646002507F12205B6F543
:10969000B87F0FD9F2A018F081F94FF4B873F2A295
:1096A000F8A14520009618F080F9F7A018F076F997
:1096B0004FF4B8766078217800EB01202880A41C54
:1096C0006078217800EB01206880A41C6078217804
:1096D00000EB0120A880A41C6078217800EB012019
:1096E000E880A41C6078217800EB01202881A41C6C
:1096F0006078217800EB01206881A41C20780006A6
:10970000617800EB0140A17800EB0120E17808448A
:10971000C5F80E00241D6078217800EB01206882D6
:10972000A41C6078217800EB012000B2A882A41C60
:109730006078217800EB012000B2E882A41C6078F8
:10974000217800EB01202883A41C6078217800EBAD
:1097500001206883A41C6078217800EB012000B20E
:10976000A883A41C6078217800EB0120E883A41C66
:109770006078217800EB012000B22884A41C607876
:10978000217800EB01206884A41C6078217800EB2C
:109790000120A884A41C6078217800EB0120E884D3
:1097A000A41C6078217800EB01202885A41C607837
:1097B000217800EB012000B26885A41C6078217834
:1097C00000EB0120A885A41C6078217800EB012023
:1097D000E885A41C6078217800EB01202886A41C71
:1097E0006078217800EB012000B26886A41C6078C4
:1097F000217800EB0120A886A41C6078217800EB7A
:10980000012000B2E886A41C6078217800EB0120DA
:1098100000B22887A41C6078217800EB01206887BB
:10982000A41C6078217800EB012000B2A887A41C5A
:109830006078217800EB012000B2E887A41C6078F2
:10984000217800EB0120A5F84000A41C6078217865
:1098500000EB0120A5F84200A41C6078217800EB01
:10986000012000B2A5F84400A41C6078217800EB28
:10987000012000B2A5F84600A41C6078217800EB16
:10988000012000B2A5F84800A41C6078217800EB04
:109890000120A5F84A00A41C6078217800EB012083
:1098A000A5F84C00A41C6078217800EB012025F875
:1098B0004E0FA41C6078217800EB01206880A41C66
:1098C0006078217800EB0120A880A41C60782178C2
:1098D00000EB012000B2E880A41C6078217800EB46
:1098E000012000B22881A41C6078217800EB0120BF
:1098F00000B26881A41C6078217800EB0120A88167
:10990000A41C6078217800EB0120E881A41C607819
:10991000217800EB012000B22882A41C6078217815
:1099200000EB012000B26882A41C5948C17CA88ABF
:1099300061F30000A8825648817DA88A61F3410046
:10994000A8825348017CA88A61F38200A88250480B
:10995000817CA88A61F3C300A8824D48417CA88A13
:1099600061F30410A8824A480088E8824848B0F9A8
:109970000C000A2190FBF1F000B228834448408893
:10998000688343488088A8834148C088E88340486A
:10999000008928843E48408968843D48C089A8845D
:1099A0004E3D3C480088012845D1B5F8C800002844
:1099B00041DD3748C07C00283DD13648017835F874
:1099C000620F61F3000028803248817E288861F3AD
:1099D000410028802F488178288861F38200288000
:1099E0002C480179288861F3C300288029488179AF
:1099F000288861F3041028802648C08A00B2688055
:109A00002448408A0A2190FBF1F000B2A880214846
:109A10000089E8801F48408928811E488089688124
:109A20001C48C089A8811B48008AE8811948008B1E
:109A300000B22882623D1648C07C38B116480088C2
:109A400020F00200801C1449088005E012480088BC
:109A500020F0020010490880A88C00906B881DE05F
:109A60001B5B33316D0000007265616C2031204C4E
:109A7000454E204552524F523A25642C25640A0D1A
:109A800000000000445350001B5B306D0A0D0000C5
:109A9000F22900209A290020B813002003A20BA16C
:109AA000492017F082FF0120F8BD00007265616C4B
:109AB000206D6F64653A25642C6F757420766F6C29
:109AC0007461653A25640A0D00000000647370003B
:109AD0002DE9FC4707460C4616464FF000080025C6
