:020000040800F2
:10C00000682F0820C1C50008FD08010821C50008E7
:10C01000F90801085DFC0008290B01080000000078
:10C02000000000000000000000000000A5C500089E
:10C03000C50101080000000013C40008010901083F
:10C0400015C6000815C6000815C6000815C6000864
:10C0500015C6000815C60008C9010108C10201087B
:10C06000ED020108190301084503010875000108E4
:10C07000AD00010815C60008E50001081D01010812
:10C0800015C600085501010815C6000881FC000806
:10C0900065FC00087DFC000861FC000871030108D4
:10C0A00015C6000815C6000815C6000815C6000804
:10C0B00015C6000815C6000815C6000815C60008F4
:10C0C00015C6000815C6000815C6000815C60008E4
:10C0D00015C60008D50A0108F10A01080D0B010870
:10C0E000F501010815C6000815C6000815C60008A8
:10C0F00015C6000815C6000815C6000815C60008B4
:10C1000015C6000815C6000815C6000815C60008A3
:10C11000810A010815C6000815C6000815C60008E2
:10C1200015C6000815C6000815C6000815C6000883
:10C1300015C6000815C6000815C60008A5FC0008AD
:10C1400089FC0008A1FC000885FC000815C6000851
:10C1500015C6000815C600088D01010815C600089F
:10C1600015C6000815C6000815C6000815C6000843
:10C1700015C6000815C6000815C600080000000016
:10C1800015C6000815C600089D0A0108B90A01086D
:10C1900015C6000815C6000815C6000815C6000813
:10C1A00015C6000815C600084105010815C6000897
:10C1B00015C6000815C6000815C6000815C60008F3
:10C1C00015C6000815C6000815C6000815C60008E3
:10C1D00015C6000815C6000815C6000815C60008D3
:10C1E0003548505400F002F800F0D2F814A696E852
:10C1F000000CB244B344DA4501D100F0C9F8BAE802
:10C200000F000FA696E83000A5EB040504EB060727
:10C21000AAEB0704A7F101074FEA15154FEA3414FA
:10C22000A4F10104AC4201D300F0B2F813F0010F05
:10C2300018BFFB1A43F0010300F001F8DBE71847D1
:10C24000B8331E00D8331E000A4410F8013B13F027
:10C25000030408BF10F8014B1D1108BF10F8015B63
:10C26000641E05D010F8016B641E01F8016BF9D152
:10C27000002D15D010F8014B03F00C030C2BA1EB93
:10C2800004040ABF10F8013BA4EB8314A4EB0324BD
:10C2900005F1010314F8016B5B1E01F8016BF9D580
:10C2A000914238BF10F8013BD1D37047704700006E
:10C2B0000023002400250026103A28BF78C1FBD8AF
:10C2C000520728BF30C148BF0B6070476E2901F08C
:10C2D0000D82702900F0A583662907F0E48B65299B
:10C2E00007F0E18B672907F0DE8B612907F0DD8B12
:10C2F00003681B0A28BF41F08001692900F01683FA
:10C30000642900F01383752900F010836F2901F070
:10C310001B85782900F07183E92901F0B584E429AF
:10C3200001F0B284F52901F0AF84EF2901F01885FE
:10C33000F82900F070830368DB0928BF41F0800111
:10C34000632901F02484732901F02984E32902F090
:10C350005F80F32902F06480002070471FB587F0EA
:10C360002CFB00F09AFE01F047F9040000200021A8
:10C3700086F0AEFB401C60600020002186F0BEFB12
:10C38000E06002F041FB1FBD10B502F0A6FB10BD3E
:10C3900002F0FAFB1146FFF7E1FF03F059FC00F051
:10C3A00085FE03B4FFF7F0FF03BC09F0A1FA00001B
:10C3B0000B49D1F800C04A685CF8043B1068184487
:10C3C00042F8040B8C4528BFA1F1DC0C8A4228BF3F
:10C3D000A1F1DC02C1F800C04A6020F000407047C3
:10C3E000DC290020EFF3108072B6704780F31088CC
:10C3F00070475D4A1368012B04D04FF001031360AE
:10C400005A4A10605A4A11605A484FF080510160F0
:10C410007047EFF3108272B653480168002902D1C9
:10C4200082F31088704704B44FF0000101604F4858
:10C43000016859B350490968A1B103B508465CF0D9
:10C440000DF8BDE80340724612F0400F0AD0EFF33A
:10C450000B83EFF31484EFF3098525E91E000068D0
:10C46000056013E0EFF309811EF0100F08BF21ED06
:10C47000108B21E9F00F404A12687346EFF30B84EA
:10C48000EFF3148521E93C00006801603849096830
:10C4900009683CC984F30B8885F314889E46364EA0
:10C4A0003260104640B10AB45BF0D6FF0ABC9E462B
:10C4B00013F0400F00D006E0B1E8F00F1EF0100FAF
:10C4C00008BFB1EC108B81F3098804BC82F310889B
:10C4D000704727490860EFF3148222F0040282F3C8
:10C4E000148822494FF0000008601F494FF00100F6
:10C4F000086022482249D0F8002041EA0201016088
:10C500001C484FF0805101601E480068006880F3AD
:10C51000088861B662B6BFF34F8FBFF36F8F704765
:10C52000EFF308801EF0040F01D0EFF3098020E93B
:10C53000F00F114A12687346EFF30B84EFF3148582
:10C5400020E93C0040F804ED1EF0040F02D080F317
:10C55000098801E080F3088800B556F047FC5DF8D3
:10C5600004EB4EF0040E70475C0208209400082093
:10C57000A000082004ED00E07002082020ED00E09B
:10C580000000FFFF08ED00E001DF704712B50C4628
:10C590000FCC24E90F0059F0ADF8BDE81240086057
:10C5A00070477047EFF308811EF0040F01D0EFF3DE
:10C5B0000981886910F8020C0028F2D00128E5D022
:10C5C0004FF080504FF040014FEA81214FF00002C0
:10C5D00004C0091F0029FBD112480268403A4FF6F7
:10C5E000FF7002EA00024FEA82224FF000514FF042
:10C5F000000001C1121F002AFBD10B4880470B48E5
:10C600000047FEE7FEE7FEE7FEE7FEE7FEE7FEE7A0
:10C61000FEE7FEE7FEE7000005480649064A074B2D
:10C6200070470000207AFF1F1D090108E5C10008BE
:10C63000681F0820682F082068270820682708201E
:10C640007047000010B500F0D7FF001D10BD00BFFF
:10C650008164080000487047E429002053EA020C76
:10C6600000F069802DE9F04B4FF00006002B1FBF52
:10C67000B3FA83F503FA05F424FA05F65E4012BF17
:10C680001643B2FA82F502FA05F4C5F120051EBF81
:10C6900022FA05FC44EA0C04203556EA044C4FEA21
:10C6A000144418BF641C4FF000084FF0000990427A
:10C6B00071EB030C39D3002919BFB1FA81F701FAE4
:10C6C00007F6B0FA80F700FA07F6C7F120071EBF99
:10C6D00020FA07FC46EA0C062037B6FBF4FCA7EB71
:10C6E0000507103F07F01F0BCBF120062CFA06F6CA
:10C6F0000CFA0BFB44BFB3460026202FA4BF5E46B6
:10C700004FF0000B5BEA060C08BF4FF0010B19EB72
:10C710000B0948EB0608ABFB027C06FB02CC0BFBCB
:10C7200003CCC01B71EB0C01C1E70B46024641462E
:10C730004846BDE8F08B13B5084318BF4FF0FF30F3
:10C740000146AFF30080BDE81C40704753EA020C7D
:10C7500023D010B54C1084EA530404D54042C1F1F3
:10C76000000138BF491E1B4204D55242C3F10003E9
:10C7700038BF5B1EFFF772FF14F0804F04D04042B9
:10C78000C1F1000138BF491E14F0004F04D05242DD
:10C79000C3F1000338BF5B1E10BD13B540424FF01C
:10C7A000000070EB0104B8BF012001F00041002837
:10C7B0001CBF6FF000414FF0FF30AFF300801CBD95
:10C7C0000A46014901F0F0B9982A00207CB51D46BF
:10C7D00016460C00009007D04142A14202D32044EB
:10C7E000401E01E04FF0FF30064B7B442A4669466D
:10C7F0000190304601F0A1F9002C02D0009A0021EE
:10C8000011707CBD7D1300000FB4044910B503AA5C
:10C81000029801F0C9F910BC5DF814FB982A0020B9
:10C820000FB41CB5084B06AA7B44694600900598D6
:10C8300001F083F904460020694601F091F9204691
:10C840001CBC5DF814FB0000351300000FB41CB5D0
:10C850000C0007AA009007D04142A14202D3204415
:10C86000401E01E04FF0FF30074B7B4469460190CA
:10C87000069801F062F90021002C01D0009A117095
:10C880001CBC5DF814FB0000FD12000070B50446EE
:10C8900085690068C10601D5302600E02026C00762
:10C8A00007D070BDD4E9012130469047206A401C72
:10C8B00020626D1EF6D570BD70B50446856900789E
:10C8C000C00707D170BDD4E9012120209047206A1C
:10C8D000401C20626D1EF6D570BD70B50C46054635
:10C8E000012A05D02878800600D5EA69002302E0F5
:10C8F000012305E05B1C934202D2E05C0028F9D1E1
:10C90000A869E618C01AA861286A1844286228464F
:10C91000FFF7BCFF04E0D5E9012114F8010B9047B3
:10C92000B442F8D32846FFF7C7FF70BD2DE9F041A8
:10C930000646002410687529314616A510D000F06F
:10C940006AFE002802DA404213A507E031688A0730
:10C9500001D512A502E0490704D511A5012401E083
:10C9600000F062FE00210A2206F1240709E0B0FB74
:10C97000F2FCB0FBF2F302FB1C0030307854184696
:10C98000491C0028F3D123462A463046BDE8F04131
:10C9900000F053BE000000002D0000002B0000003E
:10C9A00020000000F0B40D460188090502D5214C95
:10C9B0007C4402E01F4C7C440E34002100F124062C
:10C9C00008E002F00F071209E75D42EA03721B0953
:10C9D0007754491C52EA0307F3D102780023120767
:10C9E00004D5702D06D009B1022311342246F0BCC3
:10C9F00000F023BE01231034F8E770B504460D465D
:10CA00002146106800F010FE024629462046BDE887
:10CA100070400023C6E7D21D22F00703D3E90023AC
:10CA2000C0E70368126843F0200303600823C36172
:10CA30000023B7E7F67108002DE9F05F8946044648
:10CA40004FF0000ADFF874B1FB44C0F820A0204684
:10CA5000E1688847002874D0252806D0D4E9012150
:10CA60009047206A401C2062F1E700265F4620467E
:10CA7000E16888472028054607DB312D05D2781963
:10CA800010F8200C08B10643F1E7B00701D526F0F5
:10CA90000406C4F81CA00027C4F818A02A2D09D049
:10CAA000284685F04CFF38B304EB8708303DC8F8C2
:10CAB000185019E059F8041B204604EB87029161D5
:10CAC000E1688847012F054618D1E069002820DA7F
:10CAD00026F020061DE0D8F8180000EB800005EBDA
:10CAE00040003038C8F818002046E16888470546FD
:10CAF00085F025FF0028EED1012F0AD02E2D08D178
:10CB00002046E16888477F1C0546022F46F0200634
:10CB1000C4DBA069002803DA404246F00106A061A8
:10CB2000F00701D026F010066C2D0BD0682D09D02F
:10CB30004C2D39D06A2D35D0742D35D07A2D33D087
:10CB400016E038E0E1682F4620468847B84205469F
:10CB500009D16C2F26D04FF48060E168064320464F
:10CB60008847054604E06C2F1AD04FF480700643C6
:10CB70000DB3A5F14100192802D8203546F400660E
:10CB80004A462946204626604E46FFF79FFB80B165
:10CB900001280BD0F61D26F0070000F1080956E722
:10CBA0004020E4E78020D8E70020D6E706F104091A
:10CBB0004DE7284652E7206ABDE8F09F86710800DD
:10CBC0000FB400B589B00BA86A46009003480A99D3
:10CBD00001F0D0F809B05DF814FB0000442A0020F1
:10CBE0002DE9FF5F4FF000089946144646469169CB
:10CBF000D2E901A7DDF838B001988847054659EA1F
:10CC00000B0005D009E0A1690198761C884705460C
:10CC1000216A284688470028F5D1681C03D05FEABE
:10CC2000CA7005D015E04FF0FF3004B0BDE8F09FAA
:10CC30002068011D2160D0F800800AE05FEACA7018
:10CC400001D108F8015BA169761C01987F1E884715
:10CC50000546002F1ADD681C18D0B9F1000F0DD061
:10CC6000E81705EBD060421120F01F0059F82210A0
:10CC70002A1A012090400142E0D107E0BBF1000FE9
:10CC8000DCD12846216A88470028D7D0E16901987D
:10CC90008847BBF1000F07D1002E05DD5FEACA709F
:10CCA00002D1002188F80010A068B84203DDBBF172
:10CCB000000F03D017B16FF00100B6E73046B4E7BC
:10CCC00070B50646FFF7C6FC0468054630460A22E2
:10CCD000002100F002F82C6070BD2DE9F04791466C
:10CCE0000F4680460446002614F8015B2DB1FFF77D
:10CCF000A9FC0068405DC007F6D12B2D02D02D2D78
:10CD000018D0641E4A463946204601F03FF827B144
:10CD10003968A14201D1C7F800804FF002047105C3
:10CD20000BD54042002803DDFFF794FC0460A00708
:10CD3000BDE8F08746F48066E4E70028F8DAFFF7FC
:10CD400089FC04606FF00040F2E72DE9F05F934644
:10CD50000F46804604460026FFF77CFCD0F8009082
:10CD6000824614F8015B2DB1FFF76CFC0068405D52
:10CD7000C007F6D12B2D02D02D2D1AD0641E002114
:10CD8000CAF800105A463946204600F0FFFF014617
:10CD900027B13868A04201D1C7F80080DAF8000056
:10CDA000022809D0CAF80090700505D54842BDE8B0
:10CDB000F09F46F48066E2E70846F8E7007B00F063
:10CDC00040007047007B00F0800070472DE9F04183
:10CDD000044616460D464769007B80072ED038462C
:10CDE00008F098FD50BB3EB3012E02D0022E25D193
:10CDF00004E0204600F066F805441DE0384608F0DF
:10CE00007DFDE168002841F01001E16005DA20466F
:10CE100001F064F80120BDE8F081C9030BD5626818
:10CE2000E16A914200D81146A26911442269891A27
:10CE3000814200DD08460544002D01DA0220EAE7C0
:10CE4000E16A6068E268814206D29103E06203D53C
:10CE500022F4003141F01002A6690027AE4213DC33
:10CE6000E16A814201D90B4600E0034603EB060C60
:10CE70002369ACEB030CAC4506DD814201D98C463D
:10CE800000E084469C4505D1A760276042F0200061
:10CE9000A5620DE0AD1BE669AE1B8142A66000D91C
:10CEA0000846C01A281A20605819606022F0200035
:10CEB00003490840E060002084F84870ABE70000B8
:10CEC000BFCFD7FF10B50146C268900703D09006C8
:10CED00007D5886A0AE0FFF7BDFB01210160881EC3
:10CEE00010BD8B69486818440B69C01A91F8483026
:10CEF0001BB191F84910401A10BD1103FCD5002850
:10CF0000FADD401E10BD000010B5044603E085F0B8
:10CF10003EFD401C09D014F8010B05490028F6D14C
:10CF2000BDE810400A2085F032BD4FF0FF3010BD43
:10CF3000982A00202DE9F0410C461646070047D0FC
:10CF4000104600F06FF82078611C61280AD0722822
:10CF500002D077283CD102E00125002405E002251B
:10CF6000042402E0082448F2020511F8010B2B28E2
:10CF700006D0622809D011F8010C74280AD00BE001
:10CF800045F0030544F00204EFE745F0040544F0E2
:10CF90000104EAE744F010043846214608F0C0FCDA
:10CFA000411C15D00021316171604FF40071F560B2
:10CFB000F1617061200704D5304602220021FFF79D
:10CFC00005FF306D40F0010030653046BDE8F0816E
:10CFD0000020FBE72DE9F0410D460646104C206D80
:10CFE000C10704D0410804D020F00104F7E722462D
:10CFF0000EE054204DF042FE07000ED0206D47F0A9
:10D000000101084354212065384600F059FA3A4698
:10D0100029463046BDE8F0418CE70020D6E7000005
:10D02000442A00202DE9F04704464FF0FF3800263F
:10D03000C568D4E90497A80718D0204600F08EFFF1
:10D04000384608F04FFC002800DA4646280502D58D
:10D05000484623F0FDFA4C21204600F031FA206DBD
:10D0600020F0010020653046BDE8F0874046FBE730
:10D070000B4910B5A1F17C020A4CC2E937123721E5
:10D0800006E000EB104342F82130074B00FB034061
:10D090000B1EA1F10101F4DC10BD0120E8E7000046
:10D0A0007C290020E119D666CD0D010010B504469B
:10D0B000AFF300802046BDE81040FFF772B9401E74
:10D0C000CAB210F8011F8A4202D00029F9D100200B
:10D0D000704730B503461D781DB10A4603E0AC42E7
:10D0E00001D1181A30BD12F8014B002CF7D15B1C8E
:10D0F000F1E710B5431E13F8014F002CFBD105E0FA
:10D1000011F8014B002C03F8014B03D0521EF7D24B
:10D110000021197010BD30B503461D783DB10A4697
:10D1200012F8014B1CB1AC42FAD15B1CF5E7181A9E
:10D1300030BD30B505460B462A4613F8014B12F8B0
:10D14000010B08B1A042F8D01CB1002802D06D1C20
:10D15000F1E7284630BD40EA010310B59B070FD127
:10D16000042A0DD310C808C9121F9C42F8D020BA57
:10D1700019BA884201D9012010BD4FF0FF3010BD0F
:10D180001AB1D30703D0521C07E0002010BD10F8DD
:10D19000013B11F8014B1B1B07D110F8013B11F8A3
:10D1A000014B1B1B01D1921EF1D1184610BD40EA64
:10D1B0000103024630B59B0710D14FF0013400E067
:10D1C00008C208C91D1B9D4315EAC41FF8D013F0FF
:10D1D000FF0102F8011B0DD01B0AF8E711F8013B13
:10D1E000002B02F8013B05D011F8013B002B02F89F
:10D1F000013BF3D130BD0022CBB210F8011B9942A4
:10D2000000D1421E0029F8D11046704710B5431CCA
:10D2100002E010F8011B71B18107FAD14FF0013221
:10D2200002C88C1A8C4314EAC211F9D0C01A0A063B
:10D2300003D0C01E10BDC01A10BD0A0401D0801E4C
:10D2400010BD0902FCD0401E10BDCBB22AB101783E
:10D250008B4203D0401C521EF9D10020704740EA97
:10D26000010370B59B072ED14FF00136042A2AD353
:10D2700008C810C99D1B9D43121F15EAC61517D07B
:10D28000D8B2E1B2401A50EA056110D198B2A1B209
:10D29000401A50EA05410AD123F07F4024F07F4133
:10D2A000401A50EA052102D1180EA0EB146070BD9F
:10D2B000A342DBD018BA21BA884201D9012070BD3F
:10D2C0004FF0FF3070BD0AB9002070BD10F8013B6F
:10D2D00011F8014B63B1A3420AD1521E08D010F8D5
:10D2E000013B11F8014B1BB1A34201D1521EEDD1FC
:10D2F000181B70BD032A40F2308010F0030C00F0C0
:10D30000158011F8013BBCF1020F624498BF11F87F
:10D3100001CB00F8013B38BF11F8013BA2F1040238
:10D3200098BF00F801CB38BF00F8013B11F00303B0
:10D3300000F02580083AC0F0088051F8043B083A14
:10D3400051F804CBA0E80810F5E7121D5CBF51F8B6
:10D35000043B40F8043BAFF30080D20724BF11F830
:10D36000013B11F801CB48BF11F8012B24BF00F895
:10D37000013B00F801CB48BF00F8012B704710B506
:10D38000203AC0F00B80B1E81850A0E81850B1E87E
:10D390001850A0E81850203ABFF4F5AF5FEA027CBD
:10D3A00024BFB1E81850A0E8185044BF18C918C0ED
:10D3B000BDE810405FEA827C24BF51F8043B40F88E
:10D3C000043B08BF7047D20728BF31F8023B48BF73
:10D3D00011F8012B28BF20F8023B48BF00F8012BB1
:10D3E0007047431A28BF9A427FF6C9AF10441144D0
:10D3F00010F0030F1EBF11F8013D521E00F8013D51
:10D4000010F0030F7FF4F6AF103AC0F00A8010B5A9
:10D4100031E9185020E91850103ABFF4F9AFBDE8CF
:10D420001040530724BF31E9081020E9081044BF19
:10D4300051F8043D40F8043D12F0030F08BF704757
:10D44000D20728BF31F8023D48BF11F8012C28BF90
:10D4500020F8023D48BF00F8012C704702F0FF039E
:10D4600043EA032242EA024200F00AB802F0FF0354
:10D4700043EA032242EA024200F024B84FF00002DD
:10D480000429C0F0128010F0030C00F01B80CCF1D6
:10D49000040CBCF1020F18BF00F8012BA8BF20F844
:10D4A000022BA1EB0C0100F00DB85FEAC17C24BF98
:10D4B00000F8012B00F8012B48BF00F8012B704742
:10D4C0004FF0000200B5134694469646203922BF1D
:10D4D000A0E80C50A0E80C50B1F12001BFF4F7AF68
:10D4E000090728BFA0E80C5048BF0CC05DF804EB4A
:10D4F000890028BF40F8042B08BF704748BF20F8B8
:10D50000022B11F0804F18BF00F8012B704710B5A7
:10D51000044610F0030F08BF11F0030F40F0158010
:10D520004FF0013E121FC0F20E8051F8043BA3EBF6
:10D530000E0C2CEA030C1CEACE1C08BF40F8043B7E
:10D54000F0D0A1F1040102F10402521E08DB11F82F
:10D55000013B00F8013B002BF7D11146FFF78EFF8E
:10D56000204610BD0000000030B44FF0013C50F8E0
:10D57000042B51F8043BCCFA52F4D51A20D1FCB953
:10D5800050F8042B51F8043BCCFA52F4D51A17D1B9
:10D59000B4B950F8042B51F8043BCCFA52F4D51A24
:10D5A0000ED16CB950F8042B51F8043BCCFA52F46C
:10D5B000D51A05D1002CDAD030BC4FF000007047EE
:10D5C00029BAB1FA81F111F01801D1F1200084409B
:10D5D000F2D1CA40CB4012F0FF0213F0FF0330BC7F
:10D5E000D01A704770477047704700000048704776
:10D5F000E42900207047000000487047042A0020FA
:10D6000010B5FFF727F8006810BD10B50446FFF706
:10D6100021F8046010BD09684A0501D540B2704781
:10D62000C905FCD500B2704709684A0501D5C0B2EA
:10D630007047C905FCD580B270472DE9F0470D460B
:10D6400099469246044600F124080168880604D5EC
:10D65000E06921F01001216000E00120A84201DD15
:10D66000471B00E00027A1697A1902EB0900081A9C
:10D67000A0612078C00602D42046FFF707F90026F3
:10D6800008E0D4E901211AF806009047206A401CFE
:10D69000761C20624E45F4DB2078C0060AD5204671
:10D6A000FFF7F4F806E0D4E9012130209047206A22
:10D6B000401C2062381EA7F10107F4DC07E0D4E922
:10D6C000012118F805009047206A401C2062281E9E
:10D6D000A5F10105F3DC2046FFF7EEF820780006FF
:10D6E00002D50220BDE8F0870120FBE7116802683F
:10D6F000006A530501D508700AE0D30501D50880FA
:10D7000006E0130603D5C217C1E9000200E0086075
:10D71000012070472DE9FF4F0C461E464FF0FF37A2
:10D720008BB0D2E90001DDF860800A908A46C1F32F
:10D730000A5505B93D46002108464FF00000BAF1F0
:10D74000000F00F4400005DA00EB80004FF44001C8
:10D7500001EA50004FEA9059B9F1010F00DDB946D6
:10D760000A9850EA4A000ED044F61050A5F2FF3550
:10D7700045432F14B8F1000F1ED07542291E1EDD3F
:10D78000C9F100021CE0B8F1010F4FF0000001D018
:10D79000302103E0F24305E02154401CB042FBDBA2
:10D7A00030460022002121540B99C1F80880C1E9BC
:10D7B00000200FB0BDE8F08FBD1B6D1CDEE74A46B0
:10D7C00000DA694206A800F073FE06AB93E8070092
:10D7D00003AB83E8070050460A9983F057F98DE8B8
:10D7E0000700A0F500501F3800900398002D0ADDB7
:10D7F00042F21F014A460844002303A903906846E9
:10D8000083F002FC09E0A0F500504A461F380023CF
:10D8100003A90390684683F021FC8DE8070000040B
:10D82000000C03D04FF0FF30410800E01046B8F183
:10D83000000F03D00022009215461EE0751E05D48D
:10D8400000F0D0FB303262556D1EF9D5B34601228F
:10D85000084302D000227F1C04E02078302801D148
:10D8600000227F1E002A099784D01DE0112D07DABF
:10D8700000F0B8FB303262556D1C50EA0102F5D160
:10D88000084302D00098C8B10EE00021681E05E0F0
:10D89000235C625C63542254401E491C8142F7DBC6
:10D8A000AB46A81B401E0990002004F80B000B9803
:10D8B000099AC0F80880C0E9002B7AE711264FF0DA
:10D8C000000857E72DE9F04F88460446D21D22F0A4
:10D8D000070191B0D1E90001CDE90A0183F00AFD09
:10D8E00002460B98C00F01D02D2007E02068810769
:10D8F00001D52B2002E0202101EAC000032A099073
:10D9000001D0072A05DB03464146204600F036FDDC
:10D910000BE12078800601D5E06900E00620B8F12F
:10D92000650F814606D0B8F1660F18D0B8F1670FC1
:10D9300070D131E00020B9F1110F009001DB11230B
:10D9400001E009F101030AAA01A90CA8FFF7E2FE10
:10D95000DDE90C70002609F10105834647E001204E
:10D960004B4600904FF000470AAA01A90CA8FFF708
:10D97000D1FEDDE90DB00C995D46002610B909F124
:10D9800001000D18B9EB050003D4C0F1FF3609F111
:10D990000105A5EB09002BE0B9F1010F01DA4FF009
:10D9A00001090020B9F1110F0090484601DD112353
:10D9B00000E003460AAA01A90CA8FFF7ABFEDDE9C7
:10D9C0000C704D4600268346207800070AD4AB45EC
:10D9D00000DA5D4601A8012D04DD411911F8011C92
:10D9E000302907D04F4502DA17F1040F04DA01207D
:10D9F00082460FE06D1EEEE7002F02DCED1B3E4479
:10DA000003E0781CA84200DD7D1CB81B00F1010A70
:10DA10004FF000472078000703D4AA4501DB4FF000
:10DA2000FF3A0021B7F1004F0DF143088DF8431084
:10DA300024D002202B23002F01DA7F422D230A213C
:10DA4000021EA0F1010000DC5FB197FBF1FC97FB27
:10DA5000F1F201FB1C7C17460CF1300C08F801CDEB
:10DA6000EEE7A8F1010003702188090501D54521E1
:10DA700000E06521A0F1010800F8011C09980FA938
:10DA8000A1EB0807FF1D00B10120411901EBEA706D
:10DA9000A1693844081A401EA0612078C00602D44B
:10DAA0002046FEF7F3FE099828B1D4E901219047FA
:10DAB000206A401C20622078C00622D52046FEF74E
:10DAC000E5FE1EE0002E04DBB34502DD01A8805D0B
:10DAD00000E03020D4E901219047206A401C2062F8
:10DAE000761CAAF101005FEA000A0AD1FFF784FD63
:10DAF000C0680168405CD4E901219047206A401C5D
:10DB00002062281EA5F10105DCDC07E0D4E9012133
:10DB100018F8010B9047206A401C2062381EA7F1BC
:10DB20000107F3DC2046FEF7C7FE032011B041E6F3
:10DB300001694A1C02610878704700B58FB0CDE9D1
:10DB400001310021059105497944CDE903101146C1
:10DB50006846FEF771FF0FB000BD0000E5FFFFFF54
:10DB60000A6802F8010B0A607047D1E900239A4263
:10DB700002D2531C0B601070704710B5436913B18B
:10DB8000AFF3008001E0FEF7A8FE012010BD12787F
:10DB900000F124010A7000224A700122EDE71168A9
:10DBA0004FF0FF32E9E70000074B70B50D467B44AC
:10DBB000FFF7C3FF04462846FFF704F910B14FF002
:10DBC000FF3070BD204670BDDD4D08002DE9FF5FC0
:10DBD00015468A460446DFF8AC80F8440027D8E9A9
:10DBE00000103E46CDE9001010E03AF816106A46E3
:10DBF00002A800F0A5FF411C07D02178890603D5B3
:10DC0000E269391891420DD80744761C20788006C5
:10DC100002D5E069B84205DDAE42E6DB3AF816000F
:10DC20000028E2D1A069C01BA0612046FEF72EFEAD
:10DC3000D8E90010CDE90010002017E03AF81810DC
:10DC40006A4602A800F07CFFB0F1FF3F81460BD08E
:10DC500000250DF1080B05E0D4E901211BF80500B2
:10DC600090476D1C4D45F7D308F10100B042804646
:10DC7000E4DB206A384420622046FEF71DFEBDE842
:10DC8000FF9F0000926008002DE9F0418046D21D00
:10DC900022F007020025D2E90002F52915A614D0CA
:10DCA000011E72F1000106DA0023D0EB030063EBE2
:10DCB000020211A608E0D8F800108B0701D50FA6C4
:10DCC00002E0490701D50EA601251146002408F1FE
:10DCD000240704E000F086F930323A55641C50EA1B
:10DCE0000102F7D12B46324621464046BDE8F041BD
:10DCF000FFF7A3BC000000002D0000002B00000077
:10DD00002000000030B4002100F1240408E002F0FB
:10DD10000705D208303542EA4372DB086554491CD6
:10DD200052EA0305F3D10468002310A2250708D5A1
:10DD300004F020040C4304D0C46901230CA2641E27
:10DD4000C46130BCFFF779BC10B5044621461068A9
:10DD5000FFF76AFC02462046BDE810400023D1E7E9
:10DD6000D21D22F00701D1E90023CBE7000000001B
:10DD700030000000034B7B449361034B7B44D36131
:10DD800000F066BBFB4B0800170800002DE9F05FB0
:10DD9000824615468B4600270AF10104B9460078F1
:10DDA000302801D09DB113E014F8010B0127782829
:10DDB00003D0582801D045B10AE00DB1102D07D18C
:10DDC000002714F8010B102502E0082500E00A25C1
:10DDD0000026B0460EE005FB080005FB06F1012712
:10DDE0001FFA80F801EB1046B6F5803F00D3B94624
:10DDF00014F8010B294600F017FB0028EBDABBF101
:10DE0000000F05D00FB1641E00E05446CBF800406F
:10DE1000B9F1000F06D0FEF71DFC02210160C81EFB
:10DE2000BDE8F09F48EA0640FAE700000FB40B0097
:10DE300010B54FF000048AB00FA900910E99CC6084
:10DE4000234C7C44234A7A44CDE9064200D0042383
:10DE50006FF00042CDE901321F4A7A446B460892C6
:10DE60000246002085F083FE0AB010BC5DF814FB6A
:10DE7000F0B507464FF0FF301E4615460C463B46B0
:10DE800085B06A460091CDE9010131460020049039
:10DE900004A8FFF7CBFF04990346601825B109B128
:10DEA000024600E022462A6000290ED0002B02DD47
:10DEB0000099814209D03B466A463146001B0094D6
:10DEC000CDE9010404A8FFF7B1FF05B0F0BD0000E3
:10DED0002B0600004506000011020000C16821F475
:10DEE000001141F08001C160002181600160704734
:10DEF0002DE9F74F15460C464FF0FF3B3848D768E1
:10DF0000D2F814A0074209D05046A96907F09CFD39
:10DF1000002819DB3248C0430740EF604FF000494A
:10DF20006FF000484C4501D3464600E02646009974
:10DF30003B465046324607F08FFDA96920F000426B
:10DF4000B21A1144A96128B12846FFF7C7FF584605
:10DF5000BDE8FE8FA41BE5D10020F9E770B50446AB
:10DF60000569C06A6168884200D80846E16821F402
:10DF70002011E160C90312D5A84208D02246411BF6
:10DF80002846FFF7B5FF10B14FF0FF3070BD0020FD
:10DF9000E562C4E90150E06820F48030E0600020D0
:10DFA00070BD10B50446C06820F02000E060A16A92
:10DFB000A06988420DD02046FFF7D0FFE06820F42A
:10DFC000405040F01000E060A06AA0612069E0626B
:10DFD000606044F24001E0688843E06010BD0000EA
:10DFE0001000020030B5B0F10A0271F100034FEAEF
:10DFF000900E4EEA817EB0EB0E0061EB91014FEA8C
:10E00000101E4EEA017E10EB0E0041EB11114FEA9B
:10E01000102E4EEA016E10EB0E0041EB11214FEA7B
:10E02000104E4EEA014E10EB0E0041EB114140182C
:10E0300041F100014FEAD00040EA41704FEAD101BE
:10E040004FEA810444EA907410EB800544EB01042C
:10E050006D1944EB0404521BA3414FF0000348BF69
:10E060000A3200D530BD401C41F1000130BD10B571
:10E070000446FEF7E7FA0068005D00F0010010BDFD
:10E080002DE9F04F04460D46D21D22F0070089B05D
:10E09000D0E900974846394683F02CF90246F80F3C
:10E0A00001D02D2307E02068810701D52B2302E052
:10E0B000202101EAC0038DF820300BB1012000E0DF
:10E0C0000020032A824601D0072A04DB2946204685
:10E0D00000F054F93FE12078800601D40D2500E0DE
:10E0E000E569C7F30A560D2D49DA00214FEA175B9F
:10E0F00008464FF00000002F00F4400007DA00EB64
:10E1000080004FF4400100EBD07001EA60008115FF
:10E11000012901DD4FF0FF3100224FEA850CBCF1EF
:10E12000180F06D31346ACF118004FF08052C240CE
:10E1300003E04FF4801323FA0CF30CF10C0CBCF148
:10E14000200F04D3ACF1200C09FA0CF001E007FA1F
:10E150000CF000294FF0004801DD18B90FE00ED196
:10E1600040450CD319EB02095F4121B9404502D16A
:10E170009F4329EA0209BBEB175F00D0761C208879
:10E18000000502D57B48784402E07A487844193883
:10E1900008AA302302F80A30037C0AF10101002E9C
:10E1A0000AF1020A53546A4602DC4FF0300101E0E2
:10E1B0004FF031014FF001088DF8001002D0A6F2A7
:10E1C000FF3603E059EA470100D06B4E002D02DC18
:10E1D0002178090704D54FF002082E218DF801108F
:10E1E000C44600210BE0C7F303433F01C35C491C55
:10E1F0006D1E02F80830052908F1010801DA002D2A
:10E20000F1DC00210CE000EB1973491C1B786D1E3A
:10E21000082902F808304FEA091908F1010801DA63
:10E22000002DF0DC21688B0602D516E0A8F101086C
:10E23000E04505DD02EB080313F8013C302BF5D077
:10E24000B8F1000F09DD02EB080313F8013C2E2B97
:10E2500003D1090701D4A8F10108002D05DD3E21F5
:10E2600002F808106D1E08F10108407C002E02F82B
:10E27000080008F1010804DA2D20764202F80800AF
:10E2800002E02B2002F808000A214FF47A7086423F
:10E2900008F101080BDB96FBF0F3303302F808308D
:10E2A00096FBF0F308F1010800FB136601E0642E11
:10E2B0000CDB642096FBF0F3303302F8083096FB59
:10E2C000F0F308F1010800FB136601E00A2E06DBFB
:10E2D00096FBF1F0303002F8080008F1010896FBD7
:10E2E000F1F001FB1060303002F80800A16908F17C
:10E2F000010808EB050202EB0A00081AA061207869
:10E30000C00602D42046FEF7C1FA216A08AE01EB2E
:10E310000A00206204E0D4E9012116F8010B9047BD
:10E32000BAF1010AF7D22078C00602D52046FEF7DE
:10E33000ADFA6E4609E016F8010B3E280FD0D4E97D
:10E3400001219047206A401C2062B8F10108F2D2F6
:10E350002046FEF7B1FA09B00320BDE8F08F206A2D
:10E360002844206203E0D4E90121302090476D1E4B
:10E37000EBD3F8E7615B080002FCFFFF2DE9F041F9
:10E380001F46044603260168072A01F4006004DBE7
:10E3900008B116A505E016A503E008B115A500E033
:10E3A00015A521F010002060A069C01EA0610FB16A
:10E3B000401EA0612046FEF769FA4FB1D4E9012161
:10E3C00038469047206A401C2062C01C206206E04C
:10E3D000206AFAE7D4E9012115F8010B9047761E6F
:10E3E000F8D22046FEF768FABDE8F0814E414E00B3
:10E3F0006E616E00494E4600696E660010B5436955
:10E4000013B1AFF3008001E0FFF7E0FB012010BD86
:10E41000128800F1240182840022C2840122EDE7E7
:10E4200011684FF0FF32E9E73A2800D2303820F087
:10E430002002412A01D3A2F13700884201D34FF0D4
:10E44000FF30704702681144137801601846704726
:10E45000D160054979445161044979441162002130
:10E460001161114600F0B6BBEDFFFFFF11FCFFFF8D
:10E47000426842B1016811F8013B23B1521EC0E964
:10E480000012184670470121C160881E704742681B
:10E490005AB1C368016843B983688B4205D0491EED
:10E4A000521CC0E90012002070474FF0FF30704747
:10E4B0002DE9F047814616468AB0354878440DC8A4
:10E4C0008DE80D0032487844801C03AC0DC884E808
:10E4D0000D0041F69B300844372190FBF1F290FB90
:10E4E000F1F5A5F1800501FB12041B3C02D5644245
:10E4F000012000E00020DFF898A080460027FA44C1
:10E50000AAF1BE0A0EE0E0070AD03246684607EBE1
:10E51000470101230AEB810182F0A0FD8DE807008D
:10E5200064107F1C002CEED1194F7F44AE3F19E0E0
:10E53000E80715D007EB04100DF1180A90E80E005B
:10E540008AE80E00C068F04201D19819089032465E
:10E55000012306A903A882F081FD03AB83E807002D
:10E560006D10641C002DE3D14FF001033246694663
:10E57000B8F1000F03A802D082F046FD01E082F05E
:10E580006DFDC9E90001C9F808200AB0BDE8F087AF
:10E59000BC580800704710B54FF0FF34C1688A02BC
:10E5A0000FD5036B42689A420BD1014690F82520A3
:10E5B000104600F069FF401C01D1204610BD00202C
:10E5C00010BD11F0C00FF8D1026941689142F4D931
:10E5D0000268491E521CC0E90021F0E770B50D46E3
:10E5E00001461446D36850692A4607F0D9F9002835
:10E5F00007DA411C07D0E16820F0004041F4804177
:10E60000E160281A70BD2046FFF768FC4FF0FF302C
:10E6100070BDC1680022026021F4805141F04001C8
:10E6200011F4C06FC16001D0826070470269416817
:10E63000891AC269891A816070472DE9F05F044622
:10E640008946C06840F4800010F4C06FE06008D0D4
:10E65000204601F031F82068002802DD401E2060CD
:10E6600033E0E068010312D520F40020E060810669
:10E6700006D4E26A61688A4200D80A46511A2160CB
:10E6800040F40010E06094F82500BDE8F09F20F40D
:10E690000010E060800602D52046FFF782FCE068AB
:10E6A00042F281014FF0FF3A0140012903D0204698
:10E6B000FFF714FCB0E02168002600290ADAC943FC
:10E6C00040F480502160C4E902606068411C6160D0
:10E6D0000078DAE744F2400108420CD020F4A04070
:10E6E00040F040002660E06021696068401AE169FE
:10E6F000401AA06090E0216991B9C00310D4E0698C
:10E700004CF0BCFA2061B0B1E06840F4006010F455
:10E71000407FE06002D140F48070E060206960607A
:10E72000E068D4F814B0C1061AD5C0030ED520464F
:10E73000FFF714FC14E004F1240020610120E061E3
:10E74000E06820F4407040F48060E6E7216960688A
:10E75000401AA1690144584607F076F90028A6DB63
:10E76000E068C0032BD56168E06A884200D808469B
:10E770002169451AE069471B1CD02046D4F818804F
:10E78000FFF7ECFB08EB05015846C4F8188007F0CA
:10E790005BF900288BDBE068B9F1000F40F4003032
:10E7A000E06002D0A0692844A061E1692069C91B2A
:10E7B00045180DE02046FFF7D1FBE769F5E725692D
:10E7C0006168D4E90607491BE56208446560A061F9
:10E7D000E068B9F1000F20F0100040F48050C4E967
:10E7E000026005D02069E06260606FF001004CE7D4
:10E7F000224639462846FFF7F1FE411C0CD0291865
:10E80000E16258B1401E2060681C6060E06840F41E
:10E810000030E060287838E7504636E765602046EB
:10E82000FFF7F7FEF8E72DE9F05F054617460C46BF
:10E83000C86820F4201040F48000C860800602D52B
:10E840000846FFF7AEFBE06841F282014FF0FF3A65
:10E850000140022903D02046FFF740FBB9E000F455
:10E860002041B1F5004F0FD1C00306D56168E06AC1
:10E87000884200D80846606006E02069E062606077
:10E88000606907F03BF8A061A0680022EEB20028A2
:10E890000DDAE1688B050AD4C043A06041F49030E2
:10E8A0002260E0606068411C61600670AAE0E06878
:10E8B0009146226040F40050E060206978BB6069B6
:10E8C00007F028F804F124054FF00108A8B1A08949
:10E8D00010F4407F08D0E0694CF0D0F9206118B105
:10E8E000E06840F4006017E0C4F81C802561E0682F
:10E8F00020F4407040F480600EE0E0694CF0BEF916
:10E9000000282061F0D0E06840F4006010F4407FFF
:10E91000E06002D140F48070E06020696060E068EF
:10E9200025696FF0010BC1051ED56168E06A884258
:10E9300000D80846411B04D022462846FFF7D8FAE3
:10E94000E8BB1FB1E562C4E9015959E0681CE06207
:10E950006060E069401EA060E06840F48030E060E4
:10E9600030462E70BDE8F09F17B100F480320AE007
:10E970006068411C61600670E0680A2E40F48030D7
:10E98000E06006D00022E16A6068814203D90B464C
:10E9900002E00122F7E70346B4F80CC05B1B5FEA14
:10E9A0004C5C04D4D4F81CC09C4500DD02B3814209
:10E9B00000D80146002BA1EB0008E56200E008E06A
:10E9C000C4E9015907DD224619462846FFF790FAA7
:10E9D00008B15046C6E7B8F1000F09D0A169E56259
:10E9E0006560A1EB0800A061E06840F01000E06005
:10E9F00047B16168A069E562491B08446560A06190
:10EA00005846AFE73046ADE710B542485421FEF70F
:10EA100057FD41485421FEF753FD40485421FEF76D
:10EA20004FFD3F493B483C4A3F4B08603D490A6027
:10EA30003A491960531C0365481C1065012008659C
:10EA40003B48344A39A17844FEF774FA20B9384873
:10EA500078440A3800F051FE37482F4A35A17844EF
:10EA6000FEF768FA20B9344878440A3800F045FEC9
:10EA700032482A4A2FA17844FEF75CFA20B92F4881
:10EA800078440A3800F039FE40232248DC00002197
:10EA9000224600F0D5FC20B125487844543800F0D7
:10EAA0002CFE1D4822464023002100F0C9FC20B165
:10EAB00021487844543800F020FE1848224610239C
:10EAC000002100F0BDFC002806D01C487844BDE8B9
:10EAD0001040563800F011BE10BD104870B5006DE2
:10EAE00020F001040B48FEF79DFA0B48FEF79AFA56
:10EAF0000A48FEF797FA09E0206D20F0010520464C
:10EB0000FEF790FA204621F0A3FD2C46002CF3D10D
:10EB100070BD0000442A0020982A0020EC2A002022
:10EB20000000002004000020080000207200000007
:10EB30005D570800770000004B5708002657080073
:10EB40002DE9F04116460C460546FDF77BFD0368AE
:10EB500093F80101012807D0FF2C12D8185D80B16D
:10EB600001202C70BDE8F081D3F807013246214620
:10EB700003F20713C7182846BC46BDE8F04100233E
:10EB800060474FF0FF30EDE77546FEF72FFDAE46CC
:10EB900005006946534620F00700854618B020B5A9
:10EBA000FDF73AFDBDE820404FF000064FF00007AA
:10EBB0004FF000084FF0000BAC46ACE8C009ACE8E1
:10EBC000C009ACE8C009ACE8C00921F007018D46D6
:10EBD000704700002DE9F34F4FF0000A0C465646EF
:10EBE0008DB001200C9001F10C000B9062690B9824
:10EBF00001219047051E2DD0252D2CD0216A884754
:10EC0000C0B162690B9801219047216A88470028AA
:10EC1000F7D16269411E0B98904700E0761CA1690C
:10EC20000D988847216A88470028F7D1E1690D9837
:10EC30008847DBE7A1690D988847A842074601D1BC
:10EC4000761CD3E7E1690D9888477F1C02D1BAF1A1
:10EC5000000F6FD06BE162690B9800273D46394683
:10EC600090472A2804D162690B9801219047012519
:10EC7000DFF8D08262690B9801219047A0F1300142
:10EC80000A290AD24745E5DC07EB870100EB41077B
:10EC9000303FDFD445F01005ECE7E90601D46FF012
:10ECA00000476C280AD04C2814D0682815D06A2850
:10ECB0000DD074281CD07A281AD01DE062690B98F8
:10ECC000012190476C2802D045F0040514E045F07E
:10ECD00002050DE045F020050AE062690B9801216C
:10ECE0009047682802D045F0080505E045F4006526
:10ECF00062690B9801219047C4E9015765283DD00E
:10ED000019DC58287AD00CDC452837D004DC2528BB
:10ED100026D041289ED131E046282FD0472899D1CE
:10ED20002CE05B2877D0612828D063287CD0642829
:10ED300023D15AE0F6E06F2848D008DC66281DD0C1
:10ED400067281BD0692821D06E2816D127E07028AB
:10ED500045D0732868D0752847D078280DD14DE06C
:10ED6000A1690D988847252805463FF469AFE169F8
:10ED70000D9888476D1C3FF46AAFD8E00D99234683
:10ED80006A466FF0010084F0F2FEC5E045F04000F5
:10ED900023464FF000026060A80736D43EE0E80743
:10EDA0007FF447AF2068011D21600068290501D567
:10EDB00006701BE7290701D5068017E7A90703D5C9
:10EDC000F117C0E9006111E706600FE745F0400068
:10EDD00023464FF008026060A80716D41EE040F6F4
:10EDE0000E0125EA0100606016E045F04000234670
:10EDF0004FF00A026060A80707D40FE045F040001A
:10EE00006060A80708D5234610220D996FF0010015
:10EE1000AFF3008080E007E0102223460D996FF0E9
:10EE20000100AFF3008077E04FF0000963284F4600
:10EE3000C8464B46CB4602D05B2806D038E0E806F1
:10EE400001D40120A060012732E06269D4F80CB03F
:10EE50000B98012190475E2807D14FF001094946E0
:10EE60006269D4F80CB00B989047216939B9002138
:10EE70000A4603AB43F82120491C0829FADBD8B322
:10EE8000216949B308F1010862690B980121904793
:10EE90005D28F4D1B9F1000F09D0002003A951F881
:10EEA0002020D24341F82020401C0828F7DB03AB88
:10EEB0002069002820794FEA40701ED05B46224628
:10EEC000CDF80080CDE901970D9900286FF0010081
:10EED00020DAAFF300801FE0C11703AA00EBD16175
:10EEE0004B1121F01F0102EB8302411A136801202C
:10EEF000884003431360C7E719E00D9922460028B4
:10EF00006FF00100009702DAAFF3008004E0FDF734
:10EF100067FE01E0AFF3008000280ADA401C06D14A
:10EF20000C9820B14FF0FF300FB0BDE8F08F504685
:10EF3000FAE7E90701D10AF1010A064400200C9022
:10EF400054E60000CCCCCC0C2DE9FF4F06468BB02C
:10EF50000878FF2806D0491C2D2805D000244FF042
:10EF6000000908E000200CE00124F8E709EB890320
:10EF7000491C00EB43090878FF28F7D114B1C9F107
:10EF800000008146107800252C46AA4629462D28E7
:10EF900001D02B2804D1521C2D2813D000208246EA
:10EFA0008B461078FF280FD04FF0000C0A21521C1E
:10EFB000A5FB017804FB018105FB0C11C5194BEB86
:10EFC0000104EEE70120EAE7002108464FF00000C7
:10EFD000BAF1000F02D000EB80004008C0F3815767
:10EFE000012F01DD4FF0FF370E9955EA040009EBC0
:10EFF00001080BD04FF0020918F5FA7F16DA4FEA34
:10F00000CA70002F706008DD012007E04FEACA7067
:10F01000C6E900B00FB0BDE8F08F00203060FDF70A
:10F0200019FBC0F800901821084616E0B8F5FA7FE1
:10F0300018DD002F02DAF748784401E0F6487844FA
:10F04000D0E90010C6E9001040EACA707060FDF710
:10F0500001FBC0F80090142108460FB0BDE8F04F46
:10F0600084F0BDBC002108464FF00000B8F100015B
:10F07000099002DAC7F1000200E03A4601DAC8F16D
:10F08000000106A8FFF714FA06AB93E8070003ABEC
:10F0900083E8070044F23E005BEA04010090584612
:10F0A00004D144F21E012C465D460091210C090456
:10F0B000014306D10099240444EA15442D04103973
:10F0C000009104F07F41014306D10099240244EAF3
:10F0D00015642D020839009104F07041014306D1F6
:10F0E0000099240144EA15742D01091F009104F0D0
:10F0F0004041014306D10099A40044EA9574AD0053
:10F10000891E009104F00041084304D100986D1954
:10F110006441401E00904FF001033A466846B8F142
:10F12000000FCDE9014503A902DD81F0ACFF01E04C
:10F1300081F07FFFBAF1000F04460D4601D084F044
:10F140000044002108464FF00000099940F2FF7783
:10F15000484010F00C0F07D124F00040284303D0A2
:10F16000C4F30A50B84212D1FDF774FAC0F8009007
:10F17000C4F30A50B8420AD1A8487844D0E9001034
:10F18000C6E9001004F000410843706042E7C6E998
:10F1900000543FE72DE9FF4F1F464FF0000A4FF0A4
:10F1A000FF38454691B0D7E90146CDF83CA0FEF7BF
:10F1B00023FAC0680168405C1090B96912986D1C10
:10F1C0008847396A814688470028F6D1B9F1FF3F60
:10F1D0000AD0002E24F4D06411DDB9F12B0F08D031
:10F1E000B9F12D0F0BD102E0404615B013E744F4FE
:10F1F0008064B96912986D1C8847761E8146600547
:10F2000004A901D52D2000E02B20002E01F1010BD7
:10F210000DF130088DF810003FDDB9F1690F08D00D
:10F22000B9F1490F05D0B9F16E0F02D0B9F14E0F07
:10F230001CD13B4601A8009580E85002DDE912127E
:10F240006FF0020084F097FCC11CCED10EE0B969CA
:10F2500012986D1C884781461398761E44F40074FA
:10F2600005600F98401C002E0F9016DDB9F1300F8D
:10F27000EDD0B9F1780F02D0B9F1580F0DD10F9838
:10F2800001280AD13B46CDE90054DDE91212001FE6
:10F29000029684F06EFCC11CA7D1109989453ED11D
:10F2A00044F0800406E01399681CAAF1010A44F4B2
:10F2B00000740860B9696D1C1298761E8847302862
:10F2C0008146F0D02BE01099894505D1200603D462
:10F2D000761E44F0800418E0484683F030FB08B303
:10F2E000761E0DF123029345A9F1300044F4007419
:10F2F00006D20BF8010B200607D5AAF1010003E0A6
:10F30000200602D40AF101008246A00502D5139915
:10F31000681C0860B96912986D1C88478146002EE8
:10F32000D1DC53E0002E51DDB9F1650F02D0B9F107
:10F33000450F4BD1A00549D5B9696D1C1298761EB1
:10F3400024F440748847002E81460CDD2B2804D01D
:10F35000B9F12D0F07D144F48074B96912986D1C6E
:10F360008847761E8146E00501D52D2100E02B213E
:10F3700008F8011BCDF8008021E0761E0DF139015F
:10F38000884544F400740CD2A9F1300010F0FF005D
:10F3900088F8000002D10099884509D908F10108D0
:10F3A00006E0E00501D51E4801E042F20F708246FA
:10F3B000B96912986D1C8847814613980560002E24
:10F3C00004DD484683F0BBFA0028D6D1F9691298CB
:10F3D0008847FF2053468BF8000088F80000002083
:10F3E0000A900B9004AA0CA90AA8FFF7ADFDA0058E
:10F3F00002D46FF00100F8E614F0240F12D0E007F9
:10F400001CD13868DDE90A12031D3B600068C0E9C1
:10F41000001213E0E4051E00D6051E009A041E002B
:10F42000F1D8FFFF0AA9684683F076FAE00705D114
:10F430003868009A011D3960006802602846D4E6E9
:10F4400070B5C468A50713D0650211D4B2F5807FEA
:10F4500009D0B2F5007F06D0B2F5806F08D1012344
:10F4600000F1240106E05D1E6FF07F46B54201D336
:10F47000012070BD0161C361416024F470611143DA
:10F48000C160002070BD0000CA68431C0FD00D4B46
:10F490001A420CD1D3070AD081F825004B680B63C0
:10F4A00000238B6012F0C06F0B6003D004E04FF0BC
:10F4B000FF30704742F00072034B1A40034B1A436F
:10F4C000CA60704780200800BFFFDFFF00104800BF
:10F4D0002DE9FF5F1C468B460746080061D00025DA
:10F4E0000299284626680BFB01F95EE0002E5EDCDF
:10F4F000E06948453FDABAF1000F3CD0207B800636
:10F5000001D5A06A04E0A169606808442169401A35
:10F510002246A9EB050180463846FFF75FF8002830
:10F5200012DD8044A8F101010744A161226917F8A6
:10F53000011C0026054411702169491CE1626160CB
:10F54000E16841F40031E160411C03D010B1207B3F
:10F55000400640D52046FFF75CF8C4F818802069C3
:10F560006060E062E068266020F40030E060E069FE
:10F570004042A06013E0484501DA012100E000218B
:10F580002046FFF75AF8411C08D0811C0CD0266891
:10F59000002809DB6D1C07F8010B1CE02660B5FB99
:10F5A000FBF004B0BDE8F09F0120824613E0A9EB18
:10F5B0000500B046B04200DA8046384642466168EF
:10F5C000FDF798FE6168A6EB0806474401EB0800CA
:10F5D000C4E9006045444D4588DB26600298E0E7B9
:10F5E0002DE9FF5F8B461C468246029D05FB0BF50D
:10F5F000E5B1D4F8088057464FF00009B8F1000093
:10F6000044DCE069A84227D2B9F1000F24D0224699
:10F6100029463846A669FEF76BFC58B1C4F8088045
:10F62000A069801B3844A0EB0A0129E0002004B047
:10F63000BDE8F09FE16811F4C06F01D0002008E040
:10F6400022696068801AE269101AC903A06001D4B7
:10F650004042A0600298EAE7A84201D2012200E0FD
:10F66000002221463878FFF7DEF8411C06D0D4F896
:10F670000880002807DB6D1E7F1C17E0A7EB0A013E
:10F68000B1FBFBF0D3E74FF001090FE0A8420646BB
:10F6900000D92E46394632466068FDF72BFE606879
:10F6A000AD1BA8EB0608304437446060002DA5D19F
:10F6B000C4F80880CEE7000070B5054640F2022687
:10F6C0000A4C0FE094F85000C00708D0AC4206D0B6
:10F6D000E06836EA000002D1204600F029F8206DEB
:10F6E00020F00104002CEDD170BD0000442A002060
:10F6F000002801D006F0FCB8704710B500F064F89F
:10F70000BDE81040FFF7F4BFB2F120030AD5C2F103
:10F71000200301FA02F120FA03F341EA030100FA9F
:10F7200002F0704700FA03F14FF00000704700004C
:10F7300070B50446C068810713D0800601D5A56A5C
:10F7400004E0A169606808442169451A2046FEF773
:10F7500005FC0022064629462046FDF737FB3046C9
:10F7600070BD002070BD70B510B1BDE87040DFE71E
:10F770000025074C6E1E07E02046FFF7D9FF00B1B9
:10F780003546206D20F00104002CF5D1284670BDCF
:10F79000442A002070B505460C460A2000E06D1C86
:10F7A00006F05EFF35B128780028F8D102E0641C2D
:10F7B00006F056FF14B120780028F8D1BDE870405B
:10F7C0000A2006F04DBF000010B5014602A0FFF769
:10F7D000E1FF012010BD00005349475254524544F7
:10F7E0003A2052656469726563743A2063616E27DA
:10F7F00074206F70656E3A20000000002DE9FF4F05
:10F800001F464FF03C0987B04FF00042DDE914106D
:10F8100001F10108DDF858A002EA405003900020F1
:10F8200005908346054604460490B969461E08982B
:10F830008847AAF1010A0290BAF1000F3BDD029855
:10F840002E2815D01021FEF7EFFD00282EDB4FF0FB
:10F85000010B0599014317D0B9F1000F0BDB4A46A4
:10F86000C117FFF751FF05430C43A9F1040905E057
:10F87000012004900BE008B145F00105012005903E
:10F88000049820B9361D02E0049800B1361FB9690A
:10F89000089808F101088847BBF1000FAAF1010A96
:10F8A0000290C9D00999C1F80080C5E70298702874
:10F8B00008D0502806D0F96908988847BBF1000F96
:10F8C00014D04FE0002002900120BBF1000F049003
:10F8D00009D0B969089808F101088847AAF1010917
:10F8E000B9F1000F07DCF969089888476FF001004B
:10F8F0000BB0BDE8F08F2B2804D02D280CD14FF091
:10F90000FF300490B969089808F101088847A9F107
:10F910000109B9F1000FE6DD411CE4D00A21FEF730
:10F9200083FD0028DFDB029908F1010801EB81016A
:10F9300000EB41000290B969089888470A21FEF758
:10F9400073FD099AA9F10109B9F1000FC2F800800D
:10F9500001DD0028E7DAF9690898884704990298D8
:10F9600000FB016655EA040004D004F040410900A0
:10F9700002D006E0039898E0A40044EA9574AD0034
:10F98000B61E04F00041080002D16D196441761ED4
:10F99000159810F0240F03D04FF00B095C4803E0DA
:10F9A0004FF028096FF07D008246564507DAAAEB32
:10F9B00006018944B9F1410F01DD4FF041090120F1
:10F9C0000021A9F10102FFF79FFE024628400B46E5
:10F9D0002140084301D0012100E00021501E029186
:10F9E00043F1FF3128402140084301D0012000E0CD
:10F9F00000200299834651EA0B014FD000210846AE
:10FA00004FF00000039900F4400039B100EB800092
:10FA10004FF4400100EBD07001EA6000801501282E
:10FA200002DD4FF0FF3000E013D0401C36D00298CA
:10FA300060B3BBF1000F0CD14A4601200021FFF753
:10FA400063FE28402140084301D0012000E000204F
:10FA5000E0B101204A460021FFF756FE0346401957
:10FA60000A4661412D1A8C4111D3B9F1400F09DDCD
:10FA7000159810F0240F02D0AAF1340603E0AAF181
:10FA8000170600E0761C00254FF0004406E05B1EE0
:10FA900042F1FF3220EA030521EA0204CAF1010023
:10FAA000B04206DA1B4903980843019000200090F9
:10FAB0000EE0039AC4F3D321E80A0A43164940EA48
:10FAC00044500A433146CDE90002684682F02DFFDA
:10FAD000159810F0240F0BD01598C00715D1386871
:10FAE000DDE90012031D3B600068C0E900120CE074
:10FAF00002A8694682F010FF1598C00705D1386842
:10FB0000029A011D3960006802604046F0E600007C
:10FB100002FCFFFF0000F07F0000F03F2DE9FF4FE7
:10FB200092461D4685B04FF00041DDE9124BDDE9FC
:10FB300014727F1E01EA4B50414940F0FF4940EAF0
:10FB40000108002122F020004928049102D04E280B
:10FB500028D04CE03BA0012607C88DE80700A96922
:10FB60000698641C88477F1E014606D41DF80600CF
:10FB700018B121F0200181420BD0E969069888472D
:10FB8000032E34D0082E32D06FF0010009B0BDE84A
:10FB9000F08F761C032E01D0082EE0D1601CCAF82D
:10FBA0000000DCE7A9690698641C88477F1E2AD4F8
:10FBB00020F02000412826D1A9690698641C8847B6
:10FBC0007F1E20D420F020004E281CD1A969069861
:10FBD000641C88477F1E48F4002849F48009CAF84D
:10FBE000004001D4282806D0E969069888475FEAD2
:10FBF000CB7012D022E0A9690698641C88477F1E4A
:10FC000001D4002803DAE96906988847BCE7292867
:10FC1000F1D1641CCAF80040E9E71BF0240F07D0BB
:10FC200028680499031D2B600068C0E9001805E0EE
:10FC30002868021D2A600068C0F800902046A5E7E9
:10FC40000000F07F494E46494E49545900000000DB
:10FC500080B559F0A5FC002080BD0000FEE7000043
:10FC600000F010B980B500F079F84FF62720C0F603
:10FC70000C00BDE8804054F08FB8000000F0B8B828
:10FC800000F0BAB900F0FEB880B500F067F84FF6A2
:10FC90002720C0F60C00BDE8804054F07DB800007D
:10FCA00000F0A6B800F0A8B9B0B142F64430C2F2F4
:10FCB0000000016801316429016016D346F200405A
:10FCC000C4F20000016841F001010160016821F007
:10FCD000010101600020704742F64C30C2F2000082
:10FCE0000168013163290160E8D8002070470000F5
:10FCF000F0B581B043F2503642F64032C2F200060F
:10FD0000C2F20002B189136846F60005C4F200058C
:10FD10008B4238BF11600446284612210BF064FE66
:10FD2000B089A0B13768B168B26907F11003013832
:10FD30008B4238BF1A46B0812846122132600BF040
:10FD400059FE97E80F000FC4002001B0F0BD28460F
:10FD500012210BF04FFE042001B0F0BD2DE9F0435D
:10FD600081B046F20C44C4F20004206880073BD006
:10FD700043F2503546F2BC5846F2B85946F2B456F2
:10FD800046F2B057C2F20005C4F20008C4F20009FE
:10FD9000C4F20006C4F200071CE000BF6868D8F88F
:10FDA0000010C160D9F80010816031684160396885
:10FDB00040F8101BA968AA69884238BF0246A88982
:10FDC0006A600130A881206840F02000206020682F
:10FDD000800709D0A889E9898842DFD329690029E9
:10FDE000F1D068698847EEE701B0BDE8F083000014
:10FDF0002DE9F04381B046F21044C4F200042068BB
:10FE000080073BD043F2503546F2CC5846F2C859F1
:10FE100046F2C45646F2C057C2F20005C4F20008CA
:10FE2000C4F20009C4F20006C4F200071CE000BFDF
:10FE30006868D8F80010C160D9F800108160316896
:10FE40004160396840F8101BA968AA69884238BF28
:10FE50000246A8896A600130A881206840F020002D
:10FE600020602068800709D0A889E9898842DFD30B
:10FE700029690029F1D068698847EEE701B0BDE83B
:10FE8000F083000046F21840C4F20000042140F85C
:10FE9000141C016811F0700118BF702941D101686C
:10FEA00049070DD54FF6F061C2F204010A6801322C
:10FEB0000A6001684FF6FB72CFF6007211400160D4
:10FEC000016889070DD54FF6F461C2F204010A6892
:10FED00001320A6001684FF6FD72C0F2FF02114064
:10FEE00001600168C9070AD04FF6F861C2F2040147
:10FEF0000A6801320A60016821F0010101600168AD
:10FF000001F47F01B1F5202F98BF7047016821F4FB
:10FF10007F01016040F20111C0F2010140F8101CA4
:10FF200070474FF6FC61C2F204010A6801320A60B0
:10FF3000016841F070010160B1E7000070B543F263
:10FF40006C46C2F20006B18946F600040546C4F2CA
:10FF5000000439B342F64830C2F2000002688A4217
:10FF600038BF0160204601210BF03EFDB089F189C8
:10FF7000884211D270682ECD016042608360C560F6
:10FF8000B1681030B269884238BF0246B0897260E9
:10FF90000130B081002528E0316929B370698847B4
:10FFA000054622E04FF60840CFF6FF702058C0F318
:10FFB00082600028D6D048F2E471C0F60901085CDE
:10FFC000D5E9003204EB0010A0F520714A60AA6860
:10FFD0008A60EA68CA604FF6805243F00101CFF6AA
:10FFE000FF728150002070BD0825204601210BF0D2
:10FFF00001FD284670BD000043F26C40C2F20000D3
:020000040801F1
:100000008189002946F20841C4F200012BD00A6818
:10001000C2F38262002A08BF704710B548F2E47349
:10002000C0F609039A5C036801EB021193E80450DF
:10003000DC68C1F87821C1F87CC1C1F880E1C1F861
:10004000844103F11002836884699A4238BF1446E0
:1000500082890460013A8281D1F8780140F0010080
:10006000C1F8780110BD40F20110C0F20100086033
:100070007047000010B546F20044C4F20204204666
:100080000621202214F0B8FC002808BF10BD20462D
:100090000621202214F094FC40F20450C2F2080021
:1000A0000421BDE8104053F06DB9000010B546F2D0
:1000B0000004C4F2020420460121202214F09CFC1A
:1000C000002808BF10BD20460121202214F078FC32
:1000D00040F29C40C2F208000421BDE8104053F0F9
:1000E00051B9000010B546F20004C4F202042046E3
:1000F0000321202214F080FC002808BF10BD2046F8
:100100000321202214F05CFC40F2CC30C2F2080043
:100110000421BDE8104053F035B9000010B546F297
:100120000004C4F2020420460421202214F064FCDE
:10013000002808BF10BD20460421202214F040FCF6
:1001400040F23440C2F208000421BDE8104053F0F0
:1001500019B9000010B546F20004C4F202042046AA
:100160000621202214F048FC002808BF10BD2046BC
:100170000621202214F024FC40F26430C2F2080070
:100180000421BDE8104053F0FDB8000010B546F260
:100190000044C4F2020420460721202214F02CFC63
:1001A000002808BF10BD20460721202214F008FCBB
:1001B00040F2FC20C2F208000421BDE8104053F0D8
:1001C000E1B800007047000080B553F0A3FD0120A6
:1001D0001AF0DCFE50B141F69070C2F20000816866
:1001E00009B1C068884701201AF0CAFEBDE8804006
:1001F00053F0BABD10B553F08DFD4FF480601AF086
:10020000C5FE41F69074C2F2000448B1D4F8A810BB
:1002100011B1D4F8AC0088474FF480601AF0B0FEFA
:100220004FF400601AF0B2FE48B1D4F8B81011B122
:10023000D4F8BC0088474FF400601AF0A1FE4FF4D8
:1002400080501AF0A3FE48B1D4F8C81011B1D4F808
:10025000CC0088474FF480501AF092FE4FF40050C3
:100260001AF094FE48B1D4F8D81011B1D4F8DC00DB
:1002700088474FF400501AF083FE4FF480401AF084
:1002800085FE48B1D4F8E81011B1D4F8EC008847E5
:100290004FF480401AF074FE4FF400401AF076FEDE
:1002A00048B1D4F8F81011B1D4F8FC0088474FF4E5
:1002B00000401AF065FEBDE8104053F055BD000047
:1002C00080B553F027FD02201AF060FE50B141F6D0
:1002D0009070C2F20000816909B1C06988470220AC
:1002E0001AF04EFEBDE8804053F03EBD80B553F09D
:1002F00011FD04201AF04AFE50B141F69070C2F28E
:100300000000816A09B1C06A884704201AF038FEEB
:10031000BDE8804053F028BD80B553F0FBFC0820B9
:100320001AF034FE50B141F69070C2F20000816BB9
:1003300009B1C06B884708201AF022FEBDE8804052
:1003400053F012BD80B553F0E5FC10201AF01EFEEC
:1003500050B141F69070C2F20000816C09B1C06CDE
:10036000884710201AF00CFEBDE8804053F0FCBC1A
:1003700010B553F0CFFC20201AF008FE41F690741F
:10038000C2F2000430B1A16D09B1E06D88472020B0
:100390001AF0F6FD40201AF0F9FD30B1A16E09B156
:1003A000E06E884740201AF0EBFD80201AF0EEFD49
:1003B00030B1A16F09B1E06F884780201AF0E0FDED
:1003C0004FF480701AF0E2FD48B1D4F8881011B1F2
:1003D000D4F88C0088474FF480701AF0D1FD4FF4A8
:1003E00000701AF0D3FD48B1D4F8981011B1D4F8C8
:1003F0009C0088474FF400701AF0C2FDBDE8104021
:1004000053F0B2BC2DE9F041466C04462EB942A02F
:1004100045A140F2CF3251F063F940F20438C0F206
:100420000408306808F101117EF012FB60B13068F9
:1004300005217EF0EDFA38B12046012152F0A2FFED
:10044000306805217EF0D8FA306842F20401C2F229
:100450000B217EF0FDFA002845D0306842F20B21D6
:100460007EF0D6FA00283ED0306842F20B217EF0B2
:10047000C3FAF06A96F8321014F0B6FB43F29841D2
:10048000C2F200010860274637F8510FB97840EAF8
:10049000014096F83210C0F38F05F06A14F0A4FB07
:1004A000291A43F29C40C2F2000001600168726B9D
:1004B0008B1A43F29441C2F200010B6003689A4226
:1004C00009D9BB783F8847EA034307689B08BA1AF3
:1004D00012FA83F20A600068706308680002C11CA7
:1004E000204652F04FFF306841467EF0B1FA88B1A5
:1004F000306804217EF08CFA002808BFBDE8F08146
:10050000306805217EF084FA30687EF053FA606C22
:1005100001210187BDE8F0817561727420213D20C1
:1005200052545F4E554C4C00474433325F55415254
:10053000545F49525148616E646C6572000000005E
:1005400080B5022027F022FB00B34BF20000C4F27A
:1005500002000168890558BF80BD016821F400715F
:100560000160022027F00AFB40F22030C2F20500B1
:10057000017801290AD10021017040F2D420C2F291
:1005800005000068BDE8804033F05ABA80BD000025
:1005900080B5492054F026FEB0FA80F0400980BDB5
:1005A00080B5252054F01EFEB0FA80F0400980BDD1
:1005B00080B5072054F016FEB0FA80F0400980BDE7
:1005C00080B54A2054F00EFEB0FA80F0400980BD9C
:1005D00083B02DE9F0418BB0804611A809AD0EC063
:1005E000284661F0B5FD28462FF01EFED0E90075C3
:1005F000D0E90264D0E90401431C05A801F26C7241
:100600004FF2EE21C0F60C010094FCF709F94FF20D
:10061000FE2101A8C0F60C0132462B460097FCF7DC
:10062000FFF84EF61450C2F207004FF0FF3154F0BD
:1006300035FB4FF480704AF021FB002843D04FF483
:1006400080710546FCF71AFF2846FCF7DFFD45F6EA
:100650001B32C3F6330229182A5043F23B50C3F22F
:100660003B10486043F23240C0F26D0005AE886036
:100670003046FCF7CBFD024628463146FCF739FDF3
:1006800001AE3046FCF7C2FD024628463146FCF773
:1006900030FD4046FCF7BAFD024628464146FCF7CD
:1006A00028FDFCF7B3FD45F61B32C6F6305229187B
:1006B0002A500A20888011A928460A91FCF780F860
:1006C00028461FF0C5FF4EF61450C2F2070054F042
:1006D000EDF90BB0BDE8F04103B0704783B02DE9F0
:1006E000F0418BB0804611A809AD0EC0284661F0DC
:1006F0002FFD28462FF098FDD0E90075D0E902645F
:10070000D0E90401431C05A801F26C724FF2EE21FE
:10071000C0F60C010094FCF783F84FF2FE2101A80B
:10072000C0F60C0132462B460097FCF779F84EF6DE
:100730001450C2F207004FF0FF3154F0AFFA4FF4FB
:1007400080704AF09BFA002844D04FF4807105462F
:10075000FCF794FE2846FCF759FD45F61B32C3F61C
:10076000330229182A5043F23B50C3F23B20486021
:1007700043F23220C0F26D0005AEC1F807003046EA
:10078000FCF744FD024628463146FCF7B2FC01AEB8
:100790003046FCF73BFD024628463146FCF7A9FCF3
:1007A0004046FCF733FD024628464146FCF7A1FCD3
:1007B000FCF72CFD45F61B32C6F6305229182A509C
:1007C0000A20888011A928460A91FBF7F9FF2846DC
:1007D0001FF03EFF4EF61450C2F2070054F066F9C7
:1007E0000BB0BDE8F04103B07047000083B02DE9C5
:1007F000F0418BB0804611A809AD0EC0284661F0CB
:10080000A7FC28462FF010FDD0E90075D0E902645E
:10081000D0E90401431C05A801F26C724FF2EE21ED
:10082000C0F60C010094FBF7FBFF4FF2FE2101A87C
:10083000C0F60C0132462B460097FBF7F1FF4EF64F
:100840001450C2F207004FF0FF3154F027FA4FF472
:1008500080704AF013FA002843D04FF480710546A7
:10086000FCF70CFE2846FCF7D1FC45F61B32C3F61C
:10087000330229182A5043F23B50C3F23B10486020
:1008800043F23300C0F26D0005AE88603046FCF7DD
:10089000BDFC024628463146FCF72BFC01AE304633
:1008A000FCF7B4FC024628463146FCF722FC4046E1
:1008B000FCF7ACFC024628464146FCF71AFCFCF764
:1008C000A5FC45F61B32C6F6305229182A500A20DC
:1008D000888011A928460A91FBF772FF28461FF06D
:1008E000B7FE4EF61450C2F2070054F0DFF80BB01A
:1008F000BDE8F04103B07047FEE70000704700001C
:1009000080B553F007FA57F08DF9012049F080FCCB
:1009100062F082F9BDE8804053F026BA81B04EF60D
:100920008851CEF20001086840F4700243F60800D6
:10093000C4F202000A6050F8081C41F0010140F8BE
:10094000081C00BF50F8081C8907FBD5016841F05E
:100950008001016000210091009A4F2A06D800BF53
:10096000009A01320092009A502AF9D3026842F0AC
:1009700090020260009100994F2905D80099013139
:10098000009100995029F9D301684FF6FF7221F0C8
:100990000301016050F8081CCFF6F662114040F8E0
:1009A000081C50F8081C4FF0000C21F4802140F87E
:1009B000081CC0F800C0026843F21002C2F20042F4
:1009C00040F8042CC0F804C050F8082C42F48032DF
:1009D00040F8082C4FF6FE7250F8081C013A4CF112
:1009E0000003890301D4002BF6D150F8081C8903B9
:1009F00001D400BFFEE7816B41F0805247F2000155
:100A0000C4F2000182630A6842F440420A6002684C
:100A10000260026842F400420260026842F4A0529E
:100A2000026046F20842C0F6401240F8042C50F82A
:100A3000082C42F0807240F8082C00BF50F8082CB7
:100A40009201FBD50A6842F480320A604A68D203F8
:100A5000FCD50A6842F400320A6000BF4A6892037B
:100A6000FCD5016821F003010160016841F0020139
:100A7000016000BF01680907FCD501B070470000A4
:100A800080B553F047F940F23440C2F20800FFF756
:100A9000B9FCBDE8804053F067B9000080B553F061
:100AA00039F940F29C40C2F20800FFF7ABFCBDE808
:100AB000804053F059B9000080B553F02BF940F253
:100AC0000450C2F20800FFF79DFCBDE8804053F0DF
:100AD0004BB9000080B553F01DF940F2FC20C2F282
:100AE0000800FFF78FFCBDE8804053F03DB90000DF
:100AF00080B553F00FF940F26430C2F20800FFF7FE
:100B000081FCBDE8804053F02FB9000080B553F060
:100B100001F940F2CC30C2F20800FFF773FCBDE8E7
:100B2000804053F021B90000FEE70000002804BF18
:100B300000207047C1B209B101200CE010F47F41E0
:100B400002D0090A092006E010F47F0107BF010E58
:100B50001920090C112044F28602C0F60902515CEA
:100B600008447047B0B582B0054656F02DFE002807
:100B700004BF02B0B0BD044607A109A304200122AE
:100B8000CDE900457BF0C4FD20460121002202B0E2
:100B9000BDE8B04056F0A8BB7374646C6962000095
:100BA0007468726561643A257320657869743A25C2
:100BB0006421000010B541F60133CB1A032B41D854
:100BC000DFE803F002162633836C1B6823B151B2B1
:100BD0000122BDE81040184741F60433994224D061
:100BE00041F60333994213D041F60233994229D199
:100BF000836C1B6823B151B20022BDE81040184736
:100C000041F60433994210D041F60333994219D189
:100C10003AB1836C9B6823B11446984790B1207019
:100C20000DE041F6043399420CD16FF004013AB162
:100C3000836CDB6823B11446984718B120800021EB
:100C4000084610BD6FF0040010BD00002DE9F04112
:100C5000A3B11D4690460F4606460024B06C08EB33
:100C600004024368381941B23046984730B9043419
:100C7000AC4224BF2046BDE8F081EFE70020BDE88C
:100C8000F0810000B0B582B0FBF7ACFB044656F033
:100C90009BFD43F2FC65C2F20005296881422BD01E
:100CA00000208DF8070040F21400C2F2080003682B
:100CB0005BB143F2B92043F2FB21C0F60D00C0F650
:100CC0000D0140F2FE52984716E043F23C0043F219
:100CD000B92143F2FB22C0F60D00C0F60D01C0F6AB
:100CE0000D0240F2FE5353F057F850F01DFD00BFC7
:100CF0009DF807000028FBD043F20070C2F200000C
:100D000001680139016003D10020286051F0A2FD83
:100D1000204602B0BDE8B040FBF768BB70B5FBF7FA
:100D200061FB054656F050FD43F2FC66C2F2000638
:100D3000316881420DD00446284600BF59B1FBF707
:100D400055FB56F043FFFBF74DFB3168A142F5D14F
:100D500006E0284604E0054651F0A4FC284634602D
:100D600043F20071C2F200010A6801320A60BDE874
:100D70007040FBF73BBB000070B582B0044658B929
:100D800042F27C5043F61071C0F60D00C0F60D0122
:100D90004FF42C7250F0A4FC606908B32069C0685D
:100DA00000280BDC42F24F5043F61071C0F60D00E4
:100DB000C0F60D014FF42E7250F092FC2069C1680C
:100DC0000129C2BF002002B070BD008865690228F9
:100DD0000AD1294651F8040B27F01CFF06461CE0F7
:100DE0004FF0FF3002B070BD28686E6B291D2AF0ED
:100DF0005BFD16F4403F06460FD076B90020002672
:100E000061F0A6F921692A6849680190042401ABC0
:100E10001046742200942DF0EBFD284651F03CFD65
:100E2000304600F0A1FD02B070BD000070B582B088
:100E3000044640B942F27C50C0F60D0013A140F2C6
:100E4000373250F04DFC6569E5B128686E6B291D9D
:100E50002BF01CFD16F4403F10D078B90646002058
:100E600061F076F921692A6849680190042501AB8F
:100E70001046742200952DF0BBFD304600F074FD45
:100E800002B070BD4FF0FF3002B070BD5F6466739A
:100E90005F6C66735F666C75736800002DE9F04FD8
:100EA000C5B04669002E6DD080464CF2FD00CFF6ED
:100EB0000F40A2FB0002100A00EB8010800002BF6E
:100EC0006FF0040045B0BDE8F08F0DF10C0B351D3F
:100ED0000BF108070FF2C40A4FF0000902910190CC
:100EE000306829465A4629F049FD044601283AD17E
:100EF0009DF81400B8B33846514656F0D5F800288E
:100F0000EED0384626A156F0CFF80028E8D009EBFD
:100F10008911029A9DF80C0002EB810C02284FF017
:100F2000000302F8213003D0012804D1082000E09A
:100F300004208CF800003846CDF800C056F0F8F8D0
:100F400000994FF4807248704FF482704880081DF9
:100F5000394656F009F909F1010909EB891001999F
:100F6000B1EB800FBCD8B9F1000F10D009EB89109C
:100F7000D8F80C1001EB80018000C8F80C1045B0C7
:100F8000BDE8F08F4FF0FF3045B0BDE8F08F204650
:100F900000F0EAFC45B0BDE8F08F00BF2E00000075
:100FA0002E2E00006FF02C007047000070B5044634
:100FB0000D4640B942F27C50C0F60D001DA140F232
:100FC0004F3250F08DFB6669002E04BF4FF0FF30AA
:100FD00070BD2069008802280ED040BB314651F810
:100FE000040B2A4600232BF06BFB0546B0F1FF3FB4
:100FF0000FDDB06BE0600FE0314651F8040B2A467C
:101000002AF0C6F90546B0F1FF3F0ADDF06AE0605C
:101010000AE0284600F0A8FCB5F1FF3FC8BFE06831
:1010200070BD284600F0A0FC002D48BF70BDE068F0
:1010300070BD00BF5F6466735F6C66735F6C7365E1
:10104000656B0000F0B581B000287CD0017F0329DA
:1010500073D143F22856C2F20006316819B1D1F8B3
:10106000801081427DD007464FF48A7052F0F0FE26
:1010700000286CD000214FF48A72044653F0BEFA67
:1010800004F1DC0543F62F71C0F60D01284601225C
:1010900053F0E0FCD7E91220396D264646F8807FF0
:1010A000081A4FF48073A0FB02016427C4E92733B8
:1010B000B2F5805F98BF4FF48052C4E92B730023D0
:1010C000C4F8A420FBF7CAFAC4F8A8001F3020F027
:1010D0001F00802828BF8020C4F8B40041F6ED002E
:1010E00041F68D01C0F60100C0F60101C4F884008C
:1010F00041F63D00C4F8881041F64D11C0F60100DC
:10110000C0F60101C4F88C0041F65110C4F89010EB
:1011100041F61121C0F60100C0F60101C4E9250124
:10112000204631462BF0F0FC0646284653F0B6FB2D
:10113000204651F0B1FB304670E043F66260C0F6E5
:101140000D0052F029FE6FF0040001B0F0BD43F62F
:101150008660C0F60D0052F01FFE6FF0050001B072
:10116000F0BD3468074620462DF0CCFC002855D150
:10117000002004F180053060204629462BF0C4FC95
:1011800000284BD1D7E91220396DC4F880704FF494
:101190008073081AA0FB02016427C4E92733B2F563
:1011A000805F98BF4FF48052C4E92B730023C4F8CA
:1011B000A420FBF753FAC4F8A8001F3020F01F004A
:1011C000802828BF8020C4F8B40041F6ED0041F625
:1011D0008D01C0F60100C0F60101C4F8840041F69B
:1011E0003D00C4F8881041F64D11C0F60100C0F66C
:1011F0000101C4F88C0041F65110C4F8901041F67A
:101200001121C0F60100C0F60101C4E92501204604
:1012100029462CF079FF002808BF346001B0BDE8F2
:10122000F04000F0A1BB00002DE9F04381B001685F
:10123000097F03290AD143F22857C2F2000739680F
:1012400079B16FF00B0001B0BDE8F08343F6626046
:10125000C0F60D0052F0A0FD6FF0040001B0BDE833
:10126000F08380464FF48A7052F0F2FD002863D07C
:1012700000214FF48A72044653F0C0F904F1DC09EE
:1012800043F62F71C0F60D014846012253F0E2FBF0
:10129000D8F800002646D0E9122146F8800F006DEC
:1012A0004FF48073401AA0FB02016425C4E9273380
:1012B000B2F5805F98BF4FF48052C4E92B530023EE
:1012C000C4F8A420FBF7CAF9C4F8A8001F3020F026
:1012D0001F00802828BF8020C4F8B40041F6ED002C
:1012E00041F68D01C0F60100C0F60101C4F884008A
:1012F00041F63D00C4F8881041F64D11C0F60100DA
:10130000C0F60101C4F88C0041F65110C4F89010E9
:1013100041F61121C0F60100C0F60101C4E9250122
:10132000204631462CF0F0FE88B1484653F0B6FA1C
:10133000204651F0B1FA84E743F68660C0F60D000E
:1013400052F02AFD6FF0050001B0BDE8F083C8F847
:101350000C403C60002001B0BDE8F083F0B583B0E4
:10136000044658B942F27C5043F64771C0F60D006E
:10137000C0F60D014FF40D7250F0B2F92069C1684A
:10138000856900290BDC42F24F5043F64771C0F6E5
:101390000D00C0F60D014FF40E7250F0A1F9206956
:1013A000C16802290ADB0088022804BFA0795FEA2D
:1013B000C07068D00020E06003B0F0BDEF686568E1
:1013C000582052F045FDE903054631D4002D5ED08A
:1013D00028460021582253F011F96068294600F090
:1013E0000303B3FA83F256094FF48062012B02EA39
:1013F000400241F8047BD4F810C008BF0226022B3B
:1014000008BF032600F0C00342EA830200F48060B4
:1014100042EA4000DCF80420831938462AF02AFE0C
:10142000E8BB6561A86B2169E060286B486227E032
:10143000002D3FD028460021582253F0DFF82F60BE
:101440002079400613D52069416838462CF098FD74
:10145000C0BB002060F07CFE21692A6849680290C8
:10146000042602AB1046742200962DF0C1FA2946DC
:10147000226951F8040B526828F0C4FE10BB656164
:10148000002003B0F0BD6FF0080003B0F0BD43F6DC
:101490008660C0F60D0052F07FFC6FF0050025B1AC
:1014A0000446284651F0F8F9204603B0BDE8F04064
:1014B00000F05ABA43F68660C0F60D0052F06CFC9C
:1014C0006FF0050025B10446284651F0E5F92046A5
:1014D00000F04AFA03B0F0BDF0B581B015460446FD
:1014E0000E4640B942F27C50C0F60D0012A140F207
:1014F000DE2250F0F5F86769AFB120690088022854
:1015000002BF6FF01B0001B0F0BD394651F8040B6B
:1015100032462B462AF070FFB0F1FF3F07DDB96B72
:10152000E16001B0F0BD4FF0FF3001B0F0BD01B09F
:10153000BDE8F04000F018BA5F6466735F6C6673D4
:101540005F7265616400000070B5144606460D4682
:1015500058B943F6BA6043F6EF61C0F60D00C0F625
:101560000D014FF4087250F0BBF8F06858B943F61B
:10157000986043F6EF61C0F60D00C0F60D0140F231
:10158000212250F0ADF8F068294622462DF0A8F847
:10159000BDE8704000F0E8B970B5C4B01446064626
:1015A0000D4658B943F6BA6043F66571C0F60D00B2
:1015B000C0F60D014FF4027250F092F8F06858B97D
:1015C00043F6986043F66571C0F60D00C0F60D0154
:1015D00040F2092250F084F8F66802AA3046294603
:1015E0002DF02AFA18B100F0BFF944B070BD002008
:1015F00001904FF0040C01AB304629467422CDF81F
:1016000000C02CF053FA019D20464021FBF758FF03
:10161000039840F2FF1160619DF80800E180022804
:1016200004D0012805D148F2FF1001E044F2FF1078
:10163000E0802562002044B070BD0000B0B582B0EB
:101640000C46054600200190E1B135B3E86858B971
:1016500043F6986043F65571C0F60D00C0F60D01D3
:1016600040F2C91250F03CF8ED6841F2D56101AA90
:10167000C0F6010128462BF067FFD8B100F074F9DD
:1016800002B0B0BD43F655710EA0C0F60D0140F298
:10169000C71250F025F8002DD8D143F6BA6043F6B2
:1016A0005571C0F60D00C0F60D014FF4E47250F014
:1016B00017F8CBE7D5E92901019A8A1A07C4002057
:1016C00002B0B0BD62756620213D2052545F4E5578
:1016D0004C4C000001460068421C00200A60704724
:1016E000B0B505460C4658B943F6BA6043F63771B3
:1016F000C0F60D00C0F60D0140F2E1124FF0F0FF10
:10170000E86858B943F6986043F63771C0F60D00A3
:10171000C0F60D014FF4F1724FF0E2FFE868214688
:101720002CF02AFFBDE8B04000F01EB9B0B5044669
:1017300058B943F6BA6043F67371C0F60D00C0F6AF
:101740000D0140F25F124FF0CBFFE06858B943F64D
:10175000986043F67371C0F60D00C0F60D014FF4AA
:10176000B0724FF0BDFF43F228502168C2F2000072
:10177000026841B11AB1D2F880208A4205D04FF0F8
:10178000FF31012203E0002AF9D100220021002AC2
:101790001CBF6FF00800B0BD002240F82120E568B2
:1017A000E26028462DF0AEF9044605F1DC0053F066
:1017B00075F8284651F070F82046BDE8B04000F0BA
:1017C000D3B80000F0B581B0154604460E4640B9C6
:1017D00042F27C50C0F60D0014A140F209324FF0E5
:1017E0007FFF6769C7B120690088022802BF6FF0D8
:1017F0001B0001B0F0BD394651F8040B32462B46B0
:101800002BF0E2F8B0F1FF3F0ADDB96B2269E1602D
:10181000396B516201B0F0BD4FF0FF3001B0F0BD47
:1018200001B0BDE8F04000F09FB800BF5F64667390
:101830005F6C66735F77726974650000B0B50446CB
:101840000D4650B943F6AD6043F6FF61C0F60D009A
:10185000C0F60D0194224FF043FF206850B943F6C3
:10186000C96043F6FF61C0F60D00C0F60D01952278
:101870004FF036FF626A206802FB05F152F0F8FE75
:10188000002818BF6FF00400B0BD00002DE9F04142
:101890001C46154606460F4650B943F6AD6043F662
:1018A0001F71C0F60D00C0F60D0180224FF018FF29
:1018B0003068DDF8188050B943F6C96043F61F71EF
:1018C000C0F60D00C0F60D0181224FF009FF716ACC
:1018D000306801FB07512246434652F01DFFB0EB32
:1018E000080018BF6FF00400BDE8F0812DE9F04159
:1018F0001C46154606460F4650B943F6AD6043F602
:10190000DF61C0F60D00C0F60D016D224FF0E8FE5C
:101910003068DDF8188050B943F6C96043F6DF61DE
:10192000C0F60D00C0F60D016E224FF0D9FE716AAF
:10193000306801FB07512246434652F09DFEB0EB52
:10194000080018BF6FF00400BDE8F0810020704768
:1019500080B55C304FF0FF3153F0A0F9002818BF7C
:101960004FF0FF3080BD000000F15401542900F217
:101970002D80DFE801F0312B2B2B2B2B2B2B2B2B4E
:101980002B2B2B2B2B2B2B2B2B2B2B2B2B2B2B2BA7
:101990002B2B2B2B2B2B2B2B2B2B2B2B2B2B2B2B97
:1019A0002B2B2B402B2B2B2B2B2B2B2B2B2B432B5A
:1019B0002B2B2B2B343A3D2B2B492B2B2B2B462B14
:1019C0002B2E2B2B2B2B2B2B372B2D006FF00B00C3
:1019D00070476FF00F0070476FF0330070476FF083
:1019E000040070476FF0080070476FF01B007047ED
:1019F0006FF01A0070476FF02D0070476FF02200F3
:101A000070476FF0050070476FF0170070470000D7
:101A100080B55C3053F04AF8002818BF4FF0FF3013
:101A200080BD000070B543F26454C2F20004204649
:101A3000442101F041FE48F24550C0F601000A2160
:101A4000002248F0F3FB43F27056C2F2000643F660
:101A500062253060C2F2000501202870204601F0A6
:101A600007FE0146306811B148F0FCFC01E048F087
:101A7000E9FC0020287070BDF0B50346B1F9000004
:101A8000B2F90050B1F902C0B2F90260B1F904E054
:101A9000B2F90470A842B1F90640B2F90610C8BF05
:101AA0000546B4451D80C8BF6646BE4530B25E805F
:101AB000B8BF77469F808C42B8BF21460AB2002645
:101AC000BD424FF00007D8BF01279042D8BF012682
