:020000040800F2
:10400000588200206D4100085D520008B14E000842
:1040100025520008E1450008E163000800000000A7
:104020000000000000000000000000007F410008C8
:10403000514B000800000000C94100081556000857
:104040008341000883410008834100088341000840
:104050008341000883410008834100088341000830
:10406000834100088341000883410008254B000874
:104070008341000883410008834100088341000810
:104080008341000883410008834100088341000800
:1040900083410008834100088341000883410008F0
:1040A00083410008834100088341000883410008E0
:1040B000834100082561000883410008834100080E
:1040C00083410008834100088341000883410008C0
:1040D0008341000859620008F56200084563000842
:1040E000414C0008834100088341000883410008D7
:1040F000834100088341000883410008000000005C
:10410000834100080000000083410008834100084B
:1041100065610008B561000883410008834100081B
:10412000834100088341000883410008834100085F
:104130008341000883410008834100085546000878
:10414000294600085146000825460008834100081A
:1041500047355245DFF810D000F078F900480047A5
:10416000F5740008AFF300805882002005488047AE
:1041700005480047FEE7FEE7FEE7FEE7FEE7FEE74D
:10418000FEE7FEE7D560000855410008EFF3108018
:1041900072B6704780F31088704719484FF0FF01DE
:1041A0000170002080F3098816484FF080510160AB
:1041B00062B6FEE713484FF0805101607047114826
:1041C0004FF080510160704772B6EFF3098028B15B
:1041D000203880E8F00F0C49096808600B480C494A
:1041E0000A78027008480B490A680260106890E873
:1041F000F00F203080F309884EF0040E62B670474D
:1042000022ED00E004ED00E0481200204012002002
:104210003E120020441200202DE9F05F05460020E8
:1042200092469B4688460646814640241BE0284627
:1042300041464746224600F0C1F853465A46C01A46
:10424000914110D311461846224600F0A8F82D1AC5
:1042500067EB01084F4622460120002100F09FF83D
:1042600017EB00094E41201EA4F10104DFDC484693
:1042700031462A464346BDE8F09F40EA01039B07CA
:1042800003D009E008C9121F08C0042AFAD203E0CB
:1042900011F8013B00F8013B521EF9D27047D2B22F
:1042A00001E000F8012B491EFBD270470022F6E71F
:1042B00010B513460A4604461946FFF7F0FF20469C
:1042C00010BD421E12F8013F002BFBD111F8013B3B
:1042D00002F8013B002BF9D17047421C10F8011B7A
:1042E0000029FBD1801A704730B5054600200346EF
:1042F00000E05B1C934205D2EC5CC85C201A01D143
:10430000002CF6D130BD30B480EA010202F0004545
:1043100030F0004221F0004013D090B1C30DD40D15
:10432000C2F31601C0F31600E41A41F4000140F490
:1043300000027D34914201D3641C00E04900002C4E
:1043400002DA30BC002070474FF400000023914295
:1043500001D3891A034340084FEA4101F7D151B113
:10436000914202D14FF0004105E002D24FF001012D
:1043700001E06FF0010103EBC450284430BC00F0B1
:104380002DB8C10F80EAE0700844CA0796230021C7
:1043900000F02DB896230022114600F028B8202AFC
:1043A00004DB203A00FA02F1002070479140C2F18C
:1043B000200320FA03F3194390407047202A04DBBE
:1043C000203A21FA02F00021704721FA02F3D0408E
:1043D000C2F1200291400843194670470029A8BF46
:1043E0007047401C490008BF20F00100704710B41E
:1043F000B0FA80FC00FA0CF050EA010404BF10BCD3
:10440000704749B1CCF1200421FA04F411FA0CF1FF
:1044100018BF012121430843A3EB0C01CB1D4FEA38
:1044200000614FEA102042BF002010BC704700EB33
:10443000C35010440029A4BF10BC7047401C490061
:1044400008BF20F0010010BC70470000064C074D6B
:1044500006E0E06840F0010394E807009847103454
:10446000AC42F6D3FFF77AFE3862010858620108C1
:1044700070B58C1810F8015B15F0070301D110F826
:10448000013B2A1106D110F8012B03E010F8016B53
:1044900001F8016B5B1EF9D12B0705D40023521ED6
:1044A0000DD401F8013BFAE710F8013BCB1A921C3E
:1044B00003E013F8015B01F8015B521EF9D5A1423C
:1044C000D8D3002070BD0000F0B53D48404A0188B7
:1044D0003C4801803C49098841803C4909888180E9
:1044E00011884B0512D50B0510D5CB040ED58B04C6
:1044F0000CD54B040AD5090408D55188CA0705D044
:104500008A0703D5490701D5002100E00121C180B8
:1045100030494FF6FF746FF001058A8820F8082FA4
:104520008A8C02EB820604EA460242802A4A05EBA4
:1045300046061288531E8380C2800681CE8846813B
:104540000E8D06EB860604EA46078781C381028248
:1045500005EB460646820E8986824FF41676C682A1
:1045600003834283B61E86834E88C6830E8C06EB79
:10457000860604EA460707844384828405EB4602E4
:10458000C284CA8902858A8E02EB820604EA460248
:104590004285124A05EB46061288931E8385C28522
:1045A00006860E8A4686098F01EB810104EA4104E2
:1045B0008486C386028705EB41014187F0BD000078
:1045C000DA000020B6390020DC000020DE000020E8
:1045D0008C1100203030002016110020181100200E
:1045E00010F0ADFB064D074C00262068401C2060F3
:1045F000A842FAD904A0266001F00EFFF5E70000FA
:10460000C0C62D00A8000020627573206661756C1D
:10461000740A0D000249088820F03F0008807047A6
:104620008813002000F030B90EB500F001F940F217
:104630000120009004480190044802900821684637
:1046400005F056F80EBD000078563412021008240A
:1046500000F004B900F09AB908B50C4900200C4BE1
:10466000086148618861C8610A490090102201F51B
:10467000106000F013F8012007490090044B8022DD
:1046800001F61C0000F00AF808BD00009812002096
:104690005D47000810740020107500202DE9F041DE
:1046A0001F46DDF8188016460D46040012D08DB165
:1046B000FFF76CFDA561E68105EB06112560C4E9F5
:1046C00001510021A181C4E90478FFF763FD0020B6
:1046D000BDE8F081FF20FBE770B5FF2281B18A8938
:1046E0006AB10A6878CA80E878008868904200D881
:1046F0008A690A608889401E8881002200E00422BD
:10470000104670BD2DE9F0410D4604004FF0FF0743
:104710001FD0114E0121304602F0DDF9A089E18958
:1047200088420CD22ECD60682EC0A168814200D88C
:10473000A0696060A089401CA081002705E0216974
:10474000082711B16069884707460121304602F009
:10475000C6F93846BDE8F081006800400A490B4AB6
:1047600070B11069401C1061642807D3086840F0DC
:1047700001000860086820F0010008600020704710
:104780005069401C5061EFE700680040981200201B
:1047900070B5FF22B0B18289C3899A420CD23AC95E
:1047A00042683AC28168914200D882694260818938
:1047B000491C8181002205E00169082211B140698C
:1047C00088470246D0B270BD2DE9F041154C054630
:1047D0001549204680898A69904200D98861134F23
:1047E0001221384602F077F9A089A8B12668A1689D
:1047F00006F11000814200D8A0692060A089122132
:10480000401EA081384602F06AF996E80F0085E85C
:104810000F000020BDE8F0811221384602F05FF958
:104820000420F7E72C7D002098120020006800404B
:1048300070B5074C074D07E029460748FFF7A8FF6A
:10484000206840F02000206020688007F4D170BD0F
:104850000C680040B06900402C7D002070B5074C0A
:10486000074D07E029460748FFF792FF206840F010
:104870002000206020688007F4D170BD10680040DF
:10488000C06900402C7D00201F4A0421143A1E48B4
:10489000116001681D4A11F0700108D0702906D01E
:1048A0001168491C1160016841F0700101600168E4
:1048B000490706D55168491C51600168144B1940DD
:1048C00001600168890706D59168491C91600168FB
:1048D000104B194001600168C90706D0D168491C16
:1048E000D160016821F001010160016801F47F01DC
:1048F000B1F5202F07D9016821F47F010160024939
:104900000548103908607047186800409812002068
:10491000FBFF00FFFDFFFF000101010070B5044631
:104920000025FFF733FC06461348808928B1134958
:10493000CA69904216D9C86114E011480068C0F3F2
:10494000826078B10F49085C0F4901EB0012606882
:104950005060A0689060E068D060206840F001007E
:10496000106004E021460448FFF7CCFE05463046BF
:10497000FFF710FC284670BD107D00209812002023
:10498000086800400C5D0108806900400D4810B5C2
:1049900081890D4891B10068C0F3826000280CD075
:1049A0000A49085C0A4901EB001406492046FFF752
:1049B00093FE206840F00100206010BD05490160B1
:1049C00010BD0000107D0020086800400C5D01084B
:1049D000806900400101010038B505460C464FF6DC
:1049E000FF70641EADF80000A4B206D315F8010BE9
:1049F000BDF8001000F00CF8F3E76946084600F037
:104A000071FABDF80000010A41EA002080B238BD09
:104A100033B50D46694648F20504084600F077FABA
:104A20009DF80000002185EA00204FF6FF72030484
:104A300003D584EA400080B201E002EA4000491C4C
:104A4000C9B20829F3D33CBD70B523480178234D82
:104A5000234C0229287805D0C8B1012832D0022879
:104A600025D11CE0012802D0022822D107E00FF056
:104A700025F9618888421CD00DF0E6FF19E00FF09F
:104A80001DF9A188884214D00DF040FE11E00FF00E
:104A9000E5F86188C0B2884201D00DF0D5FF0FF073
:104AA000E9F8A188C0B2884201D00DF02FFE0020A5
:104AB00028700FF0EBF8218888420CD0BDE87040D8
:104AC0000DF02CBF0FF0CAF86188C0B28842EED05A
:104AD0000DF0BAFFEBE770BDAE000020B200002081
:104AE000040000200C4900EB40000A780B49002A22
:104AF00001EB80000A490A7806D0012A0BD14088D0
:104B0000002808D1022005E0042A04D140880028AA
:104B100001D1052008707047B20000208C6E002083
:104B2000AE00002010B5094C02220021204602F000
:104B3000FFFA002808D003F023FD20460222BDE83A
:104B40001040002102F0EEBA10BD0000000002404B
:104B50007047000070B51E4800240178012935D146
:104B60001C4D00210170288828B90FF047F810B1BA
:104B70000FF044F807E02888012806D10FF03EF82E
:104B800018B10FF041F8401EC4B21348008838B184
:104B9000844201D3201A02E0001BC0F10A00C4B213
:104BA000288870B1012811D1352014FB00F00B4981
:104BB000BDE8704001EB40016A220948891CFFF7FB
:104BC0005CBB352014FB00F00649F1E770BD000026
:104BD0007E1200206E110020701100208627002018
:104BE000282E00205C230020094AA02808D0A828ED
:104BF0000DD100294FF0100106D0104602F0F2BB93
:104C000000294FF02001F8D1104602F0E9BB7047AF
:104C1000000C014010B5094C2021204602F0E2FBB7
:104C20001021204602F0DEFB4021204602F0D8FB96
:104C30002046BDE81040802102F0D2BB000C0140AC
:104C400070470000114910B5002008701049124A41
:104C50000860104908601060088840F4806008808F
:104C600001200BF045FCA0200AF098FCA0200AF0DF
:104C700027FCA0200AF0D0FAA0200AF03FFBA020D9
:104C80000AF0AEFBBDE8104006F09CBC8800002096
:104C90008C110020901100207012002010B5104AD5
:104CA0000020104C02F10E03014622F8101023F8E8
:104CB0001010042801D224F81010401CC0B207289C
:104CC000F3D30848C238018241828182C1820183C4
:104CD00041838183C183018441848184C18410BD67
:104CE000982F00206E0100202DE9F84F624B634C95
:104CF000634F1D7804F12C0600961E4686465D48DB
:104D000096F801C04FF00A0807F12C0904F15C0A7B
:104D100007F15C0B754504D18C4502D19B78934219
:104D20007DD04FF00009AEF11603754511D00E2B62
:104D30001CD340F8869FC0F80490C0F80890C0F8D3
:104D40002090C0F82490C0F82890BDE8F88F016248
:104D5000FBE74A4D2C3505EB8106494D2C3505EB1B
:104D600081058C451AD0491E0C291AD393FBF8F201
:104D700093FBF8F108FB1232C0F88A90241DC0F8AA
:104D80008E9054F8222040F8862F08FB1131C0F88D
:104D90002490C0F8289054F82110D8E7511E1F29FC
:104DA0001CD3C0F88E9056F8042CC0F88A2093FBD0
:104DB000F8F208FB1232241D3F1D54F8222040F85F
:104DC000862FC0F8289055F8041C416293FBF8F137
:104DD00008FB113137F8211089B2B8E70AEB8201DC
:104DE000241D51F8041CC0F88E1056F8041CC0F89D
:104DF0008A1093FBF8F108FB113154F8211040F8A8
:104E0000861F0BEB820151F8041C816255F8041CCB
:104E1000416293FBF8F108FB11313F1D00E002E015
:104E200057F8211093E70AEB8301163D51F8041C53
:104E3000C0F88E100099241D01EB8C0151F8041C60
:104E4000C0F88A1095FBF8F108FB115154F82110B5
:104E500040F8861F0BEB830151F8041C816209EBBB
:104E60008C0151F8041C416295FBF8F108FB1151CB
:104E7000D3E70000884C002060010020702C002047
:104E80004C2D00200346002123FA01F0C20701F156
:104E9000010101D0C8B27047C9B21029F4D3002073
:104EA00070470000014880797047000090000020A2
:104EB0000FF045FF064D074C00262068401C20607F
:104EC000A842FAD904A0266001F0A6FAF5E700008E
:104ED000C0C62D00A8000020686172644661756C30
:104EE000740A0D0070B500220C881346012505FADE
:104EF00002F10C4205D0C2F10F0605FA06F1194382
:104F00008BB2521CD2B2102AF1D3038070BD70B59F
:104F100000220C781346012505FA02F10C4205D057
:104F2000C2F1070605FA06F11943CBB2521CD2B200
:104F3000082AF1D3037070BD2DE9F05FB44EB54976
:104F40004FF0000996F82A004D464206088A06F1FD
:104F5000220603D5962807D2401C04E0962801D3E8
:104F60004FF0010900200882C889DFF8AC828B4627
:104F700098B34FF0000AA94AABF80EA098F80010B9
:104F8000117098F80130537098F80230937098F8C7
:104F90000330D37098F80430137198F805305371CA
:104FA00098F8060090719E485F4603685BB11C4606
:104FB00013701B0A5370230C9370230ED370001DC3
:104FC0000EF0AFF903E00AF025FC00200146C7E926
:104FD0001201D6F89610C7E91A1A98F800704046E0
:104FE000162F7DD38D4943794A7993421ED190F88B
:104FF00004C091F80480C44518D190F803C091F81A
:105000000380C44512D190F802C091F80280C445D3
:105010000CD190F801C091F80180C44506D191F8F7
:1050200000C0674502D1B9F1000F59D07C4F07F19C
:105030002C0A5C37934241D04FF0000ED846D6F888
:105040009600C8E9180ED8E91A2380EA020C8EEA05
:10505000030371465CEA030C00D0851AC8E91A0103
:10506000B8F8080000B900256B4A907807EB80007B
:1050700050F8041D2944016051780AEB810050F872
:10508000041D2944016010780A22163890FBF2F3BF
:1050900090FBF2FC624902FB1303091D02FB1C009A
:1050A00051F823302B4441F82030D8E91210491927
:1050B00040EB0E00C8F84810CBF84C00DFF85881E0
:1050C000564898F80320C078824214D1534998F882
:1050D000023040468D78AB420DD143784D7800E0E8
:1050E00076E0AB4207D198F800000978884202D1F7
:1050F000B9F1000F40D098F8000098F8011060F363
:10510000070498F8023061F30F24454D63F3174408
:1051100062F31F642C60414C2278904219D05046B3
:105120000C2104F005FB38461F2104F001FB217817
:105130000A22153991FBF2F302FB1312281D0021FC
:1051400040F8221098F800100EF0EBF8CBE91201AD
:1051500006E06078814203D038461F2104F0E8FA67
:105160000721022000F07CF8B9F1000F04D10020E3
:10517000CBF81400CBF8180098F80240404607EB33
:105180008401274F51F8041CC6F8A21098F801308A
:105190003F1D0AEB830151F8041CC6F89E1098F8D5
:1051A00000200A211546163A92FBF1FC01FB1C2156
:1051B00057F82110C6F89A1018490D704B708C7072
:1051C000C278CA7002790A7142794A71807988710D
:1051D000BBF802005C46002818D00020C4E9120089
:1051E000E063A06360636061A061E061206260626F
:1051F0000B480125E580006808B9E08928B90AF064
:1052000009FB0721022000F02BF8E581BDE8F09FA3
:10521000664C0020C811002060010020831100208E
:105220004C2D00200FF08BFD064D074C002620680A
:10523000401C2060A842FAD904A0266001F0ECF8D6
:10524000F5E70000C0C62D00A80000206D656D6F59
:105250007279206661756C740A0D00007047000059
:1052600070B50D460446FEF791FF0C4A04EB44016D
:1052700002EB81020123118903FA05F5294389B262
:1052800011815289114204D00549A3400A88134371
:105290000B80BDE87040FEF77DBF00005C5E002023
:1052A0003C120020124813490088020704D000F085
:1052B0000F0031F81000704710F0F00F05D0C0F368
:1052C000031031F81000001D0EE010F4706F05D0CF
:1052D000C0F3032031F81000083005E0020B05D0C0
:1052E000000B31F810000C3080B27047032070477B
:1052F0003C120020EC5C01080A4B00EB400210B5A8
:1053000003EB82020123148903FA01F10C43A1B2D9
:1053100011815289114204D08340034801880B4314
:10532000038010BD5C5E00203C12002010B500F030
:105330001DF800F005F8BDE8104000F01FB80000AF
:10534000054900200880054908800549088005496D
:1053500008600549086070473C1200204012002098
:105360003E12002044120020481200200249014849
:1053700008607047886E00204C1200200948002108
:105380000A464FF6FF7304C0491C20F8022B89B26D
:1053900020F8062B042920F8042C20F8023CF2D334
:1053A000704700005C5E002070B50446FEF7EEFE1C
:1053B000144E01463068448105892A46254006D0AE
:1053C000A24302810846FEF7E5FE284670BD0E485E
:1053D0000278012090400D4A1388834313800846C9
:1053E000FEF7D8FE00F014F8FEF7D0FE3168024652
:1053F00008890546A04308811046FEF7CBFE05EA62
:10540000040070BD48120020401200203C12002011
:1054100010B5FEF7BBFE0446FFF744FF08490880BD
:1054200008490880084900EB400001EB800007496B
:105430000860FEF7BFFE2046BDE81040FEF7AABE9A
:105440003E120020401200205C5E0020441200202A
:1054500010B5FFF727FF0749074A4880888000EB0F
:10546000400002EB80008860C860BDE81040FEF795
:1054700094BE00003C1200205C5E002070B50C4D14
:1054800014460A462969A1EB82022A6100F014F849
:10549000084A04EB440102EB810108600020888087
:1054A000C880088101202988A0400843288070BD59
:1054B0003C1200205C5E00204FF080720A600A1FE0
:1054C0001060A1F108006FF001020260001F4FF0B0
:1054D00012320260001F4FF003320260001F4FF0D3
:1054E00002320260001F52100260001F00220260A0
:1054F000001F4FF011320260001F4FF010320260A7
:10550000001F4FF009320260001F4FF008320260A6
:10551000001F4FF007320260001F4FF0063202609A
:10552000001F4FF005320260001F4FF0043202608E
:10553000704700002DE9F0412C4F0025A7F124040D
:105540002E460FE0A18851B1E088401C80B2E08077
:10555000884204D3E68000212846FFF7CDFE6D1C6B
:10556000ADB20C34BC42EDD921482249007808B1D3
:105570000E7011E0087806280ED2401CC0B20870E8
:10558000052809D34FF400511B4801F029FF4FF4BF
:1055900080711A4801F026FF19481A49007808B1AD
:1055A0000E7004E00878062801D2401C08701648E6
:1055B0001649007808B10E7004E00878062801D278
:1055C000401C087012480168491C016000684FF4D3
:1055D0007A71B0FBF1F201FB1200002803D1BDE8A3
:1055E000F04101F0BFBABDE8F0810000805E00200C
:1055F0008D12002090120020001001400008014090
:105600008E120020911200208F1200209212002092
:105610000000002002480168491C0160FFF78ABFB2
:10562000501200202DE9F05FB44EB5494FF000094B
:10563000708D4D468204888906F1220603D596288E
:1056400007D2401C04E0962801D34FF00109002046
:1056500088814889DFF8AC828B4698B34FF0000A06
:10566000A94AABF80AA098F80010117098F8013018
:10567000537098F80230937098F80330D37098F80C
:105680000430137198F80530537198F80600907142
:105690009E485F4603685BB11C4613701B0A53703B
:1056A000230C9370230ED370001D0DF03AFE03E01F
:1056B0000AF0BAF800200146C7E91001D6F87610C2
:1056C000C7E9161A98F800704046162F7ED38E4907
:1056D00043794A7993421ED190F804C091F804802E
:1056E000C44518D190F803C091F80380C44512D185
:1056F00090F802C091F80280C4450CD190F801C026
:1057000091F80180C44506D191F800C0674502D1E7
:10571000B9F1000F5AD07D4F07F12C0A5C37934244
:1057200041D04FF0000ED846D6F87600C8E9140EE6
:10573000D8E9162380EA020C8EEA030371465CEA7C
:10574000030C00D0851AC8E91601B8F8080000B9A2
:1057500000256C4A907807EB800050F8041D29441E
:10576000016051780AEB810050F8041D2944016062
:1057700010780A22163890FBF2F390FBF2FC634992
:1057800002FB1303091D02FB1C0051F823302B44BC
:1057900041F82030D8E91010491940EB0E00C8F844
:1057A0004010CBF84400DFF85C81574898F803209C
:1057B000C078824214D1544998F8023040468D781E
:1057C000AB420DD143784D78AB4200E075E007D194
:1057D00098F800000978884202D1B9F1000F40D052
:1057E00098F8000098F8011060F3070498F8023068
:1057F00061F30F24454D63F3174462F31F642C607B
:10580000414C2278904219D050460C2103F090FF71
:1058100038461F2103F08CFF21780A22153991FBAD
:10582000F2F302FB1312281D002140F8221098F811
:1058300000100DF076FDCBE9100106E060788142A2
:1058400003D038461F2103F073FF06210220FFF723
:1058500007FDB9F1000F04D10020CBF81400CBF8FC
:10586000180098F80240404607EB8401274F51F892
:10587000041CC6F8821098F801303F1D0AEB830122
:1058800051F8041CC6F87E1098F800200A2115462D
:10589000163A92FBF1FC01FB1C2157F82110C6F8C7
:1058A0007A1019490D704B708C70C278CA700279E9
:1058B0000A7142794A7180798871BBF802005C46AE
:1058C000002818D00020C4E910002063E062A06224
:1058D0006061A061E061206260620C480125A580E2
:1058E000006808B9608928B909F09EFF06210220E6
:1058F000FFF7B6FC6581BDE8F09F0000664C002014
:10590000C8110020600100207C110020702C0020B4
:1059100070B5104C0025608A401E00B260820028DD
:105920000EDA02206082207810B1012807D104E04D
:10593000FFF778FE0120207002E0FFF7FDFA2570E6
:10594000A088002805D0E088002802D06580A580C6
:10595000E58070BDC8110020FEB5026844F25024F5
:10596000131B6F4901266F4DA2426BD009DCA2F5D3
:105970000472B2F580420ED0102A21D0202A34D1F0
:1059800034E0202B48D0302B73D003F57363B3F58C
:10599000804F2AD180E00279437902EB03220A800A
:1059A0008279C37902EB03224A80037A427A03EBBD
:1059B00002228A80827A8A71C07AC871AE7083E0CE
:1059C0000279437902EB03220A818279C37902EBDF
:1059D00003224A81027A437A02EB03228A81827A85
:1059E000C07A02EB0020C881EE706AE00279437948
:1059F00002EB03220A828279C37902EB03224A82F4
:105A0000027A437A02EB03228A82827AC07A02EB1C
:105A10000020C8822E7154E00379427903EB022200
:105A20000A838279C37902EB03224A83027A437A9A
:105A300002EB03228A83827AC07A02EB0020C883B9
:105A40006E713EE0027901F8202F4279837902EBF2
:105A500003224A80C2790A71027A437A02EB032256
:105A6000CA80827AC07A02EB00200881AE7128E0F9
:105A7000FFE7027901F82A2F42794A7082798A7009
:105A8000C279CA70027A0A71427A4A71827A8A713C
:105A9000C07AC871EE7114E00279437902EB0322F7
:105AA00021F8322F82798A70C279CA70027A437AD9
:105AB00002EB03228A80827AC07A02EB0020C8803F
:105AC0002E72A878002829D0E878002826D02879D6
:105AD000002823D06879002820D0A87900281DD07C
:105AE000E87900281AD0287A002817D000244FF42B
:105AF0008440CDE9000408216846029403F0F8FDD3
:105B00002E702C82AC70EC702C716C71AC710649EB
:105B1000EC712C72488820F01C004880FEBD00000B
:105B200044160020160000209011002070B5036874
:105B300040F259363A4C01223A49A3F25935B34260
:105B400041D008DCA3F54073513B09D0042B1DD094
:105B5000052B49D126E0032D41D0052D44D142E04B
:105B60000379457903EB052323808379C57903EB1A
:105B700005236380057A437A05EB0323A380837AA8
:105B8000C07A03EB0020E0804A7230E00379457967
:105B900003EB052323818379C07903EB0020608127
:105BA0008A7221E00379457903EB0523A381857986
:105BB000C37905EB0323E381037A407A03EB0020EA
:105BC0002082CA7210E00379A3744379E374837965
:105BD0002375C3796375007AA0750A7304E00079B0
:105BE000E0754A7300E08A73487A002817D0887AF3
:105BF000002814D0C87A002811D0087B00280ED0C5
:105C0000487B00280BD0887B002808D04A700020F1
:105C1000488248728872C87208734873887370BD6E
:105C20007E160020160000202DE9F05FB34FB24E23
:105C300000253A683068C2F39022294690427DD010
:105C4000DFF8BC82DFF8BCA2DFF8BC92DFF8BCB2A0
:105C5000386805F10A02D04003D13268EA40012ACF
:105C600002D0012803D039E10020306036E13068ED
:105C7000E8400128F7D00DF0C7FFC4B2092C02D8C4
:105C8000641CE4B202E00A2C00D10124204609F091
:105C9000F7FF9F490120641E0870A0B201210AF09D
:105CA0002FFBA0B201210AF019FBA0B205F164019B
:105CB0000AF002FB9749A0B209880AF057FB9649FF
:105CC000A0B209880AF02EFB9449A0B209880AF014
:105CD0003BFB9349A0B209880AF052F89149A0B25F
:105CE00009880AF017F89049A0B2B1F900100AF03B
:105CF00073FB8E49A0B209880AF05AF98C49A0B208
:105D0000B1F900100AF07AFB8A49A0B209880AF0BA
:105D10003DF98949A0B209880AF00AF98749A0B279
:105D200009880AF0CFF88649A0B209880AF05EF81F
:105D30008449A0B209880AF08FF800E0DAE08249CD
:105D4000A0B209880AF062F98049A0B209880AF075
:105D5000DBF97F49A0B209880AF0C4F97D49A0B2F5
:105D600009880AF089F97C49A0B209880AF072F919
:105D70007A49A0B209880AF0A3F97949A0B2098842
:105D80000AF08CF97749A0B2098809F0D5FF764965
:105D9000A0B2098809F09AFF7449A0B2B1F90010C5
:105DA0000AF0F6FA7249A0B2098809F0D7FF7149E2
:105DB000A0B2098809F09CFF6F49A0B2B1F90010A8
:105DC0000AF0F8FA6D49A0B209880AF08DF86C491A
:105DD000A0B209880AF052F86A49A0B2098809F00D
:105DE000E1FF6949A0B209880AF012F86749A0B238
:105DF00009880AF08BF86649A0B209880AF050F8C1
:105E00006449A0B2098809F0DFFF6349A0B209889C
:105E10000AF010F86149A0B209880AF087F96049D0
:105E2000A0B209880AF004F95E49A0B2B1F90010E5
:105E30000AF02CFB5C49A0B2B1F900100AF014FB87
:105E4000B8F90000BAF90010884201DD81B200E023
:105E500089B2A0B209B20AF0F5FAB9F90000BBF9AB
:105E60000010884201DD81B200E089B24F48B0F9EC
:105E70000000884200DD81B2A0B209B20AF0D0FA77
:105E8000A0B200210AF076F9A0B200210AF084F94C
:105E9000A0B200210AF092F9A0B200210AF0A0F904
:105EA000A0B200210AF0AEF9A0B200210AF0BCF9BC
:105EB000A0B200210AF0CAF9A0B200210AF0D8F974
:105EC000A0B200210AF0E6F9A0B200210AF040F9E0
:105ED00001203168A8400143316001216D1CEDB201
:105EE000102DFFF4B5AE012904D1BDE8F05F01200B
:105EF0000AF0E6BABDE8F09F8C0000208C1100206B
:105F00005C1100205E110020601100206211002051
:105F10007E120020DA000020DC000020DE000020DD
:105F200016110020181100201A1100201C11002049
:105F30001E11002020110020221100202411002019
:105F400026110020281100202A1100202C110020E9
:105F50002E110020301100203211002034110020B9
:105F600036110020381100203A1100203C11002089
:105F70003E11002040110020421100204411002059
:105F800046110020481100204A1100204C11002029
:105F90004E110020501100205211002054110020F9
:105FA00056110020581100205A11002064110020C1
:105FB0002DE9F04F0646354887B050F82650AC1C06
:105FC000DE35022E01D0002E5DD1207949285AD12C
:105FD0006279412A57D1A179502954D1E3790D2B07
:105FE00051D1CDE90421069303906078E278A1783D
:105FF0008DE80700237826A22DA149200EF0A0FEEF
:10600000207849283FD1607841272A494FF00D0A6E
:106010004FF0280B4FF043084FF04B0956281AD089
:10602000492830D1A07843282DD1E0784D282AD1B5
:106030000420887085F800B06F7085F8028085F8BC
:10604000039085F804A007B029463046BDE8F04F1C
:10605000052209F017BDA078452814D1E0784D2815
:1060600011D1012016B1022E03D003E002228A7161
:1060700000E088718870104C20460EF0FBFD204631
:106080000EF093FDD6E707B0BDE8F08FB42F0020E7
:106090006F746120726563763A25632563256325F5
:1060A00063256325632563253032780A0D000000DF
:1060B0006D6F6400AC00002000040040014988714D
:1060C00088817047900000200149087070470000E7
:1060D0007C120020114882B0016841F0010101608A
:1060E000416841F080014160002344F62061009343
:1060F000009A521C00928A42FAD34360C36201683C
:10610000074A114001604FF47F018160016821F46A
:106110008021016002B00EF083BC0000001002403C
:10612000FFFFF6EA70B506F05DFB0C4D0446012159
:1061300028460EF090FD00280ED00948007803286C
:1061400004D11CB1641EE0B20AF0EEF92846BDE8A5
:10615000704001210EF07CBD70BD000000040040C5
:10616000AE00002010B5114C0F4920460EF029FF5B
:1061700010B1032009F084FB0D4920460EF021FFE9
:1061800010B1032009F03AFC032120460EF0FAFE7C
:10619000002808D0032120460EF0EAFE2046BDE884
:1061A00010400EF0A7BE10BD05030500004C0040D6
:1061B0000703070070B5244E224930460EF001FF58
:1061C000224C234D30B1042009F05AFB20780328DB
:1061D0000CD020781F4930460EF0F3FE10B3042097
:1061E00009F00CFC207803280FD01BE03C200AF0BB
:1061F0009BF92978022906D00129EBD1022104203C
:1062000009F0BEFAE6E70021F9E72978022902D071
:10621000012903D006E00421002001E0042102202E
:1062200009F0AEFA032130460EF0ACFE002808D08B
:10623000032130460EF09CFE3046BDE870400EF063
:1062400059BE70BD0503050000500040AE0000209F
:10625000B20000200703070070B5224E20493046E7
:106260000EF0AFFE204C214D40B12078022802D123
:106270002878032811D0002009F002FB1C49304681
:106280000EF09FFED8B1002009F0B8FB0020FEF709
:1062900029FC207802280BD011E03C200AF044F9B8
:1062A000002009F0EDFA0421002009F069FAE5E781
:1062B0002878032803D10021042009F061FA032182
:1062C00030460EF05FFE002808D0032130460EF065
:1062D0004FFE3046BDE870400EF00CBE70BD0000B1
:1062E0000503050000380140B2000020AE00002088
:1062F0000703070010B5114C0F4920460EF061FE50
:1063000010B1012009F0BCFA0D4920460EF059FEEB
:1063100010B1012009F072FB032120460EF032FE7D
:10632000002808D0032120460EF022FE2046BDE8BA
:1063300010400EF0DFBD10BD050305000044004015
:106340000703070070B5224E204930460EF039FE93
:10635000204C214D40B12078012802D12878032813
:1063600011D0022009F08CFA1C4930460EF029FEAB
:10637000D8B1022009F042FB0220FEF7B3FB2078DF
:1063800001280BD011E03C200AF0CEF8022009F0E1
:1063900077FA0421022009F0F3F9E5E728780328C9
:1063A00003D10221042009F0EBF9032130460EF05D
:1063B000E9FD002808D0032130460EF0D9FD304613
:1063C000BDE870400EF096BD70BD000005030500ED
:1063D00000480040B2000020AE0000200703070084
:1063E0000EF0ADFC064D074C00262068401C2060D6
:1063F000A842FAD904A0266000F00EF8F5E70000E4
:10640000C0C62D00A8000020557361676520666135
:10641000756C740A0D0000000FB4054B10B503A98C
:10642000044A029800F02CF810BC5DF814FB000040
:10643000397300082C1600200FB4084B10B504A9BE
:1064400002AA039800F01CF8044602A9002000F0FC
:1064500042FA204610BC5DF814FB0000D768000823
:1064600002E008C8121F08C1002AFAD1704770471D
:10647000002001E001C1121F002AFBD1704700007B
:106480002DE9FF4F8DB00F460546002606E0252872
:106490000BD0DDE90F1290476D1C761C2878002880
:1064A000F5D111B03046BDE8F08F0024A246A146D8
:1064B0000122E94900E0044315F8013F203B02FABC
:1064C00003F00842F7D128782A2810D06FF02F0265
:1064D0002878A0F13001092914D80AEB8A0102EBCF
:1064E000410144F0020400EB010A6D1CF0E701CF0A
:1064F0005FEA000A03D544F40054CAF1000A44F0EC
:1065000002046D1C28782E2817D115F8010F44F0CD
:1065100004042A280ED06FF02F022878A0F1300151
:1065200009290AD809EB890102EB410100EB0109B5
:106530006D1CF2E757F8049B6D1C28786C280FD06F
:1065400006DC4C2817D068280DD06A2814D104E046
:10655000742810D07A280FD10DE044F400140AE01A
:1065600044F4801401E044F440146978814202D17B
:1065700004F580146D1C6D1C28786E281ED00CDC70
:10658000632830D004DC00288BD0582811D19FE03C
:10659000642867D069280CD164E073282DD004DC0E
:1065A0006F2872D0702804D194E075286ED07828B6
:1065B0006DD0DDE90F129047761C4BE1C4F3025019
:1065C000022806D0032809D0042801CF09D006608C
:1065D00040E101CFF117C0E900613BE101CF068046
:1065E00038E1067036E117F8040B8DF80000002042
:1065F0008DF80100EB46012003E057F804BB4FF093
:10660000FF3061074FF0000102D40DE008F10101F5
:10661000884649450FDA8045F8DB1BF80810002949
:10662000F4D108E008F1010188468142FADB1BF849
:1066300008100029F6D1DDE90F23AAEB08008146F6
:10664000214600F031F9304400EB080604E0DDE9B2
:106650000F121BF8010B9047B8F10108F7D2214641
:106660004846F2E00A21C4F302524FF0000B0891B1
:10667000022A04D001CFC117032A09D00AE0FF1D66
:1066800027F00707F7E8020108E02CE01EE01FE012
:1066900000B2C117042A01D140B2C117021E71F124
:1066A000000206DA0023D0EB030063EB01012D2288
:1066B00002E0220504D52B228DF82420012203E0DC
:1066C000E20701D02022F7E7904653E00A210BE0D1
:1066D000102109E010214FF0000B44F004044FF0AA
:1066E0000809089103E008214FF0000B0891C4F35A
:1066F0000252022A04D001CF0021032A06D006E06C
:10670000FF1D27F00707F7E8020103E080B2042A23
:1067100000D1C0B24FF0000822072BD52A78702A8A
:1067200007D0DDF820C08CF0100C5CEA0B0C05D013
:106730000EE040228DF82420012208E050EA0103F7
:1067400006D030238DF824308DF825200222904683
:10675000089B83F0080353EA0B030BD150EA0102B4
:1067600001D1620706D530228DF824204FF00108B0
:10677000A9F101092A78582A04D038A20B9208AA54
:106780000A920BE03AA2F9E75B46089AFDF744FD4E
:106790000B9B9B5C0A9A521E0A92137050EA0102EC
:1067A000F2D10A98ADEB000000F1200B600702D592
:1067B00024F4803401E04FF00109D94502DDA9EB52
:1067C0000B0000E0002000EB0B0141440890AAEB15
:1067D000010AE00306D4DDE90F232146504600F00C
:1067E00063F806444FF0000908E009A911F8090010
:1067F000DDE90F12904709F10109761CC145F4DB70
:10680000E0030CD5DDE90F232146504600F04CF89B
:10681000064404E0DDE90F1230209047761C089909
:10682000481E08900029F5DC08E00A980A990078CB
:10683000491C0A91DDE90F129047761CBBF100015B
:10684000ABF1010BF1DC21465046DDE90F2300F0EE
:1068500019F806446D1C21E6092801003031323355
:10686000343536373839616263646566000000008C
:106870003031323334353637383941424344454676
:10688000000000002DE9F041044600251E46174691
:10689000880404D405E039462020B0476D1C641EEE
:1068A000F9D52846BDE8F0812DE9F04104460025E0
:1068B0001E469046C80301D5302700E020278804F3
:1068C00004D505E041463846B0476D1C641EF9D535
:1068D0002846BDE8F0810A68531C0B6010707047B1
:1068E000084910B5884202D140F2194401E040F253
:1068F0001A44204601F022FE2046BDE8104001F077
:106900000FBE000000640040F0B5827A304D0121D6
:1069100091402A6842F001022A602D4E1C363268EE
:106920008A4332602A4AC4892A4B0C32B4B91468AB
:106930008C431460C48847882404C7EA0404478948
:1069400003EBC707C7F84046848807882404C7EAD2
:106950000404478903EBC707C7F84446C489012CE0
:1069600016D114680C431460028844881204C4EAE7
:106970000202448903EBC404C4F840268288C48818
:106980001204C4EA0202448903EBC403C3F8442698
:106990000F4A8389121D002B13680DD00B4313601F
:1069A0000B4A03891432002B136807D00B43136082
:1069B000007C012804D006E08B43F0E78B43F6E728
:1069C000306808433060286820F001002860F0BD7E
:1069D000006600400060004070B54FF6FF72056829
:1069E0001346002425F002050560056845F0010501
:1069F000056000E05B1E4568ED0701D1002BF9D171
:106A00004368DB0748D04B784FF0407505EA0363D5
:106A10000D784FF4702643EA85738D7806EA0545B4
:106A20002B43CD784FF4E00606EA05552B434D89FC
:106A30006D1EC5F309052B43C3610B79012B036858
:106A40002CD023F0800303604B79012B036828D0FE
:106A500023F0400303608B79012B036824D023F0DB
:106A600020030360CB79012B036820D023F01003AF
:106A700003600B7A012B03681CD023F0080303602A
:106A8000497A0129016818D021F0040101600168E8
:106A900021F00101016014E000241AE043F08003BA
:106AA000D1E743F04003D5E743F02003D9E743F0B3
:106AB0001003DDE743F00803E1E741F00401E5E7F7
:106AC000521E4168C90702D0002AF9D101E002B183
:106AD0000124204670BD42698A4342617047426981
:106AE0000A434261704741B1002238B1012814D0F5
:106AF00002281DD0032826D0FEE7FEE74A71CA719E
:106B00008A7140F2FF3048810A724A700220887010
:106B1000CA700A714A720A7070470120C8810A74EB
:106B20000A810A804A808A80CA808A814A817047A5
:106B300000200B18401CC0B2DA720828F9D38A7200
:106B40004A600A720AE000200B18401CC0B2DA72D8
:106B50000828F9D38A724A600A72CA744A720A60B3
:106B60007047000002480168491C0160704700003E
:106B7000BC1100202DE9F0410F46804600240C4D49
:106B80004FF4967602E00120FEF70EFC68780128AB
:106B900003D12046641CB042F5D3012068703A4608
:106BA0004146044800F098FB00216970BDE8F0817F
:106BB000B8110020385400202DE9F84F9146824644
:106BC0000F460D46FF2900D9FF250024174E4FF42C
:106BD000967802E00120FEF7E7FB7078012803D1E8
:106BE0002046641C4045F5D30120707010492A46A8
:106BF000504601F8019B06F013F90D496D1CEAB2ED
:106C0000A1F6F40000F026FB044600207070234635
:106C100008A210A1492000970EF092F8394650467C
:106C20000EF090F82046BDE8F88F0000B811002063
:106C30002C5D0020696E7075742066726F6D206423
:106C4000737020646174615B25645D3A25640A0D8C
:106C5000000000006669666F000000002DE9F04149
:106C60000F46804600240C4D4FF4967602E001203A
:106C7000FEF79AFB2878012803D12046641CB04215
:106C8000F5D3012028703A464146044800F024FB21
:106C900000212970BDE8F081B81100202C5000209F
:106CA0002DE9F84F914682460F460D46FF2900D93F
:106CB000FF250024174E4FF4967802E00120FEF7DE
:106CC00073FB3078012803D12046641C4045F5D37E
:106CD0000120307010492A46504601F8019B06F009
:106CE0009FF80D496D1CEAB2A1F5406000F0B2FAC0
:106CF000044600203070234608A20FA149200097C7
:106D00000EF01EF8394650460EF01CF82046BDE83D
:106D1000F88F0000B81100202C5C0020696E70759F
:106D200074203264737020646174615B25645D3A21
:106D300025640A0D000000006669666F000000000F
:106D4000084910B54FF48062A1F10C0000F062FA1E
:106D50000549BDE810404FF4FD62A1F10C0000F0C0
:106D600059BA000038500020445400202DE9F8435F
:106D70003B4D0024009468793A4E274606F11808E6
:106D8000072868D2DFE800F00467671A2A2F3A0064
:106D900033493448AF71891D1830FFF75FFF002871
:106DA0005AD0AB7930A236A149200DF0C9FF012499
:106DB0006C71F0688047032068714DE0A879012468
:106DC000401E81B2726808F101009047AB792EA293
:106DD00033A149200DF0B4FF0420EDE7B0688047EF
:106DE00001240520E8E70124366800234FF4FA6205
:106DF00021022C48B04700900620DDE731690124CC
:106E000068468847002827D027A225A14920009B53
:106E10000DF096FF0098042810DD98F80020FF2A56
:106E200003D0C1B21F48FFF7C7FE1E4840780628AE
:106E300001D010280ED1212028810BE01FA00DF0D9
:106E40007DFF20A216A15720009B0DF079FF26A000
:106E50000DF074FF02246F712046BDE8F883000036
:106E6000A8110020144E00206F75747075742032C4
:106E700064737020646174613A25640A0D00000037
:106E80006669666F00000000647370206669666F53
:106E9000207772697465203A25640A0D00000000AD
:106EA000444556002C4F0020647370206669666F5D
:106EB0002072656164203A25640A0D001B5B333340
:106EC0006D000000646576206669666F20646174F9
:106ED0006120666F726D206572726F72204C454E34
:106EE0003A25640A0D0000001B5B306D0A0D00009E
:106EF00010B5084CE07930B1FFF738FF012801D018
:106F00000020E07110BD00F017F80128FAD0012030
:106F1000F7E70000A8110020064902680A604268ED
:106F20004A6082688A60C268CA6000690861FFF7C7
:106F300007BF0000144E00202DE9FF415B4E0024E6
:106F4000009430892546212802D12220F070358115
:106F5000564871780527564A0123C068082951D23E
:106F6000DFE801F0042C50505055629FDFF844C117
:106F70003279DCF8041032B16046012A806817D0FB
:106F8000022A02D00AE0F16013E0F278571CF77091
:106F9000212A03D9F570DCF80C0009E0B278521C04
:106FA000D2B2B270642A02D9B5703571EBE7337191
:106FB000F0603079401C3071737024E08078D8B173
:106FC00002207070D0681546804703207070F0680A
:106FD00001242146837802883548183006F05CFB8E
:106FE0000146009032486A6818309047042070705B
:106FF000A8688047777006E03078411C31700F2810
:1070000001D93570757004B02046BDE8F0818078F4
:10701000012407EB4001156800234FF4487226480D
:10702000A8470090062030E011690124684688478F
:107030000028E8D021A225A14920009B0DF080FE68
:107040000098042823DD81B20195029501AA1A480F
:10705000039506F071FB58B9F0689DF80C20817813
:10706000B2EB410F04D143680299194898470AE0EE
:1070700018A00DF063FE19A214A145200DF060FECA
:107080001CA00DF05BFE022407207070BBE71BA064
:107090000DF054FE1BA20DA15720009B0DF050FED9
:1070A000EEE7357073700830F060ACE7A81100208F
:1070B000144E0020C45C01082C4F002072656164EE
:1070C000206473703A25640A0D00000044455600A0
:1070D000664C00201B5B33316D0000006465762038
:1070E0006461746120666F726D206572726F720ADE
:1070F0000D0000001B5B306D0A0D00001B5B33337D
:107100006D000000646576206461746120666F72B2
:107110006D206572726F72204C454E3A25640A0DDF
:1071200000000000436889008A40134343607047B1
:1071300010B58C001346A24001EB810100EB8101E8
:10714000022B04D0042B08D0082B0CD0FEE70068DB
:107150008968104001F002010AE000688968104067
:1071600001F0040104E000688968104001F00801A2
:1071700010B109B1012010BD002010BD2DE9F0476C
:10718000D1E90176D0E900320024DFF848A0D1F837
:107190000CC0D1F800902146544409EB021502EBD3
:1071A000040885EA080507EB521885EA08052B4410
:1071B00006EB031503EB040885EA08050CEB5318EE
:1071C00085EA0805491C2A442029E5D3C0E9003294
:1071D000BDE8F087B979379EC28881888A4201D993
:1071E000501A06E0914201D1002070470089891AA7
:1071F000401A80B2704770B50C460546FFF7ECFFA9
:107200002989641C081A401EA04201DB012070BDC0
:10721000002070BD016000218180C1800281704723
:107220008388C28893B15B1E9A4211D003899A4227
:107230000ED203689954C188491C89B2C180028961
:10724000914201D30021C180012070470389EAE700
:10725000002070472DE9F0410C46164607461146BE
:10726000FFF7C9FF002813D031463846FFF7D8FF93
:1072700000280DD0002508E014F8011B3846FFF760
:10728000CFFF002804D06D1CEDB2B542F4D301202D
:10729000BDE8F0818188C088814201D1012070471A
:1072A0000020704770B50D460446FFF7F3FF88B91C
:1072B000A088218988420DD22168085C2870A088A6
:1072C000401C80B2A0802189884201D30020A08088
:1072D000012070BD002070BDF8B517460C4606466B
:1072E000FFF77AFF050005D0B1883068405C401C8C
:1072F000A84201D90020F8BD39463046FFF7D2FF39
:107300000028F8D03878A84202D808B100250EE04D
:10731000F088B080EEE769463046FFF7C3FF0028EB
:10732000E9D09DF800006D1C04F8010BEDB238782F
:10733000A842F0D80120F8BD2DE9F0410B4F0646D8
:10734000C1B2002438460DF0D9FD4FF0005503E0DE
:107350002046641CA84205D2072138460DF012FED3
:107360000028F5D03046BDE8F0810000004C004018
:1073700030B5124D104B45F255541A462C60EC684E
:10738000521E04F0010402D0002CF8D100E04CB9E8
:107390006960E9685B1E01F0020102D00029F8D1A2
:1073A00002E009B1002030BDC0F30B00A8604AF62E
:1073B000AA202860012030BDFFFF0F0000300040F0
:1073C00002494AF6AA2008607047000000300040D9
:1073D00002494CF6CC400860704700000030004085
:1073E00041617047016170472DE9F04301F00F04DE
:1073F000CD0602D5042A18D0144300224FF00F09FD
:107400004FF0010808FA02F51D4019D007689600F0
:1074100009FA06FC27EA0C0704FA06FC4CEA070CFA
:10742000282908D0482908D008E0C26B44F003049A
:107430001A43C263E1E7456100E00561C0F800C09E
:10744000521C92B2082ADDD3082208FA02F51D4028
:1074500014D047689600203E09FA06FC27EA0C077C
:1074600004FA06FC4CEA070C282902D0482902D06D
:1074700002E0456100E00561C0F804C0521C92B210
:10748000102AE2D3BDE8F0838068084000D00120D4
:107490007047C068084000D001207047F0B5144C18
:1074A000002801DAE36900E06368450D2E0185B22A
:1074B000C0F30157B540C0F30342032F05D0C60205
:1074C0000AD503269640B34307E023F0E0626368E1
:1074D00023F0E063636002E0AB4343F0E06201B19C
:1074E0002A43002801DAE261F0BD6260F0BD0000CD
:1074F000000001402DE9F0414FF48041480300F0C5
:1075000005F90DF011FC08F025F93D484FF47A71AA
:10751000002600680725B0FBF1F0401E4FF00F0871
:10752000B0F1807F08D24FF0E0214861354AF02069
:1075300082F8140D8E610D6101F02EF8FA21002001
:1075400005F0E0FAFA21012005F0DCFAFA21022028
:1075500005F0D8FAFA21032005F0D4FAFA21042024
:1075600005F0D0FA01220021042005F065FC01227B
:107570000221002005F060FC01221146104605F0B2
:107580005BFC02220121032005F056FC02210522AA
:10759000084605F051FC06F009F9FDF7C7FE1AA2EE
:1075A0001CA11FA0FEF738FF01F058FD4FF48077B3
:1075B000002239462048FDF761FF204C0A200122B5
:1075C000E680A08039461E48FDF758FF04206082FF
:1075D00014262682022239461A48FDF74FFFE5831A
:1075E000A683032239461848FDF748FFA4F82A80ED
:1075F00064202085FDF72CFF0020BDE8F08100000D
:10760000381200200FE000E031313A35313A3030A5
:10761000000000004D6172202034203230323400EE
:10762000415050207374617274200A0D202573201C
:1076300025730A0D00000000D99E00085C5E002042
:10764000758F00083D9B00084597000800F01F0259
:10765000012191404009800000F1E020C0F8801134
:107660007047000070B5054622480E4600240168A8
:107670002346C1F3022107291AD00168C1F3022170
:10768000062917D00168C1F3022105290DD0016830
:10769000C1F30221042910D00068C0F3022003289E
:1076A0000ED04FF4A06000F027F80224234608E033
:1076B000042306E00124032303E00324012300E064
:1076C0000424C4F104008640C3F104010F20C84023
:1076D0001040304305F1E021000181F8000405F07D
:1076E0001F01012088406909890001F1E021C1F8EA
:1076F000000170BD0CED00E002490843024908603A
:10770000704700000000FA050CED00E0024A11404D
:10771000014302480160704780FFFF1F08ED00E051
:107720004A780B7802EB03220280CA788B7802EB4E
:10773000032242804A790B7902EB03228280CA79C4
:107740008B7902EB0322C2804A7A0B7A02EB032286
:107750000281CA7A8B7A02EB032242814A7B0B7B3D
:1077600002EB03228281CA7B8B7B02EB0322C28164
:107770004A7C0B7C02EB03220282CA7C8B7C02EBEC
:10778000032242824A7D0B7D02EB03228282CA7D64
:107790008B7D02EB0322C2824A7E0B7E02EB032228
:1077A0000283CA7E8B7E02EB032242834A7F0B7FD9
:1077B00002EB03228283CA7F897F02EB0121C1830E
:1077C00001207047F8B516460D4600F12204CA2A7A
:1077D0000CD9BBA00DF0B2FACA23BBA2C1A14520AF
:1077E00000960DF0ADFAC0A00DF0A8FA68782978DF
:1077F00000EB01202080E978AA78A81C01EB022187
:10780000618069792A7901EB0221A180E979AA795D
:1078100001EB0221E180697A2A7A01EB02212181C0
:10782000417A027A01EB02216181417B827A037BFA
:1078300001EB0261C27A120402EB03221144E160FF
:10784000C17B827B01EB02212182417C027C01EB26
:1078500002216182C17C827C01EB0221A182417DF7
:10786000027D01EB0221E182C17D827D01EB0221DB
:107870002183417E027E01EB02216183C17E827EF3
:1078800001EB0221A18310F81D1F10F8012C01EB60
:107890000221E183817810F8012F01EB022121847C
:1078A000C178827801EB022161844179027901EB90
:1078B0000221A184C179827901EB0221E184417A1C
:1078C000027A01EB02212185C17A827A01EB022141
:1078D0006185417B027B01EB0221A185C17B827B1B
:1078E00001EB0221E185417C027C01EB0221218632
:1078F000C17C827C01EB02216186417D027D01EB2E
:107900000221A186C17D827D01EB0221E186417EBB
:10791000027E01EB02212187C17E827E01EB0221E2
:107920006187417F027F01EB0221A18710F81F1FB1
:1079300010F8012C01EB022124F83E1F817810F889
:10794000012F01EB02216180C178827801EB0221D5
:10795000A1804179027901EB0221E180C17982792C
:1079600001EB02212181417A027A01EB022161813E
:10797000C17A827A01EB0221A181417B027B01EB7A
:107980000221E181C17B827B01EB02212182417CCA
:10799000027C01EB02216182C17C827C01EB02212D
:1079A000A182417D027D01EB0221E182C17D827DC8
:1079B00001EB02212183417E027E01EB02216183E2
:1079C000C17E827E01EB0221A183417F027F01EB18
:1079D0000221E183C17F807F01EB002020844448A5
:1079E000628CC17C437D61F3000263F34102037C3E
:1079F00063F38202837C63F3C302437C63F3041268
:107A000062840288A284B0F90C200A2392FBF3F26C
:107A1000E2844288228582886285C288A2850289A2
:107A2000E28542892286C08960863248324D3E3CDA
:107A30000288012A30D1B4F8C6606EB369BBB4F8CD
:107A4000601062F30001827E62F34101827862F38A
:107A50008201027962F3C301827962F30411A4F80E
:107A60006010C18AA4F86210418AB1FBF3F1A4F856
:107A700064100189A4F866104189A4F8681081890E
:107A8000A4F86A10C189A4F86C10018AA4F86E10D9
:107A9000008BA4F8700004E019B1288840F00200BF
:107AA00002E0288820F002002880608C0090638823
:107AB00012A21AA149200DF043F90120F8BD0000DF
:107AC0001B5B33316D0000007265616C2031204C0E
:107AD000454E204552524F523A25642C25640A0DDA
:107AE00000000000445350001B5B306D0A0D000085
:107AF000122200203E230020941100207265616C48
:107B0000206D6F64653A25642C6F757420766F6CF8
:107B10007461653A25640A0D00000000647370000A
:107B20002DE9FC41AF2716460D4600F12204AF2A8D
:107B30000DD92CA00DF002F9CA232CA232A14520A8
:107B4000CDE900670DF0FCF830A00DF0F7F8E8780B
:107B500015F8011B00EB016015F8011B15F8022B4D
:107B6000090401EB02210844C4F87200E87815F812
:107B7000011B00EB016015F8011B15F81D2B090412
:107B800001EB0221084444F8760F15F8030929781F
:107B900000EB0160697815F8022F090401EB02215E
:107BA0000844E061687915F8021F00EB016069780C
:107BB00015F8022F090401EB022108442062E87E37
:107BC000A97E00EB0120A087687F297F00EB0120C0
:107BD000E087E87FA97F00EB0120A4F840000120A6
:107BE000BDE8FC811B5B33316D0000007265616C88
:107BF0002032204C454E204552524F523A25642C9B
:107C000025642C25640A0D00445350001B5B306D25
:107C10000A0D00002DE9FC41AF2716460D4600F184
:107C20002204AF2A0DD91EA00DF088F8CA231EA287
:107C300024A14520CDE900670DF082F822A00DF0C7
:107C40007DF8E8782978AA7800EB01606978090462
:107C500001EB0221084444F8BA0FE8792979AA799E
:107C600000EB01606979090401EB022108446060BE
:107C7000687A297A00EB01202081E87AA97A00EB62
:107C800001206081687B297B00EB0120A081E87BDB
:107C9000A97B00EB0120E0810120BDE8FC81000010
:107CA0001B5B33316D0000007265616C2032204C2B
:107CB000454E204552524F523A25642C25642C25BE
:107CC000640A0D00445350001B5B306D0A0D000028
:107CD000F8B516460D4600F1EC04C02A0CD9B5A043
:107CE0000DF02CF8C023B5A2BAA1452000960DF0E6
:107CF00027F8B9A00DF022F86878297800EB012068
:107D00002080E978AA78A81C01EB022161806979BA
:107D10002A7901EB0221A180E979AA7901EB0221FC
:107D2000E180697A2A7A01EB02212181417A027A83
:107D300001EB02216181C17A827A01EB0221A181EA
:107D4000417B027B01EB0221E181C17B827B01EB64
:107D500002212182417C027C01EB02216182C17CF3
:107D6000827C01EB0221A182417D027D01EB022197
:107D7000E182C17D827D01EB02212183417E027E71
:107D800001EB02216183C17E827E01EB0221A1838E
:107D900010F81D1F10F8012C01EB0221E1838178FE
:107DA00010F8012F01EB02212184C178827801EBC8
:107DB000022161844179027901EB0221A184C17918
:107DC000827901EB0221E184417A027A01EB0221FE
:107DD0002185C17A827A01EB02216185417B027B98
:107DE00001EB0221A185C17B827B01EB0221E185B0
:107DF000417C027C01EB02212186C17C827C01EB6B
:107E000002216186417D027D01EB0221A186C17DB7
:107E1000827D01EB0221E186417E027E01EB02219F
:107E20002187C17E827E01EB02216187417F027F33
:107E300001EB0221A18710F81F1F10F8012C01EBA4
:107E40000221674A24F83E1F1180817810F8012F23
:107E500001EB02216180C178827801EB0221A180CF
:107E60004179027901EB02215E4AE1801180C179FA
:107E7000827901EB02215C4A21811180417A027AE8
:107E800001EB02216181C17A827A01EB0221A18199
:107E9000417B027B01EB0221E181C17B827B01EB13
:107EA00002212182417C027C01EB02216182C17CA2
:107EB000827C01EB0221A182417D027D01EB022146
:107EC000E182C17D827D01EB02212183417E027E20
:107ED00001EB02216183C17E827E01EB0221A1833D
:107EE000417F027F01EB0221E18310F81F1F10F890
:107EF000012C01EB022124F8201F817810F8012FBA
:107F000001EB02216180C178827801EB0221A1801E
:107F10004179027901EB0221E180C179827901EB9B
:107F200002212181417A027A01EB02216181C17A29
:107F3000827A01EB0221A181417B027B01EB0221CC
:107F4000E181C17B827B01EB022124F8101F417C7F
:107F5000027C01EB02216180C17C827C01EB022169
:107F6000A180417D027D01EB0221E180C17D827D06
:107F700001EB02212181417E027E01EB0221618120
:107F8000C17E827E01EB0221A181417F027F01EB54
:107F90000221E181C17F807F14A201EB00202082B9
:107FA00020880090238C1DA149200CF0C9FE0120DF
:107FB000F8BD00001B5B33316D00000053455420B9
:107FC00031204C454E204552524F523A25642C25C3
:107FD000640A0D00445350001B5B306D0A0D000015
:107FE0006C110020681100206A110020775468721B
:107FF0006573686F6C64534F434D696E5F4F5032C9
:108000003A25642C624F7665724C6F6164427970D8
:10801000617373456E3A25640A0D000073657444FC
:10802000617461310000000038B500F5B67448781D
:108030000A7800EB02202080C8788A7800EB0222C0
:1080400051486280028048790A7900EB0220A080C2
:10805000C8798A7900EB0220E080487A0A7A00EB3E
:1080600002202081C87A8A7A00EB02206081487B56
:108070000A7B00EB0220A081C87B8A7B00EB0220F8
:10808000E081487C0A7C00EB02202082C87C8A7C4C
:1080900000EB02206082487D0A7D00EB0220A08276
:1080A000C87D8A7D00EB0220E082487E0A7E00EBDC
:1080B0000220208311F81B0F11F8012C00EB022085
:1080C0006083887811F8012F00EB0220A083C87824
:1080D0008A7800EB0220E08348790A7900EB0220DD
:1080E0002084C8798A7900EB02206084487A0A7A71
:1080F00000EB0220A084C87A8A7A00EB0220E08498
:10810000487B0A7B00EB02202085C87B8A7B00EB42
:1081100002206085487C0A7C00EB0220A085C87C98
:108120008A7C00EB0220E085487D0A7D00EB02207E
:108130002086C87D8A7D00EB02206086487E0A7E0C
:1081400000EB0220A086C87E8A7E00EB0220E0863B
:10815000487F0A7F00EB02202087C87F897F0BA21F
:1081600000EB0120608720890090E38813A149205B
:108170000CF0E6FDA0890090638913A20FA14920AD
:108180000CF0DEFD012038BDD01100207754696D60
:10819000696E674F5032537461727454696D653AF9
:1081A00025642C774475726174696F6E54696D65CE
:1081B0005F4F50323A25640A0D0000007365744425
:1081C0006174613200000000774475726174696FF8
:1081D0006E54696D655F4F50323A25642C77546850
:1081E000726573686F6C64566F6C744D696E5F4F27
:1081F00050323A25640A0D0048780A7800EB0222D2
:1082000022480280CA788B7802EB032242804A79A6
:108210000B7902EB03228280CA798B7902EB03226D
:10822000C2804A7A0B7A02EB03220281CA7A8B7AE5
:1082300002EB032242814A7B0B7B02EB0322828109
:10824000CA7B8B7B02EB0322C2814A7C0B7C02EB54
:1082500003220282CA7C8B7C02EB032242824A7D8B
:108260000B7D02EB03228282CA7D8B7D02EB03220F
:10827000C2824A7E0B7E02EB03220283CA7E897E83
:1082800002EB012141830120704700003E230020C2
:108290000248416A41F0807141627047001002401B
:1082A00070B545A188B02EC98DE82E0043A1464D7A
:1082B000D1E90021CDE9042140A10446D1E9002102
:1082C000CDE9062169680020404BC1F3810121B14D
:1082D0003F4A01294BD0022901D01A4647E069687C
:1082E0004FF4803301F4803199421ED1E96A11F0D4
:1082F000804F00D0374AE96A01F4803199420DD1AC
:10830000E96AC1F30313E96A5B1CC1F30321891C09
:10831000112900D11421B2FBF3F24A43E96A01F0BA
:108320000F01491CB2FBF1F300E02B4B69686A684E
:10833000C1F38341920001D541F010016A685200F7
:1083400001D541F020010F2901D2891C06E0A1F1DD
:108350000F022F2A01D8491C00E03F2103FB01F244
:108360000F2904D103EB4301490001EB5302696873
:108370006B68C1F303111DF8011022FA01F1C3F378
:10838000022304AE6D68F35C21FA03F3C5F3C22542
:1083900006AE755D21FA05F544B1012C08D0022C1A
:1083A00008D0032C00D1284608B070BD1046FBE76A
:1083B0000846F9E71846F7E7000000000000000053
:1083C00001020304060708090010024000127A00A7
:1083D00040787D01006CDC0200093D00064A02EB9A
:1083E0009011096800F01F0201209040014201D065
:1083F000012070470020704700100240054901EB42
:1084000090110A6800F01F030120984002430A609F
:10841000704700000010024070B50023384D1C4624
:108420001C285FD007DC50B3102810D0182847D084
:108430001A2863D14DE0B0F5006F13D0B0F5106F7E
:1084400033D000F57F60B0F5804F57D122E04FF672
:10845000FF751120FFF7C2FF5B1C08B9AB42F8D1D2
:10846000112047E040F601066FF07C453046FFF7EB
:10847000B5FF5B1C08B9AB42F8D130463AE04FF487
:10848000A0650120FFF7AAFF5B1C08B9AB42F8D139
:1084900001202FE043F211063046FFF79FFF5B1CDF
:1084A0000028EAD1AB42F7D1E7E740F601163046A3
:1084B000FFF794FF5B1C0028DFD1AB42F7D1DCE76C
:1084C0001920FFF78BFF5B1C08B9AB42F8D11920CC
:1084D00010E01B20FFF782FF5B1C08B9AB42F8D10C
:1084E0001B2007E01D20FFF779FF5B1C08B9AB429A
:1084F000F8D11D20FFF772FF00B10124204670BDA6
:10850000FFFF0F00054901EB90110A6800F01F03FF
:108510000120984002430A607047000000100240AA
:10852000054901EB90110A6800F01F0301209840F3
:1085300082430A607047000000100240054901EBC9
:1085400090110A6800F01F030120984002430A605E
:1085500070470000001002400849282251F82010FE
:1085600001F8DE2F41224A7043228A704B22CA70E2
:108570000D220A71052207F085BA0000B42F0020F1
:108580000448811D02880A8042884A808088888049
:10859000704700000A0000200020044A014622F82B
:1085A0001010401CC0B20328F9D3704710000020FF
:1085B0002DE9F0417B4903227B480B7801270026F7
:1085C0007A4D7B4C012B7DD04978012976D10280F0
:1085D000012007F031FB774BEF742146D87D00F086
:1085E00030022A74608862F3041060805A88002A7E
:1085F00067D0AE7420F004004880988800287DD0B1
:108600006E74488820F00800488018886880A88028
:10861000D888E8802A819888688118891C4600EBF0
:1086200080004000A881987D28750A88002363F3A4
:108630008E3263F3CF320A804A8863F3000263F319
:1086400041024A8004F0BCF85B4901EB4010C6824D
:1086500004F0B6F8594FA98907EB8010018404F0A3
:10866000AFF807EB8010A189418304F0A9F807EB6C
:108670008010E189018304F0A3F807EB801046869F
:1086800004F09EF807EB8010C68604F099F807EB1B
:108690008010468704F094F807EB8010C68704F03A
:1086A0008FF8474C00EBC00004EBC000C68004F01C
:1086B00087F800EBC00004EBC0008680BDE8F081C5
:1086C00000E065E00280012007F0B6FA3948EF7457
:1086D0003A3890F8201001F008022A74618862F399
:1086E0000411618090F82A20AA2A3AD0AE7421F0B1
:1086F0000401618090F82B10AA2900E04CE034D0EE
:108700006E74618821F004016180028990F8341050
:10871000B2FBF1F3B2FBF1F26B80AA80428947F21F
:108720003053B2FBF1F2EA808289A2F5EA42303A94
:108730002A81C2899A1A6A81827902EB82025200E6
:10874000AA8129752188002262F38E31C08C62F3E0
:10875000CF312180618810F0A00F0BD041F00101D2
:108760000AE0AF7441F00401C3E76F74618841F01F
:108770000801C9E721F0010110F0500F618088B2B3
:1087800002D040F0020001E020F00200608095E796
:10879000AF7440F004002FE76F74488840F0080081
:1087A00032E7000016000020E60000201222002020
:1087B000901100207E16002096160020961D0020A5
:1087C000161900202DE9F041324A8046324C52F809
:1087D00028702089DE3718B1401E2081BDE8F08165
:1087E000218103F0F3FF2D4E032806F120051CD054
:1087F000E87C90B1218D00208AB236F8101021F06B
:10880000010141F0020162F3840121F4FC6126F8C8
:108810001010401C80B20F28EFD900F001F9E87C5D
:108820000026D0B10120207027E000F03BF86089DD
:10883000226B16F81010C1F3820102EB8101C2B263
:108840000B683946404698470121404607F0FAF93F
:1088500000F0E6F8FFF7ACFEE1E7207880B10020F9
:108860006071AE740E486E742E74018821F440411C
:108870000180418821F01F014180012005F0D6FAD6
:10888000A08B401C80B2A0831428A7D307F022F944
:10889000A683A3E7B42F00202C000020F2210020A3
:1088A000901100202DE9F0415B4C5C4D214666891A
:1088B000098D4FF0005735F816008AB206F1010114
:1088C000C30589B229D520F4F07025F816004305B8
:1088D00002D520F0010013E0B4F92C20C0F382038C
:1088E000521E934206DA07EB70104FEAF06125F84A
:1088F00016100AE020F0020094F82A2040F001004F
:1089000062F3840025F816006181608935F8101043
:1089100021F4007125F810101CE0C3075ED007EBAE
:1089200030204FEA3060C0F3421125F816000529C7
:1089300010D320F0E000A03020F0030020F480608D
:1089400062F3840025F81600F0B200F0A9FA6089FD
:10895000401C6081608986425CD0012700266089C6
:108960000F2830D96681B4F822C0A4F824C06684E8
:10897000208C00B12684E08B401C81B20F2900D9E5
:108980000021002015F81020D20708D0638C07FAC8
:1089900000F21A436284814201D1491C89B2401C11
:1089A00080B20F28EED9E08C401C82B2E284608C49
:1089B000844502D108B1032A05D9E6842784E183DE
:1089C0000F2900D9E683608935F810108A071AD478
:1089D000228C7AB1E28B90420ED012E020F48060BB
:1089E00020F0020062F3840020F0E00225F8162057
:1089F0006181AFE7CA0704D041F0020125F81010E9
:108A000001E0401C608160890F28A8D815F810008B
:108A10008007A4D5BDE8F0812C000020F2210020C1
:108A20002DE9F05FDC48DFF874B34FF000090188EE
:108A3000ABF80410DA49012758460988ABF8021050
:108A4000D8490BF11608D94E0988ABF80610ABF8D7
:108A50000890ABF80A908BF813908BF812708BF893
:108A600011908BF8109080F81590A0F80C90A0F859
:108A70000E90A0F80090CC498BF8149088F81390D1
:108A80004878CA4678B38BF813700A7E8BF81420A6
:108A9000B1F90E30584693FBF2F3ABF80430B1F95C
:108AA0000C3093FBF2F3ABF80230B1F9103093FBCA
:108AB000F2F2ABF806204A8AABF808208A8AABF8B3
:108AC0000A20CA788274738862F382030A79427436
:108AD00062F3C3038A78027462F304137380C98A51
:108AE000ABF80C103BE1FFE70024AC48203810F84D
:108AF0001400C00770D0AE4A09F101000FFA80F9E6
:108B0000108807FA04F140F001000143A6481180E3
:108B1000C17909B98471C7718BF8137088F8137023
:108B2000408B414601282FD0A2480A4600EB84150D
:108B300095F828000875A04901EB441109887029AF
:108B400059D0B5F9001091FBF0F191805180B5F941
:108B5000021091FBF0F0D080A988A8F80810E988ED
:108B6000A8F80A10298CA8F80C10B5F90E00FCF72B
:108B700089F9A8F80E006889010641D588F812A085
:108B8000718821F0040140E0844B04EB84028C33B3
:108B9000404633F81210A8F80410A8F8021003EBAE
:108BA0004201603B4A88A8F806208A88A8F8082075
:108BB000CA88A8F80A2004EB440233F81220A8F867
:108BC0000C2088F81470A8F80EA0B1F908105246CD
:108BD0000B0602D5827401E09CE087744B0601D439
:108BE000477400E04274890602D588F8107055E099
:108BF00088F8102052E02888908050806888AAE782
:108C000088F81270718841F004017180410605D422
:108C100088F81170718841F0080104E088F811A00B
:108C2000718821F008017180800605D588B288F826
:108C3000107040F0100004E088F810A0708820F058
:108C400010007080B5F91200C107318802D041F4DC
:108C5000804101E021F4804131808107318802D5D3
:108C600041F4004101E021F400413180C10601D40A
:108C7000410603D5718841F0010102E0718821F0BD
:108C800001017180810601D4000603D5708840F08F
:108C9000020002E0708820F002007080B8F8041032
:108CA000ABF80410B8F80210ABF80210B8F80610D0
:108CB000ABF80610BBF80810B8F808304246194463
:108CC00009B247F230535846ABF80810994200DD1C
:108CD000038141895589294409B24181994200DDC6
:108CE00043818189938919448181C18909B9D189D5
:108CF000C181117D017501B90775917C09B980F8B1
:108D000012A0517C01B1477498F81010A9B18BF8EA
:108D1000107012E0264807FA04F102888A432249BB
:108D200002808879A04204D1CA79012A01D181F850
:108D300007A04A79A24200D148711848203830F87B
:108D40001400400501D58BF81570641C24B20F2C5B
:108D50007FF7CBAE9BF8131009B98BF812A0ABF8D4
:108D60000090BBF904004FF416725946904203DCA0
:108D70004FF4F072904200DA8A80887C08B181F862
:108D800010A0B9F1000F05DDB1F90C2092FBF9F04C
:108D9000ABF80C00BDE8F09F6A1100201222002001
:108DA000681100206C1100202C0000209011002080
:108DB000E6000020961D00209616002070B526497A
:108DC00051F820000021841C02780170072A38D352
:108DD0006078032835D1214D20786989884230D1C7
:108DE000698BA07801292DD0401D904229D1A0186F
:108DF000801E0CF022F986B2921E91B22046FBF73B
:108E0000EBFDB0421DD1164E68896A6B16F8101042
:108E1000C1F3820102EB8102C1B212682046904781
:108E2000688936F8101041F4807126F8101004207B
:108E300028810C480078012803D10B490888401C80
:108E4000088070BDE17801EB00204FF6FF7101EA68
:108E50004000801D80B2C8E7B42F00202C00002005
:108E6000F2210020AC000020CE00002009480A4A70
:108E700000210180D27C02B10121018007490988CB
:108E80004905018802D441F0020101E021F002010C
:108E900001807047E4000020122200209011002081
:108EA000164901EB801220210023491E09B222F845
:108EB000023B0029F9DC124901EB40121021491E46
:108EC00009B222F8023B0029F9DC0E4901EBC0028D
:108ED0000421491E09B222F8023B0029F9DC0949A4
:108EE00000EBC000803101EBC0012020401E00B229
:108EF00021F8023B0028F9DC70470000961D002095
:108F00009616002096180020184928200222088171
:108F1000002048814B8B0885012B1DD001204885FE
:108F20008A8501F138020A6308324A63C885098DCF
:108F30000F4A00208BB232F8101021F0010141F0ED
:108F4000020163F3840121F4FC6122F81010401C3B
:108F500080B20F28EFD97047488504488A85483089
:108F6000086308304863CA85E1E700002C00002050
:108F7000F2210020204D214E002028803080FFF774
:108F8000C3FF03F0A7F84FF6FF784FF416790127D7
:108F90004046FCF709FA0446800702D50120FFF796
:108FA0000DFFE007F4D0288830B1012004F078F9F3
:108FB0004946012000F016FC308880B9288870B13D
:108FC0000FA00BF0BBFE2B880FA214A157200BF0B3
:108FD000B7FE13A00BF0B2FE3780FFF795FF03201A
:108FE00009F05EFB0BF07EFE288808B10BF0E4FE72
:108FF000FEF7E6F9CCE700008A11002054120020A9
:109000001B5B33336D0000007265696E6974206606
:109010006C61673A25640A0D00000000626D730000
:109020001B5B306D0A0D000020210148FEF7D8B906
:109030000008014010B520210648FEF7D3F9064983
:10904000B1F8000120F4FF7040F40070A1F80001B5
:1090500010BD000000080140487D002070B50025CB
:109060002C4640F61C10FFF7B9F928B1012429A2BB
:109070002DA149200BF064FE40F61B10FFF7AEF95E
:1090800038B12BA228A149200BF05AFE44F002046B
:10909000012540F61F10FFF7A1F938B129A222A13E
:1090A00049200BF04DFE012544F0040440F61E104B
:1090B000FFF794F930B129A21BA149200BF040FE23
:1090C00044F0080440F61D10FFF788F930B128A2DB
:1090D00015A149200BF034FE44F0100440F61A109C
:1090E000FFF77CF9274E38B127A20FA149200BF0DA
:1090F00027FE44F0200400E025B1D8212148FBF7E9
:10910000D5F834607068401C7060BDE87040FFF7AF
:10911000BFB800000D0A0D0A20736F6674207265D7
:109120007365740A0D0000007265736574000000B9
:109130000D0A0D0A20706F77657220726573657471
:109140000A0D00000D0A0D0A206C6F7720706F77F2
:1091500065722072657365740A0D00000D0A0D0AB0
:1091600020777764672072657365740A0D000000CC
:109170000D0A0D0A20667764672072657365740AAC
:109180000D000000007C01200D0A0D0A2070696EA0
:109190002072657365740A0D000000002DE9F0412E
:1091A0001E4617460C460546384606F047FB012882
:1091B000FAD0287820706878032180306070A6701B
:1091C0002046FBF709FC010AE17020712146384670
:1091D000BDE8F041052206F055BC2DE9F04799465F
:1091E00092460C460546504606F028FB0128FAD068
:1091F000E878A97800EB012087B26879297900EB3B
:1092000001201FFA80F828782070687860704FEA93
:1092100048000325A07000260DE0384649468847DF
:10922000010A61556D1CE9B27F1C6054491C761C13
:10923000BFB2CDB2F6B24645EFD329462046FBF782
:10924000CBFB010A61556D1CE9B26054491CCAB2DE
:109250002146504606F016FC5046BDE8F047012175
:1092600006F0F0BC2DE9F05F04460E46C078A17808
:10927000002700EB01201FFA80F860789A46934699
:10928000062807D060792179E51D00EB01201FFA3F
:1092900080F91BE04FF00109251D17E0687815F8EB
:1092A000021B524600EB012081B24046904703006A
:1092B00008F101001FFA80F806D05A4631462046D0
:1092C000BDE8F05FFFF76ABF7F1CFFB24F45E5D3F3
:1092D000584606F0B3FA0128FAD02078307060784A
:1092E0007070A078B070E078F0702079307160799B
:1092F000707106213046FBF76FFB010AB171F07106
:1093000008223146584606F0BDFB5846BDE8F05FDE
:10931000012106F097BC00002DE9F0412A4F012100
:109320003846FEF7B1F8294C012600250028607B5D
:109330000FD0FF2801D2401C6073C0B219280ED193
:1093400006F08EFCE07B142801D3A68207E0A582FC
:1093500005E0401E182801D207F0DCF865730421EF
:109360003846FEF791F808B1A67304E0A07B08B177
:1093700007F09EF8A57302213846FEF785F850B134
:10938000E17B642901D2491CE173C8B2462809D1A6
:1093900007F0D0F806E0E07B401E452801D207F038
:1093A00031F9E57308213846FEF76EF80028207C75
:1093B00005D0322801D2401C2074BDE8F08108B1EC
:1093C00006F056FC2574F8E700100140C812002092
:1093D0002DE9F0411B4C0026A57815B16D1EA57036
:1093E00004E0A070E17022716371A671E278164802
:1093F0004FF400710AB30D460746FEF74AF80028FD
:10940000A07900F10100C0B2A0710CD0217988428E
:1094100007D3A67129463846FDF7E2FFE078401EE3
:10942000E070BDE8F08161798842FAD3A6712946DF
:109430003846BDE8F041FDF7D5BFBDE8F041FDF786
:10944000CFBF0000C81200200010014070B5434C8F
:10945000434A02F1C000A18C0088042901D00023F6
:109460000CE0C30709D1830707D4430705D40307DA
:1094700003D4C30601D4830601D501235370B4F885
:109480004E31EBB3042901D1527812B1C20707D192
:1094900004E000230322012108462DE0820604D5C2
:1094A0000023192201211A2026E0820705D4420751
:1094B00003D4020701D4C00604D5012200231146BB
:1094C000022019E0E08DC20704D0012200231146DA
:1094D000052011E0C20403D501231A4603210AE046
:1094E000800701D5012903D194F8300000072BD55E
:1094F0000023012211460A20FFF76AFFE18D00E0F8
:1095000022E0184D880703D4480701D408070AD57C
:1095100002212846FDF766FFE18D880707D448073A
:1095200005D4080703D402212846FDF759FF02217C
:109530002846FDF7AEFF00284FF00101284608D06D
:10954000BDE87040FDF74EBF00231A461946184685
:10955000D2E7BDE87040FDF743BF0000664C002035
:10956000C812002000140140F0B589B040F2197013
:10957000FEF7C8FF40F21A70FEF7C4FF40F2036026
:10958000FEF7C0FF4FF4C060FEF7BCFF324C4FF453
:109590008053032248212046FDF726FF631403224F
:1095A00018212046FDF720FF05A90020FDF79BFAB2
:1095B00069460020FDF797FA284F3846FDF790F9E5
:1095C000002401258DF814408DF8154004268DF8EF
:1095D000166003208DF818408DF81C408DF8170098
:1095E0008DF819508DF81D500C208DF81A40ADF8EB
:1095F0001E008DF81B5005A93846FDF7EDF9ADF8B2
:109600000A40ADF80C40ADF80040ADF80440ADF8AC
:109610000E50ADF80240ADF80640ADF808408DF8A8
:1096200010506846FDF770F90F20ADF80A00684643
:10963000FDF76AF902213846FDF751FA074818305C
:10964000016841F0700101600548046044604472A3
:109650000672847209B0F0BD000C01400068004041
:10966000301600207047000010B51F49002288B056
:1096700008784FF4FA73012806D1088A401C80B29A
:109680000882984200D90A704878012806D1488A91
:10969000401C80B24882984200D94A70134C03A8FB
:1096A000FBF792F800281DD10398400D0090059813
:1096B000019006980290E07C0028F0D103F086F833
:1096C0000328ECD10098A0F251300D2803D8684649
:1096D000FCF72CFAE3E70398C00800906846FCF713
:1096E0003BF9DCE708B010BD16000020282200205E
:1096F0001FB50268042303EBC202CDE900214168D3
:109700000291806803906846FBF708F91FBD0000CE
:109710000649002031F8102022F4007221F81020B0
:10972000401CC0B28128F5D370470000487D00205E
:109730000022134603E040F82230521C92B28A42C3
:10974000F9D370471E48018821F0100101800120E3
:10975000FBF72AFE04211B48FDF744FE1A4D1B4E61
:109760004FF6FF773846FBF71FFE0446400705D546
:10977000174806F0E7FE174901200870E007F1D00E
:1097800001F022FD2888401C80B22880192803D9C6
:1097900011490020088028803088401E0004000CF9
:1097A0003080DFD10A2030800A490C4809F01CFDC6
:1097B0000B4901280870D5D1FCF7AAF8D2E70000C0
:1097C00094110020000C0140DE12002088120020BD
:1097D00067010020C0110020BC12002060010020A1
:1097E000C1110020074A52F82000B0F8C0218A4277
:1097F00003D2521CA0F8C0217047002180F8BC1190
:1098000070470000B42F00202DE9FC4161498046DB
:1098100051F8280000F1DE04093009F04DFE05463C
:10982000042269465CA003F0FBFA04225CA001A9B3
:1098300003F0F6FA2A460821684609F0BFFA282004
:109840002070562060706520A0707220E0703A256C
:109850002571412767716B20A31D0022032103F0AE
:10986000DFFF202666724420A0726120E07274201F
:10987000207365206073A57304F10F010C224BA0C7
:1098800003F0CEFA04F11A01092245A003F0C8FA48
:1098900084F822604D2084F8230084F8245084F852
:1098A0002570502084F8260084F8270084F828606A
:1098B000522084F82900404884F82A5004F12B01F2
:1098C0000768B8B203F0D5FF04F12F01380C03F09C
:1098D000D0FF84F833604E2084F83400364884F892
:1098E000355004F136014768B8B203F0C2FF04F105
:1098F0003A01380C03F0BDFF84F83E60452084F83F
:109900003F004E2084F84000432084F8410084F852
:109910004250B8F1020F0CD0302084F843004422AA
:109920000D20A05421464046521C06F0ABF8BDE87D
:10993000FC81312084F843009DF801009DF800105F
:1099400000EB012004F1440180B203F092FF9DF886
:1099500003009DF8021000EB012004F1480180B2E1
:1099600003F087FF9DF805009DF8041000EB01202F
:1099700004F14C0180B203F07CFF9DF807009DF8D4
:10998000061000EB012004F1500180B203F071FFDA
:109990005422C5E7B42F0020464C530D00000000B0
:1099A00031313A35313A3030000000004D617220DB
:1099B0002034203230323400007C012010B50446BF
:1099C0000F4850F82410487A891C4F280BD1087A88
:1099D000502808D1487A452805D1887A4E2802D1E6
:1099E000C87A0D2804D02046BDE8104003F0CABE56
:1099F00001200BF091F92046BDE81040FEF7ACBD08
:109A0000B42F002070B505464A484B4E50F825400B
:109A1000617AA41C572904D0422922D0412941D07F
:109A20004CE0207A522849D1A07A0D2846D13088BE
:109A300030B902F0DDFE032802D1607A312803D06C
:109A4000607A302806D06AE00121284606F05CFDE5
:109A5000012004E00021032006F056FD00203080A4
:109A600062E0607A5F2829D1A07A502826D1207B35
:109A70000D2823D1207A30382072E07A3038C0B2F5
:109A8000E072217A40EA01260AF000F9B04246D09D
:109A9000207A052843D8E07A022840D8304606F0DC
:109AA000A7FA2FE0207A442808D1607A442805D10B
:109AB000A07A522802D1A07B0D2808D002F098FE8F
:109AC000A8422CD102F088FE01281FD027E0E07ABE
:109AD0003038E072207B30382073617B303961731D
